:020000040000FA
:100000000C9462000C948A000C948A000C948A0070
:100010000C948A000C948A000C948A000C948A0038
:100020000C948A000C948A000C948A000C948A0028
:100030000C948A000C948A000C948A000C948A0018
:100040000C9400040C948A000C9470040C944A04E0
:100050000C948A000C948A000C948A000C948A00F8
:100060000C948A000C948A000000000024002700F1
:100070002A0000000000250028002B0000000000DE
:1000800023002600290004040404040404040202DA
:100090000202020203030303030301020408102007
:1000A0004080010204081020010204081020000012
:1000B0000008000201000003040700000000000027
:1000C0000000470F11241FBECFEFD8E0DEBFCDBF29
:1000D00012E0A0E0B1E0E0EDF2E202C005900D9286
:1000E000A430B107D9F723E0A4E0B2E001C01D922B
:1000F000A331B207E1F710E0C2E6D0E004C02197D7
:10010000FE010E946011C136D107C9F70E94A20406
:100110000C9466110C940000833081F028F4813037
:1001200099F08230A9F008958730A9F08830C9F09D
:100130008430B1F4809180008F7D03C08091800075
:100140008F7780938000089584B58F7784BD08955C
:1001500084B58F7DFBCF8091B0008F778093B00006
:1001600008958091B0008F7DF9CFCF93DF93E0EBBE
:10017000F0E08491ECE9F0E0D491E8E8F0E0C4919B
:10018000CC23A1F081110E948C00EC2FF0E0EE0F47
:10019000FF1FE458FF4FA591B491EC91ED2381E04E
:1001A00090E009F480E0DF91CF91089580E090E045
:1001B000FACF1F93CF93DF93E3EBF0E09491EFE955
:1001C000F0E0D491EBE8F0E0C491CC23B9F0182F23
:1001D000992319F0892F0E948C00EC2FF0E0EE0F8C
:1001E000FF1FEE58FF4FA591B4918FB7F894EC9193
:1001F000111108C0D095DE23DC938FBFDF91CF9122
:100200001F910895DE2BF8CFCF93DF9390E0FC0190
:10021000E656FF4F24918A579F4FFC018491882313
:10022000D1F090E0880F991FFC01E859FF4FA5918C
:10023000B491FC01EE58FF4FC591D49161110EC0ED
:100240009FB7F8948C91E22FE0958E238C932881B0
:10025000E223E8839FBFDF91CF9108958FB7F89491
:10026000EC91E22BEC938FBFF6CFCF93DF93EC01B1
:1002700061E085E00E940401209729F480E0DF918D
:10028000CF910C94D900CF3FD10511F481E0F7CF85
:10029000E3EBF0E0E491E33029F140F4E130B1F038
:1002A000E230D9F0C038D1058CF7E8CFE73021F142
:1002B000E83051F1E430B1F78091800080628093A2
:1002C0008000D0938B00C0938A0004C084B58068FE
:1002D00084BDC7BDDF91CF91089584B5806284BD90
:1002E000C8BDF8CF80918000806880938000D09353
:1002F0008900C0938800EECF8091B0008068809321
:10030000B000C093B300E6CF8091B00080628093CC
:10031000B000C093B400DECF2FB7F89460917202A2
:100320007091730280917402909175022FBF0895AD
:10033000AF92BF92CF92DF92EF92FF920F931F93F3
:10034000CF93DF936C017B018B01040F151FEB0131
:100350005E01AE18BF08C017D10759F06991D601E8
:10036000ED91FC910190F081E02DC6010995892B5A
:1003700079F7C501DF91CF911F910F91FF90EF9019
:10038000DF90CF90BF90AF900895FC01538D448DC6
:10039000252F30E0842F90E0821B930B541710F030
:1003A000CF96089501970895FC01918D828D98173D
:1003B00061F0A28DAE0FBF2FB11D5D968C91928D15
:1003C0009F5F9F73928F90E008958FEF9FEF089546
:1003D000FC01918D828D981731F0828DE80FF11D0F
:1003E000858D90E008958FEF9FEF0895FC01918D2A
:1003F000228D892F90E0805C9F4F821B91098F7323
:100400009927089586E792E00E94F60121E0892B62
:1004100009F420E0822F089580E090E0892B29F0F4
:100420000E94020281110C9400000895FC01A48D29
:10043000A80FB92FB11DA35ABF4F2C91848D90E006
:1004400001968F739927848FA689B7892C93A089E9
:10045000B1898C91837080648C93938D848D981373
:1004600006C00288F389E02D80818F7D8083089506
:10047000EF92FF920F931F93CF93DF93EC0181E0F4
:10048000888F9B8D8C8D98131AC0E889F98980819B
:1004900085FF15C09FB7F894EE89FF896083E889CE
:1004A000F98980818370806480839FBF81E090E0C0
:1004B000DF91CF911F910F91FF90EF900895F62E4D
:1004C0000B8D10E00F5F1F4F0F731127E02E8C8DE7
:1004D0008E110CC00FB607FCFACFE889F98980812C
:1004E00085FFF5CFCE010E941602F1CFEB8DEC0F08
:1004F000FD2FF11DE35AFF4FF0829FB7F8940B8F49
:10050000EA89FB8980818062CFCFCF93DF93EC01B2
:10051000888D8823B9F0AA89BB89E889F9898C91EB
:1005200085FD03C0808186FD0DC00FB607FCF7CFA7
:100530008C9185FFF2CF808185FFEDCFCE010E94A7
:100540001602E9CFDF91CF910895FC0101900020C0
:10055000E9F73197AF01481B590BBC0186E792E0E0
:100560000C9498018F929F92AF92BF920F931F931A
:10057000CF93DF93CDB7DEB7A1970FB6F894DEBF68
:100580000FBECDBF19A2423008F44AE08E010F5DC4
:100590001F4F842E912CB12CA12CA50194010E94F7
:1005A0003E11E62FB901CA01EA30F4F4E05DD8014A
:1005B000EE938D01232B242B252B79F790E080E0FF
:1005C000109719F0CD010E94A502A1960FB6F894DC
:1005D000DEBF0FBECDBFDF91CF911F910F91BF90B6
:1005E000AF909F908F900895E95CE1CFCF93DF9318
:1005F0000E94A502EC0182E191E00E94A5028C0F0D
:100600009D1FDF91CF910895CF92DF92EF92FF92DD
:10061000CF93DF936C01990FEE08FF08F7FE1FC020
:100620006DE286E792E00E943802EC0166277727A8
:10063000CB016C197D098E099F094AE00E94B20224
:10064000C80FD91F82E191E00E94A5028C0F9D1F67
:10065000DF91CF91FF90EF90DF90CF9008954AE027
:10066000C701B6010E94B202EC01ECCF4F925F923B
:100670006F927F928F929F92AF92BF92CF92DF92B2
:10068000EF92FF926B017C01AC019B010E9439113A
:100690008823C1F085E191E00E94A5027C0182E1FE
:1006A00091E00E94A5028E0D9F1DFF90EF90DF90BC
:1006B000CF90BF90AF909F908F907F906F905F9002
:1006C0004F90089546015701E894B7F82FEF3FEF98
:1006D0004FE75FE7C501B4010E94391181110DC0D8
:1006E0002FEF3FEF4FE75FE7C501B4010E94E10F35
:1006F00018161CF489E191E0CFCF2FEF3FEF4FE7C1
:100700005FE4C701B6010E94C71018161CF48DE102
:1007100091E0C2CF2FEF3FEF4FE75FECC701B6018B
:100720000E94E10F87FDF3CF20E030E0A901C7016F
:10073000B6010E94E10FB12CA12C87FF0AC06DE227
:1007400086E792E00E9438025C01F7FAF094F7F82D
:10075000F0942AE037ED43EA5BE3C701B6010E945B
:10076000750F2B013C010E94E60F6B017C010E947A
:1007700015109B01AC01C301B2010E94740F2B0143
:100780003C014AE0C701B6010E94B2027C01EA0CBA
:10079000FB1C6EE286E792E00E943802E80EF91E2A
:1007A00020E030E040E251E4C301B2010E94CC10ED
:1007B0002B013C010E94E60F4B01B12CA12C4AE019
:1007C000C501B4010E94B202E80EF91EC501B401D0
:1007D0000E9415109B01AC01C301B2010E94740F6D
:1007E00020E030E040E251E40E94CC100E94E60F8D
:1007F00090E080E04AE00E94B202E80EF91E4FCF7E
:100800001F920F920FB60F9211242F933F938F9345
:100810009F93AF93BF938091720290917302A091C6
:100820007402B09175023091710223E0230F2D37CD
:1008300058F50196A11DB11D20937102809372029B
:1008400090937302A0937402B093750280916D022D
:1008500090916E02A0916F02B09170020196A11D5D
:10086000B11D80936D0290936E02A0936F02B093BE
:100870007002BF91AF919F918F913F912F910F90F7
:100880000FBE0F901F90189526E8230F0296A11D0A
:10089000B11DD2CF1F920F920FB60F9211242F933A
:1008A0003F934F935F936F937F938F939F93AF93F8
:1008B000BF93EF93FF9386E792E00E941602FF91A9
:1008C000EF91BF91AF919F918F917F916F915F91C8
:1008D0004F913F912F910F900FBE0F901F90189541
:1008E0001F920F920FB60F9211242F938F939F9305
:1008F000EF93FF93E0918602F09187028081E0916F
:100900008C02F0918D0282FD1BC0908180918F023C
:100910008F5F8F7320919002821741F0E0918F02D8
:10092000F0E0EA58FD4F958F80938F02FF91EF9191
:100930009F918F912F910F900FBE0F901F90189540
:100940008081F4CF789484B5826084BD84B5816061
:1009500084BD85B5826085BD85B5816085BD80918A
:100960006E00816080936E00109281008091810002
:1009700082608093810080918100816080938100FA
:10098000809180008160809380008091B1008460BC
:100990008093B1008091B00081608093B00080911D
:1009A0007A00846080937A0080917A0082608093DC
:1009B0007A0080917A00816080937A0080917A0039
:1009C000806880937A001092C100E0918602F091D5
:1009D000870282E08083E0918202F091830210829C
:1009E000E0918402F09185028FEC808310928E0258
:1009F000E0918A02F0918B0286E08083E091880288
:100A0000F0918902808180618083E0918802F09179
:100A10008902808188608083E0918802F091890258
:100A2000808180688083E0918802F09189028081D2
:100A30008F7D808360E082E00E94040161E085E0B8
:100A40000E940401CC24C394D12CC3E0D0E046E042
:100A5000E42EF12C59E0852E912C6CE0A62EB12CC1
:100A600002E010E084E0482E512C91E3692E712CB5
:100A70002DE3222E312C10926C0210926B02809189
:100A8000690290916A02892B51F40E94B500892B6A
:100A900011F00C94DC0ED0926A02C092690280912F
:100AA000690290916A02019721F410926A021092F1
:100AB0006902109368020093670280916902909125
:100AC0006A02029721F4D0936A02C093690280916E
:100AD000690290916A02039739F450926A02409237
:100AE000690281E00E94D9008091690290916A02B6
:100AF000049781F485E090E090936A028093690204
:100B00000E948C016093630270936402809365027B
:100B1000909366028091690290916A020597B9F4F8
:100B20000E948C0120916302309164024091650221
:100B300050916602621B730B840B950B6233710537
:100B40008105910520F0F0926A02E0926902F0922C
:100B50006202E09261028091690290916A020697B6
:100B600061F40E94B500892B11F40C94E60E87E025
:100B700090E090936A02809369028091690290915B
:100B80006A02079721F4F0926A02E092690288E013
:100B900090E09093600280935F028091690290914F
:100BA0006A02089721F490926A0280926902809109
:100BB000690290916A02099749F48AE090E0909363
:100BC0006A028093690280E00E94D90080916902E4
:100BD00090916A020A9781F48BE090E090936A0208
:100BE000809369020E948C01609363027093640297
:100BF00080936502909366028091690290916A02E7
:100C00000B97B9F40E948C01209163023091640229
:100C10004091650250916602621B730B840B950B29
:100C2000623371058105910570F0B0926A02A0925D
:100C300069028091690290916A020C9721F41092E6
:100C40006A021092690280915D0290915E02892B86
:100C500041F4D0925E02C0925D0281E291E00E9476
:100C6000F60280915D0290915E02019771F41093FB
:100C70005E0200935D020E948C01609359027093A2
:100C80005A0280935B0290935C0280915D02909186
:100C90005E020297B9F40E948C01209159023091B2
:100CA0005A0240915B0250915C02621B730B840BF1
:100CB000950B603D77408105910520F0D0935E0251
:100CC000C0935D02D0935802C093570280915D0299
:100CD00090915E02039721F450925E0240925D0271
:100CE00080915D0290915E02049791F485E090E01E
:100CF00090935E0280935D020E94B500892B71F093
:100D0000809155029091560290935E0280935D020D
:100D100080915D0290915E02059741F4F0925E022F
:100D2000E0925D0288E291E00E94F60280915D020D
:100D300090915E02069781F487E090E090935E02C6
:100D400080935D020E948C016093590270935A0255
:100D500080935B0290935C0280915D0290915E02B1
:100D60000797C9F40E948C012091590230915A02D0
:100D700040915B0250915C02621B730B840B950BDC
:100D8000683E734081059105A0F088E090E0909363
:100D90005E0280935D0280915D0290915E020897F1
:100DA00041F4809157029091580290935E02809393
:100DB0005D02909256028092550280915D02909160
:100DC0005E02099731F48AE090E090935E0280938E
:100DD0005D0280915D0290915E020A9751F48BE072
:100DE00090E090935E0280935D0210925402109204
:100DF000530280915D0290915E020B9739F4B0929C
:100E00005E02A0925D0281E080935202B092510294
:100E1000A092500280915D0290915E020C9731F495
:100E20008DE090E090935E0280935D0280915D0280
:100E300090915E020D97A9F480915202882309F4E3
:100E4000CBC71092520280915302909154020B979B
:100E500074F080914E0290914F0290935E028093C5
:100E60005D0280915D0290915E020E9741F4809147
:100E7000530280FD0AC0B0925E02A0925D02809192
:100E80005D0290915E020F9761F480E190E0909393
:100E90005E0280935D0280915302909154020E9401
:100EA000040380915D0290915E02409781F481E19C
:100EB00090E090935E0280935D020E948C016093AB
:100EC000590270935A0280935B0290935C02809166
:100ED0005D0290915E024197C9F40E948C012091BD
:100EE000590230915A0240915B0250915C02621BA0
:100EF000730B840B950B683E734081059105A0F040
:100F000082E190E090935E0280935D0280915D02A9
:100F100090915E02429741F480915002909151026B
:100F200090935E0280935D0283E190E090934F0284
:100F300080934E0280915D0290915E02439731F45E
:100F400084E190E090935E0280935D0280915D0267
:100F500090915E02449771F485E190E090935E0277
:100F600080935D0210924A0210924B0210924C0242
:100F700010924D0285E190E09093490280934802DF
:100F800080915D0290915E024597B1F420E030E0DF
:100F900040E251E460914A0270914B0280914C0210
:100FA00090914D020E94E10F87FF20C786E190E0FB
:100FB00090935E0280935D0280915D0290915E024B
:100FC000469751F587E190E090935E0280935D0231
:100FD00020E030E040E05FE360914A0270914B0214
:100FE00080914C0290914D020E94750F60934A02CD
:100FF00070934B0280934C0290934D0281E491E0F8
:101000000E94A50260914A0270914B0280914C02AD
:1010100090914D020E94360380915D0290915E0294
:10102000479781F488E190E090935E0280935D029F
:101030000E948C016093590270935A0280935B0264
:1010400090935C0280915D0290915E024897C9F492
:101050000E948C012091590230915A0240915B020A
:1010600050915C02621B730B840B950B643F7140C3
:1010700081059105B0F189E190E090935E02809343
:101080005D0280915D0290915E02499751F58AE17F
:1010900090E090935E0280935D0220E030E040E0BB
:1010A0005FE360914A0270914B0280914C029091F3
:1010B0004D020E94750F60934A0270934B02809319
:1010C0004C0290934D0281E491E00E94A502609150
:1010D0004A0270914B0280914C0290914D020E9405
:1010E000360380915D0290915E024A9781F48BE114
:1010F00090E090935E0280935D020E948C01609369
:10110000590270935A0280935B0290935C02809123
:101110005D0290915E024B97C9F40E948C01209170
:10112000590230915A0240915B0250915C02621B5D
:10113000730B840B950B643F714081059105A0F002
:101140008CE190E090935E0280935D0280915D025D
:1011500090915E024C9741F480914802909149022F
:1011600090935E0280935D028DE190E09093470240
:101170008093460280915D0290915E024D9731F41A
:101180008EE190E090935E0280935D0280915D021B
:1011900090915E024E9751F48FE190E090935E0241
:1011A00080935D02109245021092440280915D028C
:1011B00090915E024F9749F480E290E090935E0236
:1011C00080935D0281E08093430280E290E09093FF
:1011D00042028093410280915D0290915E0280976D
:1011E00031F481E290E090935E0280935D02809101
:1011F0005D0290915E028197A9F480914302882359
:1012000009F4F9C51092430280914402909145027D
:10121000069774F080913F029091400290935E0295
:1012200080935D0280915D0290915E02829761F4ED
:1012300083E290E090935E0280935D02809144028D
:10124000909145020E94040380915D0290915E029C
:10125000839781F484E290E090935E0280935D0234
:101260000E948C016093590270935A0280935B0232
:1012700090935C0280915D0290915E028497C9F424
:101280000E948C012091590230915A0240915B02D8
:1012900050915C02621B730B840B950B683E73408C
:1012A00081059105A0F085E290E090935E02809325
:1012B0005D0280915D0290915E02859741F480917C
:1012C00041029091420290935E0280935D0286E219
:1012D00090E09093400280933F0280915D02909154
:1012E0005E02869731F487E290E090935E028093ED
:1012F0005D0287E290E090933E0280933D028091F0
:101300005D0290915E02879759F40E94B500892B87
:1013100009F07BC588E290E090935E0280935D02C5
:1013200080915D0290915E02889709F04FC089E23A
:1013300090E090935E0280935D02809139029091DB
:101340003A02892B41F4D0923A02C092390288E2E3
:1013500091E00E94F6028091390290913A02019741
:1013600071F410933A02009339020E948C01609349
:101370003502709336028093370290933802809141
:10138000390290913A020297B9F40E948C0120919F
:101390003502309136024091370250913802621B7B
:1013A000730B840B950B683E73408105910570F0BB
:1013B000D0933A02C09339028091390290913A0257
:1013C000039721F410923A021092390280915D0243
:1013D00090915E02899741F480913D0290913E0286
:1013E00090935E0280935D028AE290E090933C02CB
:1013F00080933B0280915D0290915E028A9731F466
:101400008BE290E090935E0280935D028BE290E02D
:10141000909334028093330280915D0290915E023A
:101420008B9709F0D3C080910F0290911002892B05
:1014300041F4D0921002C0920F028DE491E00E941C
:10144000F60280910F0290911002019741F41093DF
:10145000100200930F0210920E0210920D02809162
:101460000F0290911002029739F4D0931002C093AA
:101470000F0281E080930C02D0930B02C0930A020A
:1014800080910F0290911002039721F45092100264
:1014900040920F0280910F02909110020497A9F4DC
:1014A00080910C02882309F4B5C410920C0280913B
:1014B0000D0290910E02069774F0809108029091AF
:1014C00009029093100280930F0280910F02909175
:1014D0001002059771F4F0921002E0920F0288E674
:1014E00091E00E94A50280910D0290910E020E944F
:1014F000040380910F0290911002069781F487E017
:1015000090E09093100280930F020E948C016093F0
:101510000402709305028093060290930702809163
:101520000F02909110020797C9F40E948C0120913C
:101530000402309105024091060250910702621B9D
:10154000730B840B950B683E734081059105A0F0E9
:1015500088E090E09093100280930F0280910F0238
:1015600090911002089741F480910A0290910B0229
:101570009093100280930F029092090280920802C9
:1015800080910F0290911002099731F48AE090E067
:101590009093100280930F0280910F02909110029D
:1015A0008A30910509F040C48BE090E090931002DE
:1015B00080930F0282E891E00E94F602809131024E
:1015C0009091320290935E0280935D0280915D0261
:1015D00090915E028C9709F066C18DE290E0909345
:1015E0005E0280935D0280912F0290913002892BE0
:1015F00041F4D0923002C0922F0210922E0210922B
:101600002D0280912F0290913002019739F41093AE
:10161000300200932F0281E080932C0210932B0262
:1016200000932A0280912F0290913002029721F4B8
:10163000D0933002C0932F0280912F0290913002FC
:101640000397B9F480912C02882309F4F9C310920E
:101650002C0280912D0290912E028F3F910579F0FE
:1016600074F0809128029091290290933002809327
:101670002F0280912F0290913002049761F485E04F
:1016800090E09093300280932F0280912D029091F0
:101690002E020E94350180912F0290913002059711
:1016A00071F4F0923002E0922F020E948C0160935C
:1016B0002402709325028093260290932702809142
:1016C0002F02909130020697C9F40E948C0120915C
:1016D0002402309125024091260250912702621B7C
:1016E000730B840B950B623071058105910580F0B9
:1016F00087E090E09093300280932F0280912F0238
:1017000090913002079721F41093300200932F023A
:1017100088E090E0909329028093280280912F0224
:1017200090913002089721F49092300280922F021B
:1017300080912F0290913002099761F48AE090E045
:101740009093300280932F028FEF90E090932302CA
:101750008093220280912F02909130020A9749F4DF
:101760008BE090E09093300280932F0281E0809391
:1017700021028BE090E09093200280931F028091E1
:101780002F02909130020B9721F4B0923002A09278
:101790002F0280912F02909130020C97A9F4809132
:1017A0002102882309F456C310922102809122025B
:1017B0009091230297FF0EC080911D0290911E020E
:1017C0009093300280932F0280912F0290913002EB
:1017D0000D9761F48EE090E09093300280932F0299
:1017E00080912202909123020E94350180912F0264
:1017F000909130020E9781F48FE090E09093300248
:1018000080932F020E948C01609324027093250222
:10181000809326029093270280912F0290913002AC
:101820000F97C9F40E948C01209124023091250267
:101830004091260250912702621B730B840B950B7B
:10184000623071058105910590F080E190E0909300
:10185000300280932F0280912F02909130024097A6
:1018600031F48BE090E09093300280932F0281E17D
:1018700090E090931E0280931D0280912F02909120
:101880003002419731F482E190E0909330028093EE
:101890002F0280912F0290913002429721F41092F2
:1018A000300210922F0280915D0290915E028D971E
:1018B00041F4809133029091340290935E028093C0
:1018C0005D028EE290E0909332028093310280912B
:1018D0005D0290915E028E9731F48FE290E09093DA
:1018E0005E0280935D0280915D0290915E028F970F
:1018F00071F480E390E090935E0280935D02109219
:10190000190210921A0210921B0210921C0280916E
:101910005D0290915E02C09771F470925E026092D7
:101920005D020E948C016093190270931A028093E9
:101930001B0290931C027092180260921702809111
:101940005D0290915E02C197D1F40E948C012091BA
:10195000190230911A0240911B0250911C02621B25
:10196000730B840B950B683873418105910508F062
:101970007BC282E390E090935E0280935D0280914F
:101980005D0290915E02C29749F483E390E09093E8
:101990005E0280935D0281E00E94D90080915D0229
:1019A00090915E02C39781F484E390E090935E028D
:1019B00080935D020E948C016093590270935A02D9
:1019C00080935B0290935C0280915D0290915E0235
:1019D000C497C9F40E948C012091590230915A0297
:1019E00040915B0250915C02621B730B840B950B60
:1019F000683E734081059105A8F085E390E09093DF
:101A00005E0280935D0280915D0290915E02C597B7
:101A100049F486E390E090935E0280935D0280E05B
:101A20000E94D90080915D0290915E02C69781F478
:101A300087E390E090935E0280935D020E948C01A8
:101A40006093590270935A0280935B0290935C02F8
:101A500080915D0290915E02C797C9F40E948C014B
:101A60002091590230915A0240915B0250915C02E0
:101A7000621B730B840B950B683E734081059105C7
:101A800080F088E390E090935E0280935D02809105
:101A90005D0290915E02C89721F470925E0260929E
:101AA0005D0289E390E09093160280931502809185
:101AB0005D0290915E02C99731F48AE390E09093C1
:101AC0005E0280935D0280915D0290915E02CA97F2
:101AD00069F48BE390E090935E0280935D0280E076
:101AE0000E94D9008FE991E00E94F60280915D0288
:101AF00090915E02CB9781F48CE390E090935E022C
:101B000080935D020E948C016093590270935A0287
:101B100080935B0290935C0280915D0290915E02E3
:101B2000CC97B9F40E948C012091590230915A024D
:101B300040915B0250915C02621B730B840B950B0E
:101B4000683E73408105910520F030925E0220923C
:101B50005D02309214022092130280915D029091F6
:101B60005E02CD9759F40E94B500892B09F081C11E
:101B70008EE390E090935E0280935D0280915D021F
:101B800090915E02CE9751F48FE390E090935E02C5
:101B900080935D0280EC91E00E94F60280915D02EC
:101BA00090915E02CF9781F480E490E090935E0282
:101BB00080935D020E948C016093590270935A02D7
:101BC00080935B0290935C0280915D0290915E0233
:101BD00080349105C9F40E948C0120915902309102
:101BE0005A0240915B0250915C02621B730B840BA2
:101BF000950B603D774081059105B8F081E490E058
:101C000090935E0280935D0280915D0290915E02EE
:101C10008134910551F482E490E090935E028093C8
:101C20005D0287EC91E00E94F60280915D02909146
:101C30005E028234910581F483E490E090935E0229
:101C400080935D020E948C016093590270935A0246
:101C500080935B0290935C0280915D0290915E02A2
:101C600083349105C9F40E948C012091590230916E
:101C70005A0240915B0250915C02621B730B840B11
:101C8000950B603D774081059105A8F084E490E0D4
:101C900090935E0280935D0280915D0290915E025E
:101CA0008434910541F48091130290911402909331
:101CB0005E0280935D0285E490E09093120280932F
:101CC000110280915D0290915E028534910531F49C
:101CD00086E490E090935E0280935D0280915D02C5
:101CE00090915E028634910571F487E490E09093C0
:101CF0005E0280935D028EEC91E00E94F60288ED18
:101D000091E00E94F60280915D0290915E0287341C
:101D1000910581F488E490E090935E0280935D02E7
:101D20000E948C016093590270935A0280935B0267
:101D300090935C0280915D0290915E0288349105DF
:101D4000C9F40E948C012091590230915A024091AD
:101D50005B0250915C02621B730B840B950B603D20
:101D6000774081059105C0F089E490E090935E0290
:101D700080935D0280915D0290915E0289349105AD
:101D800009F07CC08AE490E090935E0280935D024B
:101D900087EE91E00E94F60280E090E0892B11F43A
:101DA0000C943B050E940202882311F40C94300528
:101DB0000E9400000C9430058091670290916802A7
:101DC00090936A02809369020C944F0580915F02A0
:101DD000909160020C94B905809153029091540245
:101DE000019690935402809353022DC8809146022D
:101DF00090914702DDC8809144029091450201967E
:101E00009093450280934402FFC980913B029091D8
:101E10003C0282CA80910D0290910E02019690932D
:101E20000E0280930D0243CB0B9721F41092100207
:101E300010920F0280915D0290915E020196C2CBDA
:101E400080912D0290912E02019690932E02809304
:101E50002D02FFCB80912202909123020197909353
:101E6000230280932202A2CC809115029091160247
:101E700082CD80911102909112027CCE8A3491051C
:101E800009F08ACF10925E0210925D0285CFE6E7DC
:101E9000F2E01382128288EE93E0A0E0B0E0848347
:101EA0009583A683B78384E091E09183808385EC5A
:101EB00090E09587848784EC90E09787868780EC14
:101EC00090E0918B808B81EC90E0938B828B82EC05
:101ED00090E0958B848B86EC90E0978B868B118EAF
:101EE000128E138E148E08955058BB27AA270E9475
:101EF0008C0F0C948D100E947F1038F00E94861079
:101F000020F039F49F3F19F426F40C947C100EF461
:101F1000E095E7FB0C947610E92F0E949E1058F391
:101F2000BA17620773078407950720F079F4A6F5BE
:101F30000C94C0100EF4E0950B2EBA2FA02D0B01BF
:101F4000B90190010C01CA01A0011124FF27591BFE
:101F500099F0593F50F4503E68F11A16F040A22F04
:101F6000232F342F4427585FF3CF46953795279575
:101F7000A795F0405395C9F77EF41F16BA0B620B74
:101F8000730B840BBAF09150A1F0FF0FBB1F661FBB
:101F9000771F881FC2F70EC0BA0F621F731F841FFE
:101FA00048F4879577956795B795F7959E3F08F024
:101FB000B0CF9395880F08F09927EE0F97958795E6
:101FC00008950E94521008F481E008950E94A6101E
:101FD00088F09F5798F0B92F9927B751B0F0E1F0EA
:101FE000660F771F881F991F1AF0BA95C9F714C09A
:101FF000B13091F00E94C010B1E008950C94C0106F
:10200000672F782F8827B85F39F0B93FCCF38695D2
:1020100077956795B395D9F73EF49095809570952F
:1020200061957F4F8F4F9F4F0895E89409C097FBAC
:102030003EF490958095709561957F4F8F4F9F4F9F
:102040009923A9F0F92F96E9BB279395F6958795E3
:1020500077956795B795F111F8CFFAF4BB0F11F4A6
:1020600060FF1BC06F5F7F4F8F4F9F4F16C088234D
:1020700011F096E911C0772321F09EE8872F762F83
:1020800005C0662371F096E8862F70E060E02AF0C4
:102090009A95660F771F881FDAF7880F96958795B0
:1020A00097F90895990F0008550FAA0BE0E8FEEF85
:1020B00016161706E807F907C0F012161306E4070C
:1020C000F50798F0621B730B840B950B39F40A2605
:1020D00061F0232B242B252B21F408950A2609F4E3
:1020E000A140A6958FEF811D811D089597F99F67E7
:1020F00080E870E060E008959FEF80EC0895002490
:102100000A941616170618060906089500240A945C
:1021100012161306140605060895092E0394000CE2
:1021200011F4882352F0BB0F40F4BF2B11F460FF71
:1021300004C06F5F7F4F8F4F9F4F089557FD90589A
:10214000440F551F59F05F3F71F04795880F97FB7B
:10215000991F61F09F3F79F0879508951216130635
:102160001406551FF2CF4695F1DF08C01616170664
:102170001806991FF1CF8695710561050894089599
:10218000E894BB2766277727CB0197F908950E942B
:10219000521008F48FEF08950E94DF100C948D10F8
:1021A0000E947F1038F00E94861020F0952311F0D5
:1021B0000C9476100C947C1011240C94C1100E9485
:1021C0009E1070F3959FC1F3950F50E0551F629FCD
:1021D000F001729FBB27F00DB11D639FAA27F00D80
:1021E000B11DAA1F649F6627B00DA11D661F829FA7
:1021F0002227B00DA11D621F739FB00DA11D621F8C
:10220000839FA00D611D221F749F3327A00D611DA8
:10221000231F849F600D211D822F762F6A2F11248A
:102220009F5750409AF0F1F088234AF0EE0FFF1FBD
:10223000BB1F661F771F881F91505040A9F79E3F14
:10224000510580F00C9476100C94C1105F3FE4F3BC
:10225000983ED4F3869577956795B795F795E7956A
:102260009F5FC1F7FE2B880F911D9695879597F973
:1022700008950E945210880B990B0895A1E21A2E1E
:10228000AA1BBB1BFD010DC0AA1FBB1FEE1FFF1F1A
:10229000A217B307E407F50720F0A21BB30BE40B6A
:1022A000F50B661F771F881F991F1A9469F76095B1
:1022B0007095809590959B01AC01BD01CF0108956B
:1022C000EE0FFF1F0590F491E02D0994F894FFCFD5
:1022D0000000000038029801C5018502F601D40112
:1022E000E8010D0A006E616E00696E66006F766629
:1022F000005374657020300057616974696E6720FF
:10230000666F7220627574746F6E2070726573737D
:102310000054696D65732072616E3A2000536563E5
:102320006F6E646172792073657175656E63652087
:1023300073746172746564005365636F6E64617277
:10234000792072756E6E696E672074696D65733A77
:1023500020005365636F6E646172792073657175D7
:10236000656E636520636F6D706C657465640048AD
:102370006F6C642074686520627574746F6E20746D
:102380006F206578697420746865206C6F6F7000C9
:102390005374657020320053746570203300436FAE
:1023A0006D706C6574652100526573746172746937
:1023B0006E67202E2E2E0053657175656E63652045
:1023C0006E6F74696669656420636F6D706C6574A7
:0423D000696F6E00C3
:107E0000112484B714BE81FFF0D085E080938100F7
:107E100082E08093C00088E18093C10086E0809377
:107E2000C20080E18093C4008EE0C9D0259A86E02C
:107E300020E33CEF91E0309385002093840096BBD3
:107E4000B09BFECF1D9AA8958150A9F7CC24DD24C4
:107E500088248394B5E0AB2EA1E19A2EF3E0BF2EE7
:107E6000A2D0813461F49FD0082FAFD0023811F036
:107E7000013811F484E001C083E08DD089C08234E0
:107E800011F484E103C0853419F485E0A6D080C0E4
:107E9000853579F488D0E82EFF2485D0082F10E0AE
:107EA000102F00270E291F29000F111F8ED06801E7
:107EB0006FC0863521F484E090D080E0DECF843638
:107EC00009F040C070D06FD0082F6DD080E0C81688
:107ED00080E7D80618F4F601B7BEE895C0E0D1E017
:107EE00062D089930C17E1F7F0E0CF16F0E7DF06D8
:107EF00018F0F601B7BEE89568D007B600FCFDCFD4
:107F0000A601A0E0B1E02C9130E011968C91119780
:107F100090E0982F8827822B932B1296FA010C0160
:107F200087BEE89511244E5F5F4FF1E0A038BF0790
:107F300051F7F601A7BEE89507B600FCFDCF97BE46
:107F4000E89526C08437B1F42ED02DD0F82E2BD052
:107F50003CD0F601EF2C8F010F5F1F4F84911BD097
:107F6000EA94F801C1F70894C11CD11CFA94CF0C13
:107F7000D11C0EC0853739F428D08EE10CD085E9AC
:107F80000AD08FE07ACF813511F488E018D01DD067
:107F900080E101D065CF982F8091C00085FFFCCF94
:107FA0009093C60008958091C00087FFFCCF809118
:107FB000C00084FD01C0A8958091C6000895E0E648
:107FC000F0E098E1908380830895EDDF803219F02E
:107FD00088E0F5DFFFCF84E1DECF1F93182FE3DFCA
:107FE0001150E9F7F2DF1F91089580E0E8DFEE27F6
:047FF000FF270994CA
:027FFE00040479
:00000001FF
