:020000040000FA
:100000000C9462000C948A000C948A000C948A0070
:100010000C948A000C948A000C948A000C948A0038
:100020000C948A000C948A000C948A000C948A0028
:100030000C948A000C948A000C948A000C948A0018
:100040000C9400040C948A000C9470040C944A04E0
:100050000C948A000C948A000C948A000C948A00F8
:100060000C948A000C948A000000000024002700F1
:100070002A0000000000250028002B0000000000DE
:1000800023002600290004040404040404040202DA
:100090000202020203030303030301020408102007
:1000A0004080010204081020010204081020000012
:1000B0000008000201000003040700000000000027
:1000C0000000660D11241FBECFEFD8E0DEBFCDBF0C
:1000D00012E0A0E0B1E0EEE0FFE102C005900D9279
:1000E000A430B107D9F723E0A4E0B2E001C01D922B
:1000F000A430B207E1F710E0C2E6D0E004C02197D7
:10010000FE010E947F0FC136D107C9F70E94A204E9
:100110000C94850F0C940000833081F028F481301A
:1001200099F08230A9F008958730A9F08830C9F09D
:100130008430B1F4809180008F7D03C08091800075
:100140008F7780938000089584B58F7784BD08955C
:1001500084B58F7DFBCF8091B0008F778093B00006
:1001600008958091B0008F7DF9CFCF93DF93E0EBBE
:10017000F0E08491ECE9F0E0D491E8E8F0E0C4919B
:10018000CC23A1F081110E948C00EC2FF0E0EE0F47
:10019000FF1FE458FF4FA591B491EC91ED2381E04E
:1001A00090E009F480E0DF91CF91089580E090E045
:1001B000FACF1F93CF93DF93E3EBF0E09491EFE955
:1001C000F0E0D491EBE8F0E0C491CC23B9F0182F23
:1001D000992319F0892F0E948C00EC2FF0E0EE0F8C
:1001E000FF1FEE58FF4FA591B4918FB7F894EC9193
:1001F000111108C0D095DE23DC938FBFDF91CF9122
:100200001F910895DE2BF8CFCF93DF9390E0FC0190
:10021000E656FF4F24918A579F4FFC018491882313
:10022000D1F090E0880F991FFC01E859FF4FA5918C
:10023000B491FC01EE58FF4FC591D49161110EC0ED
:100240009FB7F8948C91E22FE0958E238C932881B0
:10025000E223E8839FBFDF91CF9108958FB7F89491
:10026000EC91E22BEC938FBFF6CFCF93DF93EC01B1
:1002700061E085E00E940401209729F480E0DF918D
:10028000CF910C94D900CF3FD10511F481E0F7CF85
:10029000E3EBF0E0E491E33029F140F4E130B1F038
:1002A000E230D9F0C038D1058CF7E8CFE73021F142
:1002B000E83051F1E430B1F78091800080628093A2
:1002C0008000D0938B00C0938A0004C084B58068FE
:1002D00084BDC7BDDF91CF91089584B5806284BD90
:1002E000C8BDF8CF80918000806880938000D09353
:1002F0008900C0938800EECF8091B0008068809321
:10030000B000C093B300E6CF8091B00080628093CC
:10031000B000C093B400DECF2FB7F89460916302B1
:100320007091640280916502909166022FBF0895DA
:10033000AF92BF92CF92DF92EF92FF920F931F93F3
:10034000CF93DF936C017B018B01040F151FEB0131
:100350005E01AE18BF08C017D10759F06991D601E8
:10036000ED91FC910190F081E02DC6010995892B5A
:1003700079F7C501DF91CF911F910F91FF90EF9019
:10038000DF90CF90BF90AF900895FC01538D448DC6
:10039000252F30E0842F90E0821B930B541710F030
:1003A000CF96089501970895FC01918D828D98173D
:1003B00061F0A28DAE0FBF2FB11D5D968C91928D15
:1003C0009F5F9F73928F90E008958FEF9FEF089546
:1003D000FC01918D828D981731F0828DE80FF11D0F
:1003E000858D90E008958FEF9FEF0895FC01918D2A
:1003F000228D892F90E0805C9F4F821B91098F7323
:100400009927089587E692E00E94F60121E0892B62
:1004100009F420E0822F089580E090E0892B29F0F4
:100420000E94020281110C9400000895FC01A48D29
:10043000A80FB92FB11DA35ABF4F2C91848D90E006
:1004400001968F739927848FA689B7892C93A089E9
:10045000B1898C91837080648C93938D848D981373
:1004600006C00288F389E02D80818F7D8083089506
:10047000EF92FF920F931F93CF93DF93EC0181E0F4
:10048000888F9B8D8C8D98131AC0E889F98980819B
:1004900085FF15C09FB7F894EE89FF896083E889CE
:1004A000F98980818370806480839FBF81E090E0C0
:1004B000DF91CF911F910F91FF90EF900895F62E4D
:1004C0000B8D10E00F5F1F4F0F731127E02E8C8DE7
:1004D0008E110CC00FB607FCFACFE889F98980812C
:1004E00085FFF5CFCE010E941602F1CFEB8DEC0F08
:1004F000FD2FF11DE35AFF4FF0829FB7F8940B8F49
:10050000EA89FB8980818062CFCFCF93DF93EC01B2
:10051000888D8823B9F0AA89BB89E889F9898C91EB
:1005200085FD03C0808186FD0DC00FB607FCF7CFA7
:100530008C9185FFF2CF808185FFEDCFCE010E94A7
:100540001602E9CFDF91CF910895FC0101900020C0
:10055000E9F73197AF01481B590BBC0187E692E0E0
:100560000C9498018F929F92AF92BF920F931F931A
:10057000CF93DF93CDB7DEB7A1970FB6F894DEBF68
:100580000FBECDBF19A2423008F44AE08E010F5DC4
:100590001F4F842E912CB12CA12CA50194010E94F7
:1005A0005D0FE62FB901CA01EA30F4F4E05DD8012D
:1005B000EE938D01232B242B252B79F790E080E0FF
:1005C000109719F0CD010E94A502A1960FB6F894DC
:1005D000DEBF0FBECDBFDF91CF911F910F91BF90B6
:1005E000AF909F908F900895E95CE1CFCF93DF9318
:1005F0000E94A502EC0182E191E00E94A5028C0F0D
:100600009D1FDF91CF910895CF92DF92EF92FF92DD
:10061000CF93DF936C01990FEE08FF08F7FE1FC020
:100620006DE287E692E00E943802EC0166277727A8
:10063000CB016C197D098E099F094AE00E94B20224
:10064000C80FD91F82E191E00E94A5028C0F9D1F67
:10065000DF91CF91FF90EF90DF90CF9008954AE027
:10066000C701B6010E94B202EC01ECCF4F925F923B
:100670006F927F928F929F92AF92BF92CF92DF92B2
:10068000EF92FF926B017C01AC019B010E94580F1D
:100690008823C1F085E191E00E94A5027C0182E1FE
:1006A00091E00E94A5028E0D9F1DFF90EF90DF90BC
:1006B000CF90BF90AF909F908F907F906F905F9002
:1006C0004F90089546015701E894B7F82FEF3FEF98
:1006D0004FE75FE7C501B4010E94580F81110DC0BB
:1006E0002FEF3FEF4FE75FE7C501B4010E94000E17
:1006F00018161CF489E191E0CFCF2FEF3FEF4FE7C1
:100700005FE4C701B6010E94E60E18161CF48DE1E5
:1007100091E0C2CF2FEF3FEF4FE75FECC701B6018B
:100720000E94000E87FDF3CF20E030E0A901C70151
:10073000B6010E94000EB12CA12C87FF0AC06DE209
:1007400087E692E00E9438025C01F7FAF094F7F82D
:10075000F0942AE037ED43EA5BE3C701B6010E945B
:10076000940D2B013C010E94050E6B017C010E943F
:10077000340E9B01AC01C301B2010E94930D2B0109
:100780003C014AE0C701B6010E94B2027C01EA0CBA
:10079000FB1C6EE287E692E00E943802E80EF91E2A
:1007A00020E030E040E251E4C301B2010E94EB0ED0
:1007B0002B013C010E94050E4B01B12CA12C4AE0FB
:1007C000C501B4010E94B202E80EF91EC501B401D0
:1007D0000E94340E9B01AC01C301B2010E94930D33
:1007E00020E030E040E251E40E94EB0E0E94050E52
:1007F00090E080E04AE00E94B202E80EF91E4FCF7E
:100800001F920F920FB60F9211242F933F938F9345
:100810009F93AF93BF938091630290916402A091E4
:100820006502B09166023091620223E0230F2D37FA
:1008300058F50196A11DB11D2093620280936302B9
:1008400090936402A0936502B093660280915E0269
:1008500090915F02A0916002B09161020196A11D8A
:10086000B11D80935E0290935F02A0936002B093EB
:100870006102BF91AF919F918F913F912F910F9006
:100880000FBE0F901F90189526E8230F0296A11D0A
:10089000B11DD2CF1F920F920FB60F9211242F933A
:1008A0003F934F935F936F937F938F939F93AF93F8
:1008B000BF93EF93FF9387E692E00E941602FF91A9
:1008C000EF91BF91AF919F918F917F916F915F91C8
:1008D0004F913F912F910F900FBE0F901F90189541
:1008E0001F920F920FB60F9211242F938F939F9305
:1008F000EF93FF93E0917702F09178028081E0918D
:100900007D02F0917E0282FD1BC090818091800269
:100910008F5F8F7320918102821741F0E0918002F6
:10092000F0E0E959FD4F958F80938002FF91EF91A0
:100930009F918F912F910F900FBE0F901F90189540
:100940008081F4CF789484B5826084BD84B5816061
:1009500084BD85B5826085BD85B5816085BD80918A
:100960006E00816080936E00109281008091810002
:1009700082608093810080918100816080938100FA
:10098000809180008160809380008091B1008460BC
:100990008093B1008091B00081608093B00080911D
:1009A0007A00846080937A0080917A0082608093DC
:1009B0007A0080917A00816080937A0080917A0039
:1009C000806880937A001092C100E0917702F091E4
:1009D000780282E08083E0917302F09174021082C9
:1009E000E0917502F09176028FEC808310927F0285
:1009F000E0917B02F0917C0286E08083E0917902B5
:100A0000F0917A02808180618083E0917902F09197
:100A10007A02808188608083E0917902F0917A0285
:100A2000808180688083E0917902F0917A028081F0
:100A30008F7D808360E082E00E94040161E085E0B8
:100A40000E940401C1E0D0E046E0E42EF12C5AE01F
:100A5000252E312C6CE0462E512C02E010E083E074
:100A6000C82ED12C94E0692E712C25E0A22EB12C39
:100A700037E0832E912C10925D0210925C028091DF
:100A80005A0290915B02892B49F40E94B500892B90
:100A900009F0BEC7D0935B02C0935A0280915A02FC
:100AA00090915B02019721F410925B0210925A021E
:100AB000109359020093580280915A0290915B0260
:100AC000029721F4D0925B02C0925A0280915A029E
:100AD00090915B02039739F470925B0260925A0224
:100AE00081E00E94D90080915A0290915B020497A4
:100AF00071F4B0925B02A0925A020E948C01609342
:100B0000540270935502809356029093570280913D
:100B10005A0290915B020597B9F40E948C012091D2
:100B20005402309155024091560250915702621B77
:100B3000730B840B950B623371058105910520F0D1
:100B4000F0925B02E0925A02F0925302E09252025B
:100B500080915A0290915B02069749F40E94B50079
:100B6000892B09F45EC790925B0280925A028091B1
:100B70005A0290915B02079721F4F0925B02E09297
:100B80005A0288E090E09093510280935002809145
:100B90005A0290915B02089731F489E090E09093BB
:100BA0005B0280935A0280915A0290915B020997EE
:100BB00039F430925B0220925A0280E00E94D90000
:100BC00080915A0290915B020A9781F48BE090E049
:100BD00090935B0280935A020E948C0160935402AE
:100BE00070935502809356029093570280915A0257
:100BF00090915B020B97B9F40E948C0120915402F2
:100C0000309155024091560250915702621B730B6E
:100C1000840B950B623371058105910570F050923C
:100C20005B0240925A0280915A0290915B020C97AB
:100C300021F410925B0210925A0280914E02909120
:100C40004F02892B41F4D0934F02C0934E0281E2B0
:100C500091E00E94F60280914E0290914F0201971E
:100C600061F410934F0200934E0210924A021092C8
:100C70004B0210924C0210924D02109349020093C5
:100C8000480280914E0290914F020297A1F420E019
:100C900030E040E251E460914A0270914B02809151
:100CA0004C0290914D020E94000E87FFC3C6D09265
:100CB0004F02C0924E0280914E0290914F020397D4
:100CC00041F570924F0260924E0220E030E040E029
:100CD0005FE360914A0270914B0280914C029091C7
:100CE0004D020E94940D60934A0270934B028093D0
:100CF0004C0290934D0288E291E00E94A50260911F
:100D00004A0270914B0280914C0290914D020E94D8
:100D1000360380914E0290914F02049771F4B09285
:100D20004F02A0924E020E948C0160934202709387
:100D30004302809344029093450280914E02909129
:100D40004F020597B9F40E948C0120914202309124
:100D500043024091440250914502621B730B840B85
:100D6000950B643F71408105910590F1F0924F021F
:100D7000E0924E0280914E0290914F02069741F50B
:100D800090924F0280924E0220E030E040E05FE31C
:100D900060914A0270914B0280914C0290914D02F9
:100DA0000E94940D60934A0270934B0280934C0210
:100DB00090934D0288E291E00E94A50260914A0260
:100DC00070914B0280914C0290914D020E9436032B
:100DD00080914E0290914F02079781F488E090E055
:100DE00090934F0280934E020E948C0160934202C6
:100DF00070934302809344029093450280914E0287
:100E000090914F020897C9F40E948C0120914202F0
:100E1000309143024091440250914502621B730B92
:100E2000840B950B643F714081059105A0F089E02A
:100E300090E090934F0280934E0280914E029091E9
:100E40004F02099741F48091480290914902909392
:100E50004F0280934E0230924702209246028091C8
:100E60004E0290914F020A9731F48BE090E09093FC
:100E70004F0280934E0280914E0290914F020B9749
:100E800041F450924F0240924E0210924102109251
:100E9000400250923F0240923E0280914E02909159
:100EA0004F020C9769F4809140029091410206979D
:100EB0000CF0C9C58DE090E090934F0280934E02F4
:100EC00080914E0290914F020D9761F48EE090E078
:100ED00090934F0280934E02809140029091410284
:100EE0000E94040380914E0290914F020E9781F46C
:100EF0008FE090E090934F0280934E020E948C010D
:100F0000609342027093430280934402909345029F
:100F100080914E0290914F020F97C9F40E948C016C
:100F20002091420230914302409144025091450287
:100F3000621B730B840B950B683E73408105910512
:100F4000D8F080E190E090934F0280934E02809120
:100F50004E0290914F02409779F481E190E0909396
:100F60004F0280934E02809140029091410201967F
:100F7000909341028093400280914E0290914F02E3
:100F8000419741F480913E0290913F0290934F022D
:100F900080934E0282E190E090933D0280933C0268
:100FA00080914E0290914F02429731F483E190E09C
:100FB00090934F0280934E0283E190E090933B0226
:100FC00080933A0280914E0290914F02439759F4D8
:100FD0000E94B500892B09F03BC584E190E0909315
:100FE0004F0280934E0280914E0290914F0244979F
:100FF00009F04FC085E190E090934F0280934E023C
:101000008091360290913702892B41F4D0933702B8
:10101000C093360284E391E00E94F602809136028A
:1010200090913702019771F41093370200933602C2
:101030000E948C01609332027093330280933402D9
:101040009093350280913602909137020297B9F45D
:101050000E948C012091320230913302409134027F
:1010600050913502621B730B840B950B683E7340E5
:101070008105910570F0D0923702C09236028091BE
:10108000360290913702039721F4109237021092A2
:10109000360280914E0290914F02459741F4809123
:1010A0003A0290913B0290934F0280934E0286E168
:1010B00090E0909339028093380280914E02909193
:1010C0004F02469731F487E190E090934F0280936E
:1010D0004E0287E190E0909331028093300280913C
:1010E0004E0290914F02479709F0C1C080910E02C5
:1010F00090910F02892B41F4D0930F02C0930E02FE
:101100008DE491E00E94F60280910E0290910F0210
:10111000019741F410930F0200930E0210920D02FA
:1011200010920C0210930B0200930A0280910E029F
:1011300090910F02029759F480910C0290910D0248
:1011400006970CF08AC4D0920F02C0920E028091D2
:101150000E0290910F02039771F470920F02609249
:101160000E0288E691E00E94A50280910C02909107
:101170000D020E94040380910E0290910F020497C9
:1011800071F4B0920F02A0920E020E948C01609343
:1011900004027093050280930602909307028091E7
:1011A0000E0290910F020597B9F40E948C012091D4
:1011B0000402309105024091060250910702621B21
:1011C000730B840B950B683E734081059105B8F055
:1011D000F0920F02E0920E0280910E0290910F02A7
:1011E000069769F490920F0280920E0280910C0291
:1011F00090910D02019690930D0280930C028091C4
:101200000E0290910F02079741F480910A0290918B
:101210000B0290930F0280930E0288E090E090936F
:1012200009028093080280910E0290910F020897A4
:1012300031F489E090E090930F0280930E02809148
:101240000E0290910F028930910509F00FC430927F
:101250000F0220920E0282E891E00E94F602809135
:101260002E0290912F0290934F0280934E02809114
:101270004E0290914F02489709F043C189E190E0F6
:1012800090934F0280934E0280912C0290912D02F8
:10129000892B41F4D0932D02C0932C0210922B0283
:1012A00010922A02D0932902C093280280912C0226
:1012B00090912D02019769F480912A0290912B025E
:1012C0008F3F910511F00CF0DDC310932D020093B8
:1012D0002C0280912C0290912D02029751F4D09211
:1012E0002D02C0922C0280912A0290912B020E9422
:1012F000350180912C0290912D02039771F4709228
:101300002D0260922C020E948C0160932202709345
:101310002302809324029093250280912C029091C5
:101320002D020497B9F40E948C0120912202309181
:1013300023024091240250912502621B730B840BFF
:10134000950B6230710581059105B8F0B0922D02C0
:10135000A0922C0280912C0290912D02059769F4A5
:10136000F0922D02E0922C0280912A0290912B02A1
:10137000019690932B0280932A0280912C029091E7
:101380002D02069721F4D0932D02C0932C02909247
:1013900027028092260280912C0290912D020797BD
:1013A00031F488E090E090932D0280932C0280919C
:1013B0002C0290912D02089761F489E090E09093BF
:1013C0002D0280932C028FEF90E090932102809366
:1013D000200289E090E090931F0280931E0280918A
:1013E0002C0290912D02099751F480912002909146
:1013F000210297FD50C330922D0220922C02809141
:101400002C0290912D020A9761F48BE090E090936A
:101410002D0280932C0280912002909121020E9443
:10142000350180912C0290912D020B9771F450920E
:101430002D0240922C020E948C0160932202709334
:101440002302809324029093250280912C02909194
:101450002D020C97C9F40E948C0120912202309138
:1014600023024091240250912502621B730B840BCE
:10147000950B6230710581059105D8F08DE090E003
:1014800090932D0280932C0280912C0290912D023A
:101490000D9779F48EE090E090932D0280932C02CA
:1014A00080912002909121020197909321028093D4
:1014B000200280912C0290912D020E9731F489E048
:1014C00090E090932D0280932C028FE090E0909317
:1014D0001D0280931C0280912C0290912D020F9787
:1014E00031F480E190E090932D0280932C02809162
:1014F0002C0290912D02409721F410922D0210920F
:101500002C0280914E0290914F02499741F48091B4
:1015100030029091310290934F0280934E028AE103
:1015200090E090932F0280932E0280914E02909132
:101530004F024A9731F48BE190E090934F028093F1
:101540004E0280914E0290914F024B9771F48CE1C4
:1015500090E090934F0280934E02109218021092E6
:10156000190210921A0210921B0280914E02909161
:101570004F024C9781F48DE190E090934F0280935D
:101580004E020E948C01609318027093190280939E
:101590001A0290931B028DE190E0909317028093C2
:1015A000160280914E0290914F024D97D1F40E9405
:1015B0008C01209118023091190240911A02509129
:1015C0001B02621B730B840B950B683873418105FA
:1015D000910508F069C28EE190E090934F028093EC
:1015E0004E0280914E0290914F024E9749F48FE146
:1015F00090E090934F0280934E0281E00E94D900C8
:1016000080914E0290914F024F9781F480E290E0DA
:1016100090934F0280934E020E948C01609342028D
:1016200070934302809344029093450280914E024E
:1016300090914F028097C9F40E948C012091420240
:10164000309143024091440250914502621B730B5A
:10165000840B950B683E734081059105A8F081E2EB
:1016600090E090934F0280934E0280914E029091B1
:101670004F02819749F482E290E090934F02809369
:101680004E0280E00E94D90080914E0290914F025C
:10169000829781F483E290E090934F0280934E0210
:1016A0000E948C0160934202709343028093440233
:1016B0009093450280914E0290914F028397C9F416
:1016C0000E948C01209142023091430240914402D9
:1016D00050914502621B730B840B950B683E73405F
:1016E0008105910590F084E290E090934F02809301
:1016F0004E0280914E0290914F02849731F48DE119
:1017000090E090934F0280934E0285E290E0909398
:1017100015028093140280914E0290914F0285979A
:1017200031F486E290E090934F0280934E028091D4
:101730004E0290914F02869769F487E290E0909371
:101740004F0280934E0280E00E94D9008FE991E021
:101750000E94F60280914E0290914F02879781F489
:1017600088E290E090934F0280934E020E948C0199
:101770006093420270934302809344029093450227
:1017800080914E0290914F028897C9F40E948C017B
:10179000209142023091430240914402509145020F
:1017A000621B730B840B950B683E7340810591059A
:1017B00030F089E290E090934F0280934E0289E2EC
:1017C00090E0909313028093120280914E029091C8
:1017D0004F02899759F40E94B500892B09F069C11D
:1017E0008AE290E090934F0280934E0280914E02E5
:1017F00090914F028A9751F48BE290E090934F02C0
:1018000080934E0280EC91E00E94F60280914E029D
:1018100090914F028B9781F48CE290E090934F026D
:1018200080934E020E948C016093420270934302A7
:10183000809344029093450280914E0290914F0212
:101840008C97C9F40E948C0120914202309143028E
:101850004091440250914502621B730B840B950B1F
:10186000603D774081059105B0F08DE290E0909366
:101870004F0280934E0280914E0290914F028D97BD
:1018800051F48EE290E090934F0280934E0287ECE9
:1018900091E00E94F60280914E0290914F028E9745
:1018A00081F48FE290E090934F0280934E020E9469
:1018B0008C016093420270934302809344029093A0
:1018C000450280914E0290914F028F97C9F40E9479
:1018D0008C01209142023091430240914402509188
:1018E0004502621B730B840B950B603D77408105AD
:1018F0009105A0F080E390E090934F0280934E0218
:1019000080914E0290914F02C09741F48091120253
:101910009091130290934F0280934E0281E390E0E6
:10192000909311028093100280914E0290914F0289
:10193000C19731F482E390E090934F0280934E027E
:1019400080914E0290914F02C29771F483E390E030
:1019500090934F0280934E028EEC91E00E94F6022B
:1019600088ED91E00E94F60280914E0290914F0224
:10197000C39781F484E390E090934F0280934E02EA
:101980000E948C0160934202709343028093440250
:101990009093450280914E0290914F02C497C9F4F2
:1019A0000E948C01209142023091430240914402F6
:1019B00050914502621B730B840B950B603D774081
:1019C00081059105C0F085E390E090934F028093EC
:1019D0004E0280914E0290914F028533910509F09D
:1019E0006DC086E390E090934F0280934E0287EEA5
:1019F00091E00E94F60280E090E0892B09F43BC858
:101A00000E940202882309F428C80E94000025C809
:101A1000809158029091590290935B0280935A02F0
:101A20003DC8809150029091510290935B02809347
:101A30005A029DC8809146029091470290934F02AE
:101A400080934E0238C980913C0290913D0234CA85
:101A50008091380290913902C2CA80910802909117
:101A6000090290930F0280930E0271CB0A9721F422
:101A700010920F0210920E0280914E0290914F022E
:101A80000196F1CB809126029091270290932D022E
:101A900080932C021ECC80911C0290911D02909389
:101AA0002D0280932C02ABCC8091140290911502F0
:101AB00094CD809110029091110294CEC69709F0B6
:101AC0009ACF10924F0210924E0295CFE7E6F2E0C5
:101AD0001382128288EE93E0A0E0B0E084839583C5
:101AE000A683B78384E091E09183808385EC90E0C6
:101AF0009587848784EC90E09787868780EC90E0D8
:101B0000918B808B81EC90E0938B828B82EC90E0C8
:101B1000958B848B86EC90E0978B868B118E128E42
:101B2000138E148E08955058BB27AA270E94AB0D20
:101B30000C94AC0E0E949E0E38F00E94A50E20F070
:101B400039F49F3F19F426F40C949B0E0EF4E095A3
:101B5000E7FB0C94950EE92F0E94BD0E58F3BA17BF
:101B6000620773078407950720F079F4A6F50C94B3
:101B7000DF0E0EF4E0950B2EBA2FA02D0B01B9014C
:101B800090010C01CA01A0011124FF27591B99F0F3
:101B9000593F50F4503E68F11A16F040A22F232FFF
:101BA000342F4427585FF3CF469537952795A7954F
:101BB000F0405395C9F77EF41F16BA0B620B730BF6
:101BC000840BBAF09150A1F0FF0FBB1F661F771F67
:101BD000881FC2F70EC0BA0F621F731F841F48F41C
:101BE000879577956795B795F7959E3F08F0B0CFA5
:101BF0009395880F08F09927EE0F9795879508958C
:101C00000E94710E08F481E008950E94C50E88F0CC
:101C10009F5798F0B92F9927B751B0F0E1F0660FB0
:101C2000771F881F991F1AF0BA95C9F714C0B130F1
:101C300091F00E94DF0EB1E008950C94DF0E672F43
:101C4000782F8827B85F39F0B93FCCF38695779520
:101C50006795B395D9F73EF4909580957095619509
:101C60007F4F8F4F9F4F0895E89409C097FB3EF434
:101C700090958095709561957F4F8F4F9F4F9923D9
:101C8000A9F0F92F96E9BB279395F6958795779557
:101C90006795B795F111F8CFFAF4BB0F11F460FF17
:101CA0001BC06F5F7F4F8F4F9F4F16C0882311F06F
:101CB00096E911C0772321F09EE8872F762F05C083
:101CC000662371F096E8862F70E060E02AF09A951E
:101CD000660F771F881FDAF7880F9695879597F913
:101CE0000895990F0008550FAA0BE0E8FEEF1616AD
:101CF0001706E807F907C0F012161306E407F50700
:101D000098F0621B730B840B950B39F40A2661F073
:101D1000232B242B252B21F408950A2609F4A14016
:101D2000A6958FEF811D811D089597F99F6780E823
:101D300070E060E008959FEF80EC089500240A941D
:101D40001616170618060906089500240A94121696
:101D50001306140605060895092E0394000C11F4C9
:101D6000882352F0BB0F40F4BF2B11F460FF04C076
:101D70006F5F7F4F8F4F9F4F089557FD9058440FCF
:101D8000551F59F05F3F71F04795880F97FB991FDA
:101D900061F09F3F79F08795089512161306140697
:101DA000551FF2CF4695F1DF08C016161706180624
:101DB000991FF1CF86957105610508940895E894FF
:101DC000BB2766277727CB0197F908950E94710EEC
:101DD00008F48FEF08950E94FE0E0C94AC0E0E9442
:101DE0009E0E38F00E94A50E20F0952311F00C9461
:101DF000950E0C949B0E11240C94E00E0E94BD0EC7
:101E000070F3959FC1F3950F50E0551F629FF0014D
:101E1000729FBB27F00DB11D639FAA27F00DB11D66
:101E2000AA1F649F6627B00DA11D661F829F2227EF
:101E3000B00DA11D621F739FB00DA11D621F839F76
:101E4000A00D611D221F749F3327A00D611D231F4C
:101E5000849F600D211D822F762F6A2F11249F579A
:101E600050409AF0F1F088234AF0EE0FFF1FBB1F9D
:101E7000661F771F881F91505040A9F79E3F51055C
:101E800080F00C94950E0C94E00E5F3FE4F3983EC6
:101E9000D4F3869577956795B795F795E7959F5F06
:101EA000C1F7FE2B880F911D9695879597F9089598
:101EB0000E94710E880B990B0895A1E21A2EAA1B9D
:101EC000BB1BFD010DC0AA1FBB1FEE1FFF1FA217EA
:101ED000B307E407F50720F0A21BB30BE40BF50BE7
:101EE000661F771F881F991F1A9469F76095709570
:101EF000809590959B01AC01BD01CF010895EE0F37
:101F0000FF1F0590F491E02D0994F894FFCF000095
:101F1000000038029801C5018502F601D401E801EC
:101F20000D0A006E616E00696E66006F7666005382
:101F300074657020300054696D65732072616E3A6B
:101F4000200057616974696E6720666F7220627540
:101F500074746F6E207072657373005365636F6E77
:101F6000646172792073657175656E636520737441
:101F70006172746564005365636F6E646172792089
:101F800072756E6E696E672074696D65733A2000B4
:101F90005365636F6E646172792073657175656EE8
:101FA000636520636F6D706C6574656400486F6C69
:101FB000642074686520627574746F6E20746F207D
:101FC0006578697420746865206C6F6F7000537455
:101FD000657020320053746570203300436F6D705C
:101FE0006C657465210052657374617274696E6703
:101FF000202E2E2E0053657175656E6365206E6F01
:1020000074696669656420636F6D706C6574696F6F
:022010006E0060
:107E0000112484B714BE81FFF0D085E080938100F7
:107E100082E08093C00088E18093C10086E0809377
:107E2000C20080E18093C4008EE0C9D0259A86E02C
:107E300020E33CEF91E0309385002093840096BBD3
:107E4000B09BFECF1D9AA8958150A9F7CC24DD24C4
:107E500088248394B5E0AB2EA1E19A2EF3E0BF2EE7
:107E6000A2D0813461F49FD0082FAFD0023811F036
:107E7000013811F484E001C083E08DD089C08234E0
:107E800011F484E103C0853419F485E0A6D080C0E4
:107E9000853579F488D0E82EFF2485D0082F10E0AE
:107EA000102F00270E291F29000F111F8ED06801E7
:107EB0006FC0863521F484E090D080E0DECF843638
:107EC00009F040C070D06FD0082F6DD080E0C81688
:107ED00080E7D80618F4F601B7BEE895C0E0D1E017
:107EE00062D089930C17E1F7F0E0CF16F0E7DF06D8
:107EF00018F0F601B7BEE89568D007B600FCFDCFD4
:107F0000A601A0E0B1E02C9130E011968C91119780
:107F100090E0982F8827822B932B1296FA010C0160
:107F200087BEE89511244E5F5F4FF1E0A038BF0790
:107F300051F7F601A7BEE89507B600FCFDCF97BE46
:107F4000E89526C08437B1F42ED02DD0F82E2BD052
:107F50003CD0F601EF2C8F010F5F1F4F84911BD097
:107F6000EA94F801C1F70894C11CD11CFA94CF0C13
:107F7000D11C0EC0853739F428D08EE10CD085E9AC
:107F80000AD08FE07ACF813511F488E018D01DD067
:107F900080E101D065CF982F8091C00085FFFCCF94
:107FA0009093C60008958091C00087FFFCCF809118
:107FB000C00084FD01C0A8958091C6000895E0E648
:107FC000F0E098E1908380830895EDDF803219F02E
:107FD00088E0F5DFFFCF84E1DECF1F93182FE3DFCA
:107FE0001150E9F7F2DF1F91089580E0E8DFEE27F6
:047FF000FF270994CA
:027FFE00040479
:00000001FF
