:100000000C9462000C948A000C948A000C948A0070
:100010000C948A000C948A000C948A000C948A0038
:100020000C948A000C948A000C948A000C948A0028
:100030000C948A000C948A000C948A000C948A0018
:100040000C9400040C948A000C9470040C944A04E0
:100050000C948A000C948A000C948A000C948A00F8
:100060000C948A000C948A000000000024002700F1
:100070002A0000000000250028002B0000000000DE
:1000800023002600290004040404040404040202DA
:100090000202020203030303030301020408102007
:1000A0004080010204081020010204081020000012
:1000B0000008000201000003040700000000000027
:1000C0000000C41011241FBECFEFD8E0DEBFCDBFAB
:1000D00012E0A0E0B1E0EAECF5E202C005900D927A
:1000E000AC32B107D9F723E0ACE2B2E001C01D9217
:1000F000A534B207E1F710E0C2E6D0E004C02197D2
:10010000FE010E94DD12C136D107C9F70E94A20488
:100110000C94E3120C940000833081F028F48130B9
:1001200099F08230A9F008958730A9F08830C9F09D
:100130008430B1F4809180008F7D03C08091800075
:100140008F7780938000089584B58F7784BD08955C
:1001500084B58F7DFBCF8091B0008F778093B00006
:1001600008958091B0008F7DF9CFCF93DF93E0EBBE
:10017000F0E08491ECE9F0E0D491E8E8F0E0C4919B
:10018000CC23A1F081110E948C00EC2FF0E0EE0F47
:10019000FF1FE458FF4FA591B491EC91ED2381E04E
:1001A00090E009F480E0DF91CF91089580E090E045
:1001B000FACF1F93CF93DF93E3EBF0E09491EFE955
:1001C000F0E0D491EBE8F0E0C491CC23B9F0182F23
:1001D000992319F0892F0E948C00EC2FF0E0EE0F8C
:1001E000FF1FEE58FF4FA591B4918FB7F894EC9193
:1001F000111108C0D095DE23DC938FBFDF91CF9122
:100200001F910895DE2BF8CFCF93DF9390E0FC0190
:10021000E656FF4F24918A579F4FFC018491882313
:10022000D1F090E0880F991FFC01E859FF4FA5918C
:10023000B491FC01EE58FF4FC591D49161110EC0ED
:100240009FB7F8948C91E22FE0958E238C932881B0
:10025000E223E8839FBFDF91CF9108958FB7F89491
:10026000EC91E22BEC938FBFF6CFCF93DF93EC01B1
:1002700061E085E00E940401209729F480E0DF918D
:10028000CF910C94D900CF3FD10511F481E0F7CF85
:10029000E3EBF0E0E491E33029F140F4E130B1F038
:1002A000E230D9F0C038D1058CF7E8CFE73021F142
:1002B000E83051F1E430B1F78091800080628093A2
:1002C0008000D0938B00C0938A0004C084B58068FE
:1002D00084BDC7BDDF91CF91089584B5806284BD90
:1002E000C8BDF8CF80918000806880938000D09353
:1002F0008900C0938800EECF8091B0008068809321
:10030000B000C093B300E6CF8091B00080628093CC
:10031000B000C093B400DECF2FB7F8946091A40270
:100320007091A5028091A6029091A7022FBF089517
:10033000AF92BF92CF92DF92EF92FF920F931F93F3
:10034000CF93DF936C017B018B01040F151FEB0131
:100350005E01AE18BF08C017D10759F06991D601E8
:10036000ED91FC910190F081E02DC6010995892B5A
:1003700079F7C501DF91CF911F910F91FF90EF9019
:10038000DF90CF90BF90AF900895FC01538D448DC6
:10039000252F30E0842F90E0821B930B541710F030
:1003A000CF96089501970895FC01918D828D98173D
:1003B00061F0A28DAE0FBF2FB11D5D968C91928D15
:1003C0009F5F9F73928F90E008958FEF9FEF089546
:1003D000FC01918D828D981731F0828DE80FF11D0F
:1003E000858D90E008958FEF9FEF0895FC01918D2A
:1003F000228D892F90E0805C9F4F821B91098F7323
:100400009927089588EA92E00E94F60121E0892B5D
:1004100009F420E0822F089580E090E0892B29F0F4
:100420000E94020281110C9400000895FC01A48D29
:10043000A80FB92FB11DA35ABF4F2C91848D90E006
:1004400001968F739927848FA689B7892C93A089E9
:10045000B1898C91837080648C93938D848D981373
:1004600006C00288F389E02D80818F7D8083089506
:10047000EF92FF920F931F93CF93DF93EC0181E0F4
:10048000888F9B8D8C8D98131AC0E889F98980819B
:1004900085FF15C09FB7F894EE89FF896083E889CE
:1004A000F98980818370806480839FBF81E090E0C0
:1004B000DF91CF911F910F91FF90EF900895F62E4D
:1004C0000B8D10E00F5F1F4F0F731127E02E8C8DE7
:1004D0008E110CC00FB607FCFACFE889F98980812C
:1004E00085FFF5CFCE010E941602F1CFEB8DEC0F08
:1004F000FD2FF11DE35AFF4FF0829FB7F8940B8F49
:10050000EA89FB8980818062CFCFCF93DF93EC01B2
:10051000888D8823B9F0AA89BB89E889F9898C91EB
:1005200085FD03C0808186FD0DC00FB607FCF7CFA7
:100530008C9185FFF2CF808185FFEDCFCE010E94A7
:100540001602E9CFDF91CF910895FC0101900020C0
:10055000E9F73197AF01481B590BBC0188EA92E0DB
:100560000C9498018F929F92AF92BF920F931F931A
:10057000CF93DF93CDB7DEB7A1970FB6F894DEBF68
:100580000FBECDBF19A2423008F44AE08E010F5DC4
:100590001F4F842E912CB12CA12CA50194010E94F7
:1005A000BB12E62FB901CA01EA30F4F4E05DD801CC
:1005B000EE938D01232B242B252B79F790E080E0FF
:1005C000109719F0CD010E94A502A1960FB6F894DC
:1005D000DEBF0FBECDBFDF91CF911F910F91BF90B6
:1005E000AF909F908F900895E95CE1CFCF93DF9318
:1005F0000E94A502EC0182E191E00E94A5028C0F0D
:100600009D1FDF91CF910895CF92DF92EF92FF92DD
:10061000CF93DF936C01990FEE08FF08F7FE1FC020
:100620006DE288EA92E00E943802EC0166277727A3
:10063000CB016C197D098E099F094AE00E94B20224
:10064000C80FD91F82E191E00E94A5028C0F9D1F67
:10065000DF91CF91FF90EF90DF90CF9008954AE027
:10066000C701B6010E94B202EC01ECCF4F925F923B
:100670006F927F928F929F92AF92BF92CF92DF92B2
:10068000EF92FF926B017C01AC019B010E94B612BC
:100690008823C1F085E191E00E94A5027C0182E1FE
:1006A00091E00E94A5028E0D9F1DFF90EF90DF90BC
:1006B000CF90BF90AF909F908F907F906F905F9002
:1006C0004F90089546015701E894B7F82FEF3FEF98
:1006D0004FE75FE7C501B4010E94B61281110DC05A
:1006E0002FEF3FEF4FE75FE7C501B4010E945E11B6
:1006F00018161CF489E191E0CFCF2FEF3FEF4FE7C1
:100700005FE4C701B6010E94441218161CF48DE183
:1007100091E0C2CF2FEF3FEF4FE75FECC701B6018B
:100720000E945E1187FDF3CF20E030E0A901C701F0
:10073000B6010E945E11B12CA12C87FF0AC06DE2A8
:1007400088EA92E00E9438025C01F7FAF094F7F828
:10075000F0942AE037ED43EA5BE3C701B6010E945B
:10076000F2102B013C010E9463116B017C010E947D
:1007700092119B01AC01C301B2010E94F1102B0147
:100780003C014AE0C701B6010E94B2027C01EA0CBA
:10079000FB1C6EE288EA92E00E943802E80EF91E25
:1007A00020E030E040E251E4C301B2010E9449126E
:1007B0002B013C010E9463114B01B12CA12C4AE09A
:1007C000C501B4010E94B202E80EF91EC501B401D0
:1007D0000E9492119B01AC01C301B2010E94F11071
:1007E00020E030E040E251E40E9449120E9463118F
:1007F00090E080E04AE00E94B202E80EF91E4FCF7E
:100800001F920F920FB60F9211242F933F938F9345
:100810009F93AF93BF938091A4029091A502A09162
:10082000A602B091A7023091A30223E0230F2D3737
:1008300058F50196A11DB11D2093A3028093A40237
:100840009093A502A093A602B093A70280919F0265
:100850009091A002A091A102B091A2020196A11DC7
:10086000B11D80939F029093A002A093A102B09328
:10087000A202BF91AF919F918F913F912F910F90C5
:100880000FBE0F901F90189526E8230F0296A11D0A
:10089000B11DD2CF1F920F920FB60F9211242F933A
:1008A0003F934F935F936F937F938F939F93AF93F8
:1008B000BF93EF93FF9388EA92E00E941602FF91A4
:1008C000EF91BF91AF919F918F917F916F915F91C8
:1008D0004F913F912F910F900FBE0F901F90189541
:1008E0001F920F920FB60F9211242F938F939F9305
:1008F000EF93FF93E091B802F091B9028081E0910B
:10090000BE02F091BF0282FD1BC090818091C102A6
:100910008F5F8F732091C202821741F0E091C10274
:10092000F0E0E855FD4F958F8093C102FF91EF9164
:100930009F918F912F910F900FBE0F901F90189540
:100940008081F4CF789484B5826084BD84B5816061
:1009500084BD85B5826085BD85B5816085BD80918A
:100960006E00816080936E00109281008091810002
:1009700082608093810080918100816080938100FA
:10098000809180008160809380008091B1008460BC
:100990008093B1008091B00081608093B00080911D
:1009A0007A00846080937A0080917A0082608093DC
:1009B0007A0080917A00816080937A0080917A0039
:1009C000806880937A001092C100E091B802F091A3
:1009D000B90282E08083E091B402F091B502108206
:1009E000E091B602F091B7028FEC80831092C002C2
:1009F000E091BC02F091BD0286E08083E091BA02F2
:100A0000F091BB02808180618083E091BA02F09115
:100A1000BB02808188608083E091BA02F091BB02C2
:100A2000808180688083E091BA02F091BB0280816E
:100A30008F7D808360E082E00E94040161E085E0B8
:100A40000E94040101E010E0C6E0D0E047E0C42EBF
:100A5000D12C51E1652E712C6DE1A62EB12C88E0D0
:100A6000E82EF12C9CE3292E312C22E4822E912CAD
:100A70003EE4432E512C10929E0210929D028091D2
:100A80009B0290919C02892B51F40E94B500892B06
:100A900011F00C94491010939C0200939B028091DA
:100AA0009B0290919C02019721F410929C0210925B
:100AB0009B0282E090E090939A0280939902809149
:100AC0009B0290919C02029731F483E090E0909316
:100AD0009C0280939B0280919B0290919C020397C1
:100AE00049F484E090E090939C0280939B0281E023
:100AF0000E94D90080919B0290919C02049781F4FE
:100B000085E090E090939C0280939B020E948C0170
:100B10006093950270939602809397029093980247
:100B200080919B0290919C020597B9F40E948C01E0
:100B3000209195023091960240919702509198022F
:100B4000621B730B840B950B623371058105910554
:100B500020F0D0939C02C0939B02D0939402C09348
:100B6000930280919B0290919C02069751F40E94FF
:100B7000B500892B11F40C945310D0929C02C092B2
:100B80009B0280919B0290919C02079721F4D09345
:100B90009C02C0939B02F0929202E092910280919B
:100BA0009B0290919C02089731F489E090E0909329
:100BB0009C0280939B0280919B0290919C020997DA
:100BC00049F48AE090E090939C0280939B0280E03D
:100BD0000E94D90080919B0290919C020A9781F417
:100BE0008BE090E090939C0280939B020E948C018A
:100BF0006093950270939602809397029093980267
:100C000080919B0290919C020B97C9F40E948C01E9
:100C1000209195023091960240919702509198024E
:100C2000621B730B840B950B623371058105910573
:100C300080F08CE090E090939C0280939B028091E6
:100C40009B0290919C020C9721F410929C021092AE
:100C50009B0280918F0290919002892B41F4109316
:100C6000900200938F0281E291E00E94F60280914F
:100C70008F0290919002019781F482E090E090932E
:100C8000900280938F020E948C0160938B0270937C
:100C90008C0280938D0290938E0280918F029091AE
:100CA00090020297C9F40E948C0120918B0230912E
:100CB0008C0240918D0250918E02621B730B840B4B
:100CC000950B603D774081059105D0F083E090E081
:100CD0009093900280938F0280918F029091900266
:100CE000039771F484E090E09093900280938F02D8
:100CF0000E94B50021E0892B09F420E020938A02AC
:100D000080918F0290919002049761F480918A0201
:100D1000882311F40C945D1085E090E0909390028C
:100D200080938F0280918F0290919002059741F4F9
:100D3000D0939002C0938F0288E291E00E94F60265
:100D400080918F0290919002069741F480918602E3
:100D5000909187029093900280938F02D0928902A3
:100D6000C092880280918F0290919002079721F49F
:100D7000F0929002E0928F02F0928702E092860257
:100D800080918F0290919002089731F489E090E071
:100D90009093900280938F0280918F0290919002A5
:100DA000099781F48AE090E09093900280938F02FB
:100DB0000E948C0160938B0270938C0280938D0251
:100DC00090938E0280918F02909190020A97C9F4BD
:100DD0000E948C0120918B0230918C0240918D02F7
:100DE00050918E02621B730B840B950B603D774014
:100DF00081059105D0F08BE090E090939002809374
:100E00008F0280918F02909190020B9771F48CE089
:100E100090E09093900280938F020E94B50021E0B1
:100E2000892B09F420E02093850280918F02909114
:100E300090020C9761F480918502882311F40C9440
:100E400063108DE090E09093900280938F028091E8
:100E50008F02909190020D9751F48EE090E0909364
:100E6000900280938F0288E291E00E94F6028091C6
:100E70008F02909190020E9741F48091810290919F
:100E800082029093900280938F028FE090E0909383
:100E900084028093830280918F02909190020F9739
:100EA00031F480E190E09093900280938F028091E2
:100EB0008F0290919002409741F47092900260925C
:100EC0008F028AE391E00E94F602709282026092A1
:100ED000810280918F0290919002419731F482E1DA
:100EE00090E09093900280938F0280918F02909176
:100EF0009002429781F483E190E090939002809376
:100F00008F020E948C0160938B0270938C028093FD
:100F10008D0290938E0280918F0290919002439760
:100F2000C9F40E948C0120918B0230918C02409177
:100F30008D0250918E02621B730B840B950B603DEA
:100F400077408105910530F084E190E09093900224
:100F500080938F0284E190E09093800280937F02DF
:100F600080918F0290919002449731F485E190E056
:100F70009093900280938F0280918F0290919002C3
:100F8000459791F486E190E09093900280938F02D0
:100F90000E94B500892B71F080917D0290917E02B4
:100FA0009093900280938F0280918F029091900293
:100FB000469751F487E190E09093900280938F02DE
:100FC00080E591E00E94F60280918F02909190025C
:100FD000479781F488E190E09093900280938F028C
:100FE0000E948C0160938B0270938C0280938D021F
:100FF00090938E0280918F02909190024897C9F44D
:101000000E948C0120918B0230918C0240918D02C4
:1010100050918E02621B730B840B950B683E7340DC
:1010200081059105A0F089E190E090939002809372
:101030008F0280918F0290919002499741F48091A4
:101040007F02909180029093900280938F028AE1B8
:1010500090E090937E0280937D0280918F02909128
:1010600090024A9731F48BE190E090939002809344
:101070008F0280918F02909190024B9751F48CE1F6
:1010800090E09093900280938F0210927C021092D5
:101090007B0280918F02909190024C9739F4B0922C
:1010A0009002A0928F0281E080937A02B09279023E
:1010B000A092780280918F02909190024D9731F426
:1010C0008EE190E09093900280938F0280918F0246
:1010D000909190024E97A9F480917A02882309F4A6
:1010E000F8C710927A0280917B0290917C020B9754
:1010F00074F08091760290917702909390028093A1
:101100008F0280918F02909190024F9741F48091CD
:101110007B0280FD0AC0B0929002A0928F02809163
:101120008F0290919002809761F481E290E0909319
:10113000900280938F0280917B0290917C020E94AA
:10114000040380918F0290919002819781F482E252
:1011500090E09093900280938F020E948C016093A4
:101160008B0270938C0280938D0290938E028091FB
:101170008F02909190028297C9F40E948C01209175
:101180008B0230918C0240918D0250918E02621B35
:10119000730B840B950B683E734081059105A0F09D
:1011A00083E290E09093900280938F0280918F026F
:1011B00090919002839741F4809178029091790206
:1011C0009093900280938F0284E290E09093770254
:1011D0008093760280918F0290919002849731F4EF
:1011E00085E290E09093900280938F0280918F022D
:1011F00090919002859771F486E290E0909390022E
:1012000080938F02109272021092730210927402F5
:101210001092750286E290E09093710280937002C2
:1012200080918F02909190028697B1F420E030E097
:1012300040E251E4609172027091730280917402F5
:10124000909175020E945E1187FF4DC787E290E082
:101250009093900280938F0280918F0290919002E0
:10126000879751F588E290E09093900280938F02E7
:1012700020E030E040E05FE3609172027091730221
:1012800080917402909175020E94F2106093720234
:1012900070937302809374029093750289E691E0D3
:1012A0000E94A50260917202709173028091740293
:1012B000909175020E94360380918F029091900266
:1012C000889781F489E290E09093900280938F0256
:1012D0000E948C0160938B0270938C0280938D022C
:1012E00090938E0280918F02909190028997C9F419
:1012F0000E948C0120918B0230918C0240918D02D2
:1013000050918E02621B730B840B950B643F7140EE
:1013100081059105B0F18AE290E09093900280936C
:101320008F0280918F02909190028A9751F58BE203
:1013300090E09093900280938F0220E030E040E0B4
:101340005FE36091720270917302809174029091D8
:1013500075020E94F2106093720270937302809380
:1013600074029093750289E691E00E94A502609153
:1013700072027091730280917402909175020E94C2
:10138000360380918F02909190028B9781F48CE2CA
:1013900090E09093900280938F020E948C01609362
:1013A0008B0270938C0280938D0290938E028091B9
:1013B0008F02909190028C97C9F40E948C01209129
:1013C0008B0230918C0240918D0250918E02621BF3
:1013D000730B840B950B643F714081059105A0F060
:1013E0008DE290E09093900280938F0280918F0223
:1013F000909190028D9741F48091700290917102CA
:101400009093900280938F028EE290E090936F020F
:1014100080936E0280918F02909190028E9731F4AA
:101420008FE290E09093900280938F0280918F02E0
:10143000909190028F9751F480E390E09093900206
:1014400080938F0210926D0210926C0280918F0235
:1014500090919002C09749F481E390E090939002BC
:1014600080938F0281E080936B0281E390E0909300
:101470006A028093690280918F0290919002C197D5
:1014800031F482E390E09093900280938F028091F8
:101490008F0290919002C297A9F480916B028823E9
:1014A00009F426C610926B0280916C0290916D0235
:1014B000069774F080916702909168029093900271
:1014C00080938F0280918F0290919002C39761F474
:1014D00084E390E09093900280938F0280916C025D
:1014E00090916D020E94040380918F02909190026E
:1014F000C49781F485E390E09093900280938F02EB
:101500000E948C0160938B0270938C0280938D02F9
:1015100090938E0280918F0290919002C597C9F4AA
:101520000E948C0120918B0230918C0240918D029F
:1015300050918E02621B730B840B950B683E7340B7
:1015400081059105A0F086E390E09093900280934E
:101550008F0280918F0290919002C69741F4809102
:10156000690290916A029093900280938F0287E3C0
:1015700090E0909368028093670280918F0290912F
:101580009002C79731F488E390E0909390028093A3
:101590008F0288E390E090936602809365028091C9
:1015A0008F0290919002C89759F40E94B500892B40
:1015B00009F0A8C589E390E09093900280938F0290
:1015C00080918F0290919002C99709F053C08AE3ED
:1015D00090E09093900280938F02809161029091AD
:1015E0006202892B41F4109362020093610280E54C
:1015F00091E00E94F602809161029091620201974F
:1016000081F482E090E090936202809361020E94F4
:101610008C0160935D0270935E0280935F029093F1
:10162000600280916102909162020297C9F40E9467
:101630008C0120915D0230915E0240915F025091D9
:101640006002621B730B840B950B683E734081052F
:10165000910580F083E090E09093620280936102B4
:101660008091610290916202039721F410926202CC
:101670001092610280918F0290919002CA9741F47A
:1016800080916502909166029093900280938F0200
:101690008BE390E0909364028093630280918F02C9
:1016A00090919002CB9721F43092900220928F0279
:1016B00030925C0220925B0280918F0290919002A6
:1016C000CC9709F0D9C08091370290913802892BCC
:1016D00041F4109338020093370285E791E00E94AD
:1016E000F6028091370290913802019751F482E01E
:1016F00090E0909338028093370210923602109255
:1017000035028091370290913802029749F483E0C4
:1017100090E0909338028093370281E08093340206
:1017200083E090E0909333028093320280913702FD
:1017300090913802039731F484E090E0909338025E
:101740008093370280913702909138020497A9F470
:1017500080913402882309F4DAC410923402809113
:10176000350290913602069774F080913002909184
:101770003102909338028093370280913702909122
:101780003802059771F4D0933802C093370280E98C
:1017900091E00E94A50280913502909136020E944C
:1017A00004038091370290913802069771F4D09229
:1017B0003802C09237020E948C0160932C02709311
:1017C0002D0280932E0290932F02809137029091E8
:1017D00038020797B9F40E948C0120912C023091B5
:1017E0002D0240912E0250912F02621B730B840B2D
:1017F000950B683E73408105910590F0F092380298
:10180000E09237028091370290913802089741F4B4
:101810008091320290913302909338028093370284
:1018200089E090E0909331028093300280913702FA
:1018300090913802099731F48AE090E09093380251
:101840008093370280913702909138028A30910557
:1018500009F067C48BE090E09093380280933702E0
:101860008AEA91E00E94F6028091590290915A0210
:101870009093900280938F0280918F0290919002BA
:10188000CD9709F06CC18EE390E090939002809325
:101890008F028091570290915802892B41F4109346
:1018A00058020093570210925602109255028091EE
:1018B000570290915802019749F482E090E090938A
:1018C00058028093570281E08093540282E090E0B6
:1018D0009093530280935202809157029091580244
:1018E000029731F483E090E090935802809357027E
:1018F00080915702909158020397B9F48091540255
:10190000882309F41AC410925402809155029091D0
:1019100056028F3F910579F074F0809150029091BA
:1019200051029093580280935702809157029091F0
:101930005802049761F485E090E0909358028093F8
:10194000570280915502909156020E943501809174
:10195000570290915802059771F4D0935802C093A2
:1019600057020E948C0160934C0270934D02809349
:101970004E0290934F028091570290915802069721
:10198000B9F40E948C0120914C0230914D0240919B
:101990004E0250914F02621B730B840B950B623009
:1019A00071058105910580F0D0925802C0925702CE
:1019B0008091570290915802079731F482E090E0AD
:1019C0009093580280935702F0925102E092500295
:1019D0008091570290915802089731F489E090E085
:1019E0009093580280935702809157029091580229
:1019F000099761F48AE090E090935802809357022F
:101A00008FEF90E090934B0280934A0280915702AF
:101A1000909158020A9749F48BE090E09093580215
:101A20008093570281E0809349028BE090E090938D
:101A300048028093470280915702909158020B9779
:101A400031F48CE090E0909358028093570280919B
:101A50005702909158020C97A9F48091490288236B
:101A600009F475C31092490280914A0290914B0289
:101A700097FF0EC0809145029091460290935802C4
:101A80008093570280915702909158020D9761F40C
:101A90008EE090E0909358028093570280914A0222
:101AA00090914B020E94350180915702909158020B
:101AB0000E9781F48FE090E0909358028093570244
:101AC0000E948C0160934C0270934D0280934E02F1
:101AD00090934F0280915702909158020F97C9F44A
:101AE0000E948C0120914C0230914D0240914E0297
:101AF00050914F02621B730B840B950B6230710582
:101B00008105910590F080E190E0909358028093D8
:101B100057028091570290915802409731F48BE020
:101B200090E0909358028093570270924602609220
:101B300045028091570290915802419731F482E119
:101B400090E09093580280935702809157029091B1
:101B50005802429721F41092580210925702809135
:101B60008F0290919002CE9741F480915B02909108
:101B70005C029093900280938F028FE390E09093A9
:101B80005A028093590280918F0290919002CF97D0
:101B900031F480E490E09093900280938F028091E2
:101BA0008F02909190028034910571F481E490E06D
:101BB0009093900280938F02109241021092420201
:101BC000109243021092440280918F0290919002F1
:101BD0008134910571F49092900280928F020E945C
:101BE0008C01609341027093420280934302909370
:101BF00044029092400280923F0280918F02909125
:101C0000900282349105D1F40E948C01209141020E
:101C1000309142024091430250914402621B730B87
:101C2000840B950B683873418105910508F099C2C2
:101C300083E490E09093900280938F0280918F02D2
:101C4000909190028334910549F484E490E090935C
:101C5000900280938F0281E00E94D90080918F02D0
:101C6000909190028434910581F485E490E0909302
:101C7000900280938F020E948C0160938B0270937C
:101C80008C0280938D0290938E0280918F029091AE
:101C9000900285349105C9F40E948C0120918B0239
:101CA00030918C0240918D0250918E02621B730B19
:101CB000840B950B683E734081059105B0F086E476
:101CC00090E09093900280938F0280918F02909188
:101CD00090028634910549F487E490E09093900255
:101CE00080938F0280E00E94D90080918F029091B2
:101CF00090028734910581F488E490E090939002FB
:101D000080938F020E948C0160938B0270938C02EF
:101D100080938D0290938E0280918F029091900219
:101D200088349105C9F40E948C0120918B02309176
:101D30008C0240918D0250918E02621B730B840BBA
:101D4000950B683E73408105910588F089E490E029
:101D50009093900280938F0280918F0290919002D5
:101D60008934910521F49092900280928F028AE446
:101D700090E090933E0280933D0280918F0290917B
:101D800090028A34910531F48BE490E090939002B4
:101D900080938F0280918F02909190028B349105F5
:101DA00069F48CE490E09093900280938F0280E03D
:101DB0000E94D90087EC91E00E94F60280918F0288
:101DC000909190028C34910581F48DE490E0909391
:101DD000900280938F020E948C0160938B0270931B
:101DE0008C0280938D0290938E0280918F0290914D
:101DF00090028D349105B9F40E948C0120918B02E0
:101E000030918C0240918D0250918E02621B730BB7
:101E1000840B950B683E73408105910520F050922C
:101E2000900240928F0250923C0240923B0280917D
:101E30008F02909190028E34910559F40E94B50062
:101E4000892B09F093C18FE490E0909390028093E6
:101E50008F0280918F02909190028F34910551F4FE
:101E600080E590E09093900280938F0288EE91E05D
:101E70000E94F60280918F02909190028035910528
:101E800081F481E590E09093900280938F020E940C
:101E90008C0160938B0270938C0280938D029093DF
:101EA0008E0280918F029091900281359105C9F444
:101EB0000E948C0120918B0230918C0240918D0206
:101EC00050918E02621B730B840B950B603D774023
:101ED00081059105B8F082E590E09093900280939F
:101EE0008F0280918F02909190028235910551F47A
:101EF00083E590E09093900280938F028FEE91E0C3
:101F00000E94F60280918F02909190028335910594
:101F100081F484E590E09093900280938F020E9478
:101F20008C0160938B0270938C0280938D0290934E
:101F30008E0280918F029091900284359105C9F4B0
:101F40000E948C0120918B0230918C0240918D0275
:101F500050918E02621B730B840B950B603D774092
:101F600081059105A8F085E590E09093900280931B
:101F70008F0280918F02909190028535910541F4F6
:101F800080913B0290913C029093900280938F024B
:101F900086E590E090933A028093390280918F0217
:101FA000909190028635910531F487E590E0909309
:101FB000900280938F0280918F02909190028735DA
:101FC000910571F488E590E09093900280938F02E0
:101FD00086EF91E00E94F60280E092E00E94F60215
:101FE00080918F02909190028835910581F489E566
:101FF00090E09093900280938F020E948C016093F6
:102000008B0270938C0280938D0290938E0280914C
:102010008F029091900289359105C9F40E948C013C
:1020200020918B0230918C0240918D0250918E0252
:10203000621B730B840B950B603D77408105910506
:10204000C0F08AE590E09093900280938F02809197
:102050008F02909190028A35910509F08CC08BE532
:1020600090E09093900280938F028FE092E00E9424
:10207000F60280E090E0892B11F40C943B050E945D
:102080000202882311F40C942F050E9400000C9486
:102090002F058091990290919A0290939C028093CF
:1020A0009B020C944F058091910290919202909323
:1020B0009C0280939B020C94C105809188029091B0
:1020C00089020C948E0680918302909184020C9474
:1020D000230780917B0290917C02019690937C0271
:1020E00080937B0200C880916E0290916F02B0C80D
:1020F00080916C0290916D02019690936D02809395
:102100006C02D2C9809163029091640255CA809199
:1021100035029091360201969093360280933502F3
:102120001ECB0B9721F41092380210923702809147
:102130008F029091900201969BCB809155029091D5
:10214000560201969093560280935502DECB809101
:102150004A0290914B02019790934B0280934A025E
:1021600083CC80913D0290913E0264CD80913902F2
:1021700090913A026ACE8B35910509F07ACF109290
:10218000900210928F0275CFE8EAF2E01382128279
:1021900088EE93E0A0E0B0E084839583A683B783C4
:1021A00084E091E09183808385EC90E0958784873B
:1021B00084EC90E09787868780EC90E0918B808B11
:1021C00081EC90E0938B828B82EC90E0958B848BFA
:1021D00086EC90E0978B868B118E128E138E148E68
:1021E00008955058BB27AA270E9409110C940A127F
:1021F0000E94FC1138F00E94031220F039F49F3F36
:1022000019F426F40C94F9110EF4E095E7FB0C9404
:10221000F311E92F0E941B1258F3BA1762077307D4
:102220008407950720F079F4A6F50C943D120EF47E
:10223000E0950B2EBA2FA02D0B01B90190010C01D6
:10224000CA01A0011124FF27591B99F0593F50F4EE
:10225000503E68F11A16F040A22F232F342F442746
:10226000585FF3CF469537952795A795F04053953E
:10227000C9F77EF41F16BA0B620B730B840BBAF00E
:102280009150A1F0FF0FBB1F661F771F881FC2F779
:102290000EC0BA0F621F731F841F48F4879577958D
:1022A0006795B795F7959E3F08F0B0CF9395880F47
:1022B00008F09927EE0F9795879508950E94CF1102
:1022C00008F481E008950E94231288F09F5798F047
:1022D000B92F9927B751B0F0E1F0660F771F881F2B
:1022E000991F1AF0BA95C9F714C0B13091F00E9445
:1022F0003D12B1E008950C943D12672F782F882786
:10230000B85F39F0B93FCCF3869577956795B3956B
:10231000D9F73EF490958095709561957F4F8F4FDA
:102320009F4F0895E89409C097FB3EF490958095DF
:10233000709561957F4F8F4F9F4F9923A9F0F92F8B
:1023400096E9BB279395F695879577956795B79509
:10235000F111F8CFFAF4BB0F11F460FF1BC06F5FEF
:102360007F4F8F4F9F4F16C0882311F096E911C001
:10237000772321F09EE8872F762F05C0662371F022
:1023800096E8862F70E060E02AF09A95660F771F36
:10239000881FDAF7880F9695879597F90895990F12
:1023A0000008550FAA0BE0E8FEEF16161706E8071F
:1023B000F907C0F012161306E407F50798F0621B40
:1023C000730B840B950B39F40A2661F0232B242B15
:1023D000252B21F408950A2609F4A140A6958FEF34
:1023E000811D811D089597F99F6780E870E060E086
:1023F00008959FEF80EC089500240A94161617069E
:1024000018060906089500240A94121613061406E5
:1024100005060895092E0394000C11F4882352F048
:10242000BB0F40F4BF2B11F460FF04C06F5F7F4F00
:102430008F4F9F4F089557FD9058440F551F59F0E7
:102440005F3F71F04795880F97FB991F61F09F3FA1
:1024500079F087950895121613061406551FF2CFCA
:102460004695F1DF08C0161617061806991FF1CF1A
:1024700086957105610508940895E894BB27662741
:102480007727CB0197F908950E94CF1108F48FEFB9
:1024900008950E945C120C940A120E94FC1138F0FC
:1024A0000E94031220F0952311F00C94F3110C9468
:1024B000F91111240C943E120E941B1270F3959F87
:1024C000C1F3950F50E0551F629FF001729FBB272B
:1024D000F00DB11D639FAA27F00DB11DAA1F649FC7
:1024E0006627B00DA11D661F829F2227B00DA11D7A
:1024F000621F739FB00DA11D621F839FA00D611D00
:10250000221F749F3327A00D611D231F849F600D20
:10251000211D822F762F6A2F11249F5750409AF049
:10252000F1F088234AF0EE0FFF1FBB1F661F771FD5
:10253000881F91505040A9F79E3F510580F00C94A0
:10254000F3110C943E125F3FE4F3983ED4F386956A
:1025500077956795B795F795E7959F5FC1F7FE2B40
:10256000880F911D9695879597F908950E94CF1130
:10257000880B990B0895A1E21A2EAA1BBB1BFD0123
:102580000DC0AA1FBB1FEE1FFF1FA217B307E40752
:10259000F50720F0A21BB30BE40BF50B661F771FAA
:1025A000881F991F1A9469F760957095809590958A
:1025B0009B01AC01BD01CF010895EE0FFF1F0590F7
:0A25C000F491E02D0994F894FFCF88
:1025CA000000000038029801C5018502F601D40115
:1025DA00E8010D0A006E616E00696E66006F76662C
:1025EA000053746570203000427574746F6E2069F0
:1025FA0073207072657373656400427574746F6ECC
:10260A00206973206E6F742070726573736564003D
:10261A0057616974696E6720666F72206275747497
:10262A006F6E2070726573730054696D65732072E2
:10263A00616E3A20005365636F6E6461727920732C
:10264A00657175656E636520737461727465640083
:10265A005365636F6E646172792072756E6E696E0E
:10266A00672074696D65733A20005365636F6E6401
:10267A006172792073657175656E636520636F6D2C
:10268A00706C6574656400486F6C642074686520BA
:10269A00627574746F6E20746F2065786974207423
:1026AA006865206C6F6F7000537465702032005338
:1026BA00746570203300436F6D706C65746521001A
:1026CA0052657374617274696E67202E2E2E0053E0
:1026DA00657175656E6365206E6F74696669656498
:0C26EA0020636F6D706C6574696F6E008A
:00000001FF
