:100000000C9462000C948A000C948A000C948A0070
:100010000C948A000C948A000C948A000C948A0038
:100020000C948A000C948A000C948A000C948A0028
:100030000C948A000C948A000C948A000C948A0018
:100040000C9478030C948A000C94E8030C94C2037B
:100050000C948A000C948A000C948A000C948A00F8
:100060000C948A000C948A000000000024002700F1
:100070002A0000000000250028002B0000000000DE
:1000800023002600290004040404040404040202DA
:100090000202020203030303030301020408102007
:1000A0004080010204081020010204081020000012
:1000B0000008000201000003040700000000000027
:1000C0000000E20A11241FBECFEFD8E0DEBFCDBF93
:1000D00012E0A0E0B1E0E6E0FAE102C005900D9286
:1000E000A430B107D9F722E0A4E0B2E001C01D922C
:1000F000AC3EB207E1F710E0C2E6D0E004C02197C1
:10010000FE010E94FB0CC136D107C9F70E941A04F8
:100110000C94010D0C940000833081F028F48130A0
:1001200099F08230A9F008958730A9F08830C9F09D
:100130008430B1F4809180008F7D03C08091800075
:100140008F7780938000089584B58F7784BD08955C
:1001500084B58F7DFBCF8091B0008F778093B00006
:1001600008958091B0008F7DF9CFCF93DF93E0EBBE
:10017000F0E08491ECE9F0E0D491E8E8F0E0C4919B
:10018000CC23A1F081110E948C00EC2FF0E0EE0F47
:10019000FF1FE458FF4FA591B491EC91ED2381E04E
:1001A00090E009F480E0DF91CF91089580E090E045
:1001B000FACF1F93CF93DF93E3EBF0E09491EFE955
:1001C000F0E0D491EBE8F0E0C491CC23B9F0182F23
:1001D000992319F0892F0E948C00EC2FF0E0EE0F8C
:1001E000FF1FEE58FF4FA591B4918FB7F894EC9193
:1001F000111108C0D095DE23DC938FBFDF91CF9122
:100200001F910895DE2BF8CF2FB7F89460914B0221
:1002100070914C0280914D0290914E022FBF089533
:10022000AF92BF92CF92DF92EF92FF920F931F9304
:10023000CF93DF936C017B018B01040F151FEB0142
:100240005E01AE18BF08C017D10759F06991D601F9
:10025000ED91FC910190F081E02DC6010995892B6B
:1002600079F7C501DF91CF911F910F91FF90EF902A
:10027000DF90CF90BF90AF900895FC01538D448DD7
:10028000252F30E0842F90E0821B930B541710F041
:10029000CF96089501970895FC01918D828D98174E
:1002A00061F0A28DAE0FBF2FB11D5D968C91928D26
:1002B0009F5F9F73928F90E008958FEF9FEF089557
:1002C000FC01918D828D981731F0828DE80FF11D20
:1002D000858D90E008958FEF9FEF0895FC01918D3B
:1002E000228D892F90E0805C9F4F821B91098F7334
:1002F000992708958FE492E00E946E0121E0892BF6
:1003000009F420E0822F089580E090E0892B29F005
:100310000E947A0181110C9400000895FC01A48DC3
:10032000A80FB92FB11DA35ABF4F2C91848D90E017
:1003300001968F739927848FA689B7892C93A089FA
:10034000B1898C91837080648C93938D848D981384
:1003500006C00288F389E02D80818F7D8083089517
:10036000EF92FF920F931F93CF93DF93EC0181E005
:10037000888F9B8D8C8D98131AC0E889F9898081AC
:1003800085FF15C09FB7F894EE89FF896083E889DF
:10039000F98980818370806480839FBF81E090E0D1
:1003A000DF91CF911F910F91FF90EF900895F62E5E
:1003B0000B8D10E00F5F1F4F0F731127E02E8C8DF8
:1003C0008E110CC00FB607FCFACFE889F98980813D
:1003D00085FFF5CFCE010E948E01F1CFEB8DEC0FA2
:1003E000FD2FF11DE35AFF4FF0829FB7F8940B8F5A
:1003F000EA89FB8980818062CFCFCF93DF93EC01C4
:10040000888D8823B9F0AA89BB89E889F9898C91FC
:1004100085FD03C0808186FD0DC00FB607FCF7CFB8
:100420008C9185FFF2CF808185FFEDCFCE010E94B8
:100430008E01E9CFDF91CF910895FC01019000205A
:10044000E9F73197AF01481B590BBC018FE492E0EB
:100450000C9410018F929F92AF92BF920F931F93B3
:10046000CF93DF93CDB7DEB7A1970FB6F894DEBF79
:100470000FBECDBF19A2423008F44AE08E010F5DD5
:100480001F4F842E912CB12CA12CA50194010E9408
:10049000D90CE62FB901CA01EA30F4F4E05DD801C5
:1004A000EE938D01232B242B252B79F790E080E010
:1004B000109719F0CD010E941D02A1960FB6F89475
:1004C000DEBF0FBECDBFDF91CF911F910F91BF90C7
:1004D000AF909F908F900895E95CE1CFCF93DF9329
:1004E0000E941D02EC0182E191E00E941D028C0F2E
:1004F0009D1FDF91CF910895CF92DF92EF92FF92EF
:10050000CF93DF936C01990FEE08FF08F7FE1FC031
:100510006DE28FE492E00E94B001EC01662777273C
:10052000CB016C197D098E099F094AE00E942A02BD
:10053000C80FD91F82E191E00E941D028C0F9D1F00
:10054000DF91CF91FF90EF90DF90CF9008954AE038
:10055000C701B6010E942A02EC01ECCF4F925F92D4
:100560006F927F928F929F92AF92BF92CF92DF92C3
:10057000EF92FF926B017C01AC019B010E94D40CB5
:100580008823C1F085E191E00E941D027C0182E197
:1005900091E00E941D028E0D9F1DFF90EF90DF9055
:1005A000CF90BF90AF909F908F907F906F905F9013
:1005B0004F90089546015701E894B7F82FEF3FEFA9
:1005C0004FE75FE7C501B4010E94D40C81110DC053
:1005D0002FEF3FEF4FE75FE7C501B4010E947C0BAF
:1005E00018161CF489E191E0CFCF2FEF3FEF4FE7D2
:1005F0005FE4C701B6010E94620C18161CF48DE17D
:1006000091E0C2CF2FEF3FEF4FE75FECC701B6019C
:100610000E947C0B87FDF3CF20E030E0A901C701E9
:10062000B6010E947C0BB12CA12C87FF0AC06DE2A1
:100630008FE492E00E94B0015C01F7FAF094F7F8C1
:10064000F0942AE037ED43EA5BE3C701B6010E946C
:10065000100B2B013C010E94810B6B017C010E945D
:10066000B00B9B01AC01C301B2010E940F0B2B0127
:100670003C014AE0C701B6010E942A027C01EA0C53
:10068000FB1C6EE28FE492E00E94B001E80EF91EBE
:1006900020E030E040E251E4C301B2010E94670C67
:1006A0002B013C010E94810B4B01B12CA12C4AE093
:1006B000C501B4010E942A02E80EF91EC501B40169
:1006C0000E94B00B9B01AC01C301B2010E940F0B51
:1006D00020E030E040E251E40E94670C0E94810B70
:1006E00090E080E04AE00E942A02E80EF91E4FCF17
:1006F0001F920F920FB60F9211242F933F938F9357
:100700009F93AF93BF9380914B0290914C02A09125
:100710004D02B0914E0230914A0223E0230F2D3753
:1007200058F50196A11DB11D20934A0280934B02FA
:1007300090934C02A0934D02B0934E0280914602DA
:1007400090914702A0914802B09149020196A11DE3
:10075000B11D8093460290934702A0934802B09344
:100760004902BF91AF919F918F913F912F910F902F
:100770000FBE0F901F90189526E8230F0296A11D1B
:10078000B11DD2CF1F920F920FB60F9211242F934B
:100790003F934F935F936F937F938F939F93AF9309
:1007A000BF93EF93FF938FE492E00E948E01FF913D
:1007B000EF91BF91AF919F918F917F916F915F91D9
:1007C0004F913F912F910F900FBE0F901F90189552
:1007D0001F920F920FB60F9211242F938F939F9316
:1007E000EF93FF93E0915F02F09160028081E091CE
:1007F0006502F091660282FD1BC0908180916802C3
:100800008F5F8F7320916902821741F0E091680237
:10081000F0E0E15BFD4F958F80936802FF91EF91CF
:100820009F918F912F910F900FBE0F901F90189551
:100830008081F4CF789484B5826084BD84B5816072
:1008400084BD85B5826085BD85B5816085BD80919B
:100850006E00816080936E00109281008091810013
:10086000826080938100809181008160809381000B
:10087000809180008160809380008091B1008460CD
:100880008093B1008091B00081608093B00080912E
:100890007A00846080937A0080917A0082608093ED
:1008A0007A0080917A00816080937A0080917A004A
:1008B000806880937A001092C100E0915F02F0910D
:1008C000600282E08083E0915B02F0915C02108222
:1008D000E0915D02F0915E028FEC808310926702DE
:1008E000E0916302F091640286E08083E09161020E
:1008F000F0916202808180618083E0916102F091D9
:100900006202808188608083E0916102F0916202DE
:10091000808180688083E0916102F0916202808131
:100920008F7D8083ECE9F0E02491E8E8F0E08491A9
:100930008823C1F090E0880F991FFC01E859FF4F10
:10094000C591D491FC01EE58FF4FA591B4919FB78A
:10095000F8948881E22FE0958E2388838C91E82398
:10096000EC939FBFEFE9F0E02491EBE8F0E0849195
:10097000882399F090E0880F991FFC01E859FF4FF8
:10098000A591B491FC01EE58FF4F859194918FB7DA
:10099000F894EC91E22BEC938FBFC2E0D0E0EE2410
:1009A000E394F12C04E010E083E0C82ED12C95E014
:1009B000892E912C26E0A22EB12C37E0432E512C0B
:1009C00048E0642E712C59E0252E312C10924502FE
:1009D000109244028091420290914302892B49F483
:1009E0000E94B500892B09F0A6C5F0924302E0925F
:1009F00042028091420290914302019721F41092A9
:100A0000430210924202D0934102C093400280916F
:100A1000420290914302029721F4D0924302C09285
:100A200042028091420290914302039739F410935D
:100A300043020093420281E00E94D90010933F02DA
:100A400000933E028091420290914302049749F440
:100A50000E94B500892B09F477C5909243028092D9
:100A600042028091420290914302059721F4109333
:100A7000430200934202B0923D02A0923C02809158
:100A8000420290914302069721F450924302409211
:100A900042028091420290914302079739F470928A
:100AA00043026092420280E00E94D900809142029B
:100AB00090914302089721F410924302109242024F
:100AC00080913A0290913B02892B41F4F0923B02D3
:100AD000E0923A0281E291E00E946E0280913A0235
:100AE00090913B02019761F4D0933B02C0933A028C
:100AF0001092360210923702109238021092390288
:100B0000D0933502C093340280913A0290913B0217
:100B10000297A1F420E030E040E251E46091360217
:100B20007091370280913802909139020E947C0BBB
:100B300087FF13C5D0923B02C0923A0280913A02DD
:100B400090913B02039741F510933B0200933A02C8
:100B500020E030E040E05FE36091360270913702C0
:100B600080913802909139020E94100B60933602F6
:100B700070933702809338029093390288E291E0B3
:100B80000E941D02609136027091370280913802F6
:100B9000909139020E94AE0280913A0290913B02FC
:100BA000049771F40E94040160932E0270932F0247
:100BB000809330029093310290923B0280923A02ED
:100BC00080913A0290913B020597B9F40E9404018A
:100BD00020912E0230912F0240913002509131022B
:100BE000621B730B840B950B643F7140810591056B
:100BF00090F1B0923B02A0923A0280913A02909119
:100C00003B02069741F550923B0240923A0220E0A7
:100C100030E040E05FE360913602709137028091EE
:100C20003802909139020E94100B60933602709343
:100C30003702809338029093390288E291E00E9453
:100C40001D026091360270913702809138029091B6
:100C500039020E94AE0280913A0290913B020797BE
:100C600071F40E94040160932E0270932F0280930E
:100C700030029093310270923B0260923A0280916E
:100C80003A0290913B020897B9F40E940401209126
:100C90002E0230912F024091300250913102621B9E
:100CA000730B840B950B643F71408105910590F0A7
:100CB00030923B0220923A0280913A0290913B029C
:100CC000099741F4809134029091350290933B0250
:100CD00080933A028AE090E090933302809332024C
:100CE00080913A0290913B020A9731F48BE090E0B8
:100CF00090933B0280933A0280913A0290913B029A
:100D00000B9751F48CE090E090933B0280933A0271
:100D100010922D0210922C028CE090E090932B0206
:100D200080932A0280913A0290913B020C9769F4D9
:100D300080912C0290912D0206970CF017C48DE043
:100D400090E090933B0280933A0280913A02909116
:100D50003B020D9761F48EE090E090933B0280930C
:100D60003A0280912C0290912D020E947C02809187
:100D70003A0290913B020E9781F40E940401609325
:100D80002E0270932F0280933002909331028FE0F5
:100D900090E090933B0280933A0280913A029091C6
:100DA0003B020F97C9F40E94040120912E0230915A
:100DB0002F024091300250913102621B730B840B61
:100DC000950B683E734081059105D8F080E190E075
:100DD00090933B0280933A0280913A0290913B02B9
:100DE000409779F481E190E090933B0280933A023E
:100DF00080912C0290912D02019690932D02809368
:100E00002C0280913A0290913B02419741F48091EB
:100E10002A0290912B0290933B0280933A0282E146
:100E200090E0909329028093280280913A02909159
:100E30003B02429731F483E190E090933B02809330
:100E40003A0283E190E090932702809326028091FA
:100E50003A0290913B02439759F40E94B500892BC6
:100E600009F089C384E190E090933B0280933A02B9
:100E700080913A0290913B02449709F04FC085E17E
:100E800090E090933B0280933A02809122029091ED
:100E90002302892B41F4F0922302E092220284E3A0
:100EA00091E00E946E0280912202909123020197AC
:100EB00071F40E94040160931E0270931F028093DC
:100EC000200290932102D0932302C09322028091AA
:100ED0002202909123020297B9F40E94040120910A
:100EE0001E0230911F024091200250912102621B8C
:100EF000730B840B950B683E73408105910570F070
:100F0000D0922302C0922202809122029091230269
:100F1000039721F4109223021092220280913A0248
:100F200090913B02459741F48091260290912702CF
:100F300090933B0280933A0286E190E090932502E1
:100F40008093240280913A0290913B02469731F4BB
:100F500087E190E090933B0280933A0287E190E032
:100F600090931D0280931C0280913A0290913B0263
:100F7000479709F0BFC080910E0290910F02892B14
:100F800041F4F0920F02E0920E028DE491E00E9493
:100F90006E0280910E0290910F02019741F4D0935E
:100FA0000F02C0930E0210920D0210920C02D09309
:100FB0000B02C0930A0280910E0290910F020297D9
:100FC00059F480910C0290910D0206970CF0D8C252
:100FD000D0920F02C0920E0280910E0290910F02E9
:100FE000039771F410930F0200930E0288E691E0CC
:100FF0000E941D0280910C0290910D020E947C02C1
:1010000080910E0290910F02049771F40E940401E6
:101010006093040270930502809306029093070286
:1010200090920F0280920E0280910E0290910F0218
:101030000597B9F40E940401209104023091050241
:101040004091060250910702621B730B840B950BB3
:10105000683E734081059105B8F0B0920F02A092EE
:101060000E0280910E0290910F02069769F4509241
:101070000F0240920E0280910C0290910D02019697
:1010800090930D0280930C0280910E0290910F02BA
:10109000079741F480910A0290910B0290930F02FE
:1010A00080930E02709209026092080280910E02F3
:1010B00090910F02089721F430920F0220920E02B5
:1010C00080910E0290910F028930910509F061C262
:1010D0008AE090E090930F0280930E0282E891E004
:1010E0000E946E0280911A0290911B0290933B0223
:1010F00080933A0280913A0290913B02489709F01E
:101100008CC089E190E090933B0280933A028091F9
:10111000180290911902892B39F4F0921902E09289
:10112000180281E00E94D900809118029091190262
:10113000019771F40E9404016093140270931502E8
:101140008093160290931702D0931902C09318024D
:1011500080911802909119020297B9F40E9404013B
:1011600020911402309115024091160250911702FD
:10117000621B730B840B950B643F714081059105D5
:1011800088F0D0921902C0921802809118029091B2
:101190001902039739F4109319020093180280E0A2
:1011A0000E94D9008091180290911902049771F45D
:1011B0000E9404016093140270931502809316023A
:1011C000909317029092190280921802809118024F
:1011D000909119020597B9F40E940401209114021C
:1011E000309115024091160250911702621B730B49
:1011F000840B950B643F71408105910570F0B092AE
:101200001902A09218028091180290911902069773
:1012100021F4109219021092180280913A029091D2
:101220003B02499741F480911C0290911D029093DA
:101230003B0280933A028AE190E090931B028093F4
:101240001A0280913A0290913B024A9731F48BE165
:1012500090E090933B0280933A0280913A02909101
:101260003B024B9751F48CE190E090933B028093CA
:101270003A028FE991E00E946E0280913A029091C9
:101280003B024C9781F40E94040160932E027093FC
:101290002F0280933002909331028DE190E0909381
:1012A0003B0280933A0280913A0290913B024D9723
:1012B000C9F40E94040120912E0230912F02409126
:1012C000300250913102621B730B840B950B683E08
:1012D00073408105910530F08EE190E090933B02E0
:1012E00080933A028EE190E0909313028093120271
:1012F00080913A0290913B024E9759F40E94B500BA
:10130000892B09F052C18FE190E090933B028093CA
:101310003A0280913A0290913B024F9751F480E259
:1013200090E090933B0280933A0280EC91E00E941F
:101330006E0280913A0290913B02809781F40E9464
:10134000040160932E0270932F02809330029093D9
:10135000310281E290E090933B0280933A028091C7
:101360003A0290913B028197C9F40E9404012091B6
:101370002E0230912F024091300250913102621BB7
:10138000730B840B950B603D774081059105B0F0A0
:1013900082E290E090933B0280933A0280913A027D
:1013A00090913B02829751F483E290E090933B024C
:1013B00080933A0287EC91E00E946E0280913A029B
:1013C00090913B02839781F40E94040160932E0266
:1013D00070932F02809330029093310284E290E068
:1013E00090933B0280933A0280913A0290913B02A3
:1013F0008497C9F40E94040120912E0230912F029B
:101400004091300250913102621B730B840B950B9B
:10141000603D774081059105A0F085E290E09093D2
:101420003B0280933A0280913A0290913B02859769
:1014300041F4809112029091130290933B028093A9
:101440003A0286E290E0909311028093100280911C
:101450003A0290913B02869731F487E290E09093B4
:101460003B0280933A0280913A0290913B02879727
:1014700071F488E290E090933B0280933A028EEC04
:1014800091E00E946E0288ED91E00E946E028091D0
:101490003A0290913B02889781F40E940401609384
:1014A0002E0270932F02809330029093310289E2D2
:1014B00090E090933B0280933A0280913A0290919F
:1014C0003B028997C9F40E94040120912E023091B9
:1014D0002F024091300250913102621B730B840B3A
:1014E000950B603D774081059105C0F08AE290E060
:1014F00090933B0280933A0280913A0290913B0292
:101500008A32910509F056C08BE290E090933B023D
:1015100080933A0287EE91E00E946E0280E090E0B4
:10152000892B09F453CA0E947A01882309F43CCA22
:101530000E94000039CA809140029091410290932C
:1015400043028093420255CA80913C0290913D0231
:10155000909343028093420284CA80913202909118
:10156000330290933B0280933A02E8CA80912802AA
:1015700090912902E6CB809124029091250274CCAF
:10158000809108029091090290930F0280930E02BD
:1015900023CD0A9721F410920F0210920E0280912F
:1015A0003A0290913B020196A1CD80911002909158
:1015B0001102ABCE8B9709F0B1CF10923B02109283
:1015C0003A02ACCFEFE4F2E01382128288EE93E0AD
:1015D000A0E0B0E084839583A683B78384E091E0A4
:1015E0009183808385EC90E09587848784EC90E0FC
:1015F0009787868780EC90E0918B808B81EC90E0E0
:10160000938B828B82EC90E0958B848B86EC90E0C0
:10161000978B868B118E128E138E148E08955058D0
:10162000BB27AA270E94270B0C94280C0E941A0C97
:1016300038F00E94210C20F039F49F3F19F426F471
:101640000C94170C0EF4E095E7FB0C94110CE92FA9
:101650000E94390C58F3BA1762077307840795077D
:1016600020F079F4A6F50C945B0C0EF4E0950B2EAB
:10167000BA2FA02D0B01B90190010C01CA01A001E4
:101680001124FF27591B99F0593F50F4503E68F13F
:101690001A16F040A22F232F342F4427585FF3CF80
:1016A000469537952795A795F0405395C9F77EF451
:1016B0001F16BA0B620B730B840BBAF09150A1F09A
:1016C000FF0FBB1F661F771F881FC2F70EC0BA0F20
:1016D000621F731F841F48F4879577956795B795A8
:1016E000F7959E3F08F0B0CF9395880F08F09927A3
:1016F000EE0F9795879508950E94ED0B08F481E011
:1017000008950E94410C88F09F5798F0B92F9927AF
:10171000B751B0F0E1F0660F771F881F991F1AF0DC
:10172000BA95C9F714C0B13091F00E945B0CB1E0DA
:1017300008950C945B0C672F782F8827B85F39F0D9
:10174000B93FCCF3869577956795B395D9F73EF475
:1017500090958095709561957F4F8F4F9F4F08951D
:10176000E89409C097FB3EF490958095709561953B
:101770007F4F8F4F9F4F9923A9F0F92F96E9BB27F1
:101780009395F695879577956795B795F111F8CF6D
:10179000FAF4BB0F11F460FF1BC06F5F7F4F8F4FD8
:1017A0009F4F16C0882311F096E911C0772321F0CE
:1017B0009EE8872F762F05C0662371F096E8862F66
:1017C00070E060E02AF09A95660F771F881FDAF7BD
:1017D000880F9695879597F90895990F0008550FEA
:1017E000AA0BE0E8FEEF16161706E807F907C0F0A7
:1017F00012161306E407F50798F0621B730B840BAF
:10180000950B39F40A2661F0232B242B252B21F488
:1018100008950A2609F4A140A6958FEF811D811D28
:10182000089597F99F6780E870E060E008959FEF62
:1018300080EC089500240A94161617061806090667
:10184000089500240A941216130614060506089536
:10185000092E0394000C11F4882352F0BB0F40F4BE
:10186000BF2B11F460FF04C06F5F7F4F8F4F9F4FFE
:10187000089557FD9058440F551F59F05F3F71F080
:101880004795880F97FB991F61F09F3F79F08795E7
:101890000895121613061406551FF2CF4695F1DF70
:1018A00008C0161617061806991FF1CF8695710500
:1018B000610508940895E894BB2766277727CB0134
:1018C00097F908950E94ED0B08F48FEF08950E9498
:1018D0007A0C0C94280C0E941A0C38F00E94210CEF
:1018E00020F0952311F00C94110C0C94170C11247A
:1018F0000C945C0C0E94390C70F3959FC1F3950F0A
:1019000050E0551F629FF001729FBB27F00DB11D83
:10191000639FAA27F00DB11DAA1F649F6627B00D13
:10192000A11D661F829F2227B00DA11D621F739FFC
:10193000B00DA11D621F839FA00D611D221F749F0A
:101940003327A00D611D231F849F600D211D822F51
:10195000762F6A2F11249F5750409AF0F1F0882378
:101960004AF0EE0FFF1FBB1F661F771F881F9150A5
:101970005040A9F79E3F510580F00C94110C0C9437
:101980005C0C5F3FE4F3983ED4F3869577956795BA
:10199000B795F795E7959F5FC1F7FE2B880F911DCF
:1019A0009695879597F908950E94ED0B880B990BF2
:1019B0000895A1E21A2EAA1BBB1BFD010DC0AA1F90
:1019C000BB1FEE1FFF1FA217B307E407F50720F0A8
:1019D000A21BB30BE40BF50B661F771F881F991F23
:1019E0001A9469F760957095809590959B01AC016C
:1019F000BD01CF010895EE0FFF1F0590F491E02D7A
:061A00000994F894FFCFE9
:101A060000000000B00110013D01FD016E014C0116
:101A160060010D0A006E616E00696E66006F766683
:101A2600005374657020300054696D6573207261CF
:101A36006E3A200057616974696E6720666F72207E
:101A4600627574746F6E207072657373005365638C
:101A56006F6E646172792073657175656E6365205A
:101A660073746172746564005365636F6E6461724A
:101A7600792072756E6E696E672074696D65733A4A
:101A860020005365636F6E646172792073657175AA
:101A9600656E636520636F6D706C65746564004880
:101AA6006F6C642074686520627574746F6E207440
:101AB6006F206578697420746865206C6F6F70009C
:101AC6005374657020320053746570203300436F81
:101AD6006D706C657465210052657374617274690A
:101AE6006E67202E2E2E0053657175656E63652018
:101AF6006E6F74696669656420636F6D706C65747A
:041B0600696F6E0095
:00000001FF
