:100000000C9462000C948A000C948A000C948A0070
:100010000C948A000C948A000C948A000C948A0038
:100020000C948A000C948A000C948A000C948A0028
:100030000C948A000C948A000C948A000C948A0018
:100040000C9446030C948A000C94B6030C94900311
:100050000C948A000C948A000C948A000C948A00F8
:100060000C948A000C948A000000000024002700F1
:100070002A000000000023002600290000000000E4
:10008000250028002B0004040404040404040202D4
:100090000202020203030303030301020408102007
:1000A0004080010204081020010204081020000012
:1000B0000008000201000003040700000000000027
:1000C0000000BF0811241FBECFEFD8E0DEBFCDBFB8
:1000D00011E0A0E0B1E0E0ECF5E102C005900D9286
:1000E000A639B107D9F722E0A6E9B1E001C01D9217
:1000F000AE35B207E1F710E0C2E6D0E004C02197C8
:10010000FE010E94D80AC136D107C9F70E94E80350
:100110000C94DE0A0C940000833081F028F48130C6
:1001200099F08230A9F008958730A9F08830C9F09D
:100130008430B1F4809180008F7D03C08091800075
:100140008F7780938000089584B58F7784BD08955C
:1001500084B58F7DFBCF8091B0008F778093B00006
:1001600008958091B0008F7DF9CF1F93CF93DF93D7
:10017000E3EBF0E09491EFE9F0E0D491EBE8F0E00C
:10018000C491CC23B9F0182F992319F0892F0E941C
:100190008C00EC2FF0E0EE0FFF1FE458FF4FA5910D
:1001A000B4918FB7F894EC91111108C0D095DE236B
:1001B000DC938FBFDF91CF911F910895DE2BF8CF95
:1001C000CF93DF93E0EBF0E08491ECE9F0E0D491A1
:1001D000E8E8F0E0C491CC23A1F081110E948C00EA
:1001E000EC2FF0E0EE0FFF1FEE58FF4FA591B491FA
:1001F000EC91ED2381E090E009F480E0DF91CF9174
:10020000089580E090E0FACF2FB7F8946091BD0197
:100210007091BE018091BF019091C0012FBF0895E0
:10022000AF92BF92CF92DF92EF92FF920F931F9304
:10023000CF93DF936C017B018B01040F151FEB0142
:100240005E01AE18BF08C017D10759F06991D601F9
:10025000ED91FC910190F081E02DC6010995892B6B
:1002600079F7C501DF91CF911F910F91FF90EF902A
:10027000DF90CF90BF90AF900895FC01538D448DD7
:10028000252F30E0842F90E0821B930B541710F041
:10029000CF96089501970895FC01918D828D98174E
:1002A00061F0A28DAE0FBF2FB11D5D968C91928D26
:1002B0009F5F9F73928F90E008958FEF9FEF089557
:1002C000FC01918D828D981731F0828DE80FF11D20
:1002D000858D90E008958FEF9FEF0895FC01918D3B
:1002E000228D892F90E0805C9F4F821B91098F7334
:1002F0009927089581EC91E00E946E0121E0892BFD
:1003000009F420E0822F089580E090E0892B29F005
:100310000E947A0181110C9400000895FC01A48DC3
:10032000A80FB92FB11DA35ABF4F2C91848D90E017
:1003300001968F739927848FA689B7892C93A089FA
:10034000B1898C91837080648C93938D848D981384
:1003500006C00288F389E02D80818F7D8083089517
:10036000EF92FF920F931F93CF93DF93EC0181E005
:10037000888F9B8D8C8D98131AC0E889F9898081AC
:1003800085FF15C09FB7F894EE89FF896083E889DF
:10039000F98980818370806480839FBF81E090E0D1
:1003A000DF91CF911F910F91FF90EF900895F62E5E
:1003B0000B8D10E00F5F1F4F0F731127E02E8C8DF8
:1003C0008E110CC00FB607FCFACFE889F98980813D
:1003D00085FFF5CFCE010E948E01F1CFEB8DEC0FA2
:1003E000FD2FF11DE35AFF4FF0829FB7F8940B8F5A
:1003F000EA89FB8980818062CFCFCF93DF93EC01C4
:10040000888D8823B9F0AA89BB89E889F9898C91FC
:1004100085FD03C0808186FD0DC00FB607FCF7CFB8
:100420008C9185FFF2CF808185FFEDCFCE010E94B8
:100430008E01E9CFDF91CF910895FC01019000205A
:10044000E9F73197AF01481B590BBC0181EC91E0F2
:100450000C9410018F929F92AF92BF920F931F93B3
:10046000CF93DF93CDB7DEB7A1970FB6F894DEBF79
:100470000FBECDBF19A2423008F44AE08E010F5DD5
:100480001F4F842E912CB12CA12CA50194010E9408
:10049000B60AE62FB901CA01EA30F4F4E05DD801EA
:1004A000EE938D01232B242B252B79F790E080E010
:1004B000109719F0CD010E941D02A1960FB6F89475
:1004C000DEBF0FBECDBFDF91CF911F910F91BF90C7
:1004D000AF909F908F900895E95CE1CFCF93DF9329
:1004E0000E941D02EC0182E191E00E941D028C0F2E
:1004F0009D1FDF91CF9108954F925F926F927F92EF
:100500008F929F92AF92BF92CF92DF92EF92FF9223
:100510006B017C01AC019B010E94B10A8823C1F0F0
:1005200085E191E00E941D027C0182E191E00E9440
:100530001D028E0D9F1DFF90EF90DF90CF90BF901A
:10054000AF909F908F907F906F905F904F900895A5
:1005500046015701E894B7F82FEF3FEF4FE75FE709
:10056000C501B4010E94B10A81110DC02FEF3FEF08
:100570004FE75FE7C501B4010E94590918161CF442
:1005800089E191E0CFCF2FEF3FEF4FE75FE4C70165
:10059000B6010E943F0A18161CF48DE191E0C2CF0B
:1005A0002FEF3FEF4FE75FECC701B6010E945909FB
:1005B00087FDF3CF20E030E0A901C701B6010E941A
:1005C0005909B12CA12C87FF0AC06DE281EC91E0A2
:1005D0000E94B0015C01F7FAF094F7F8F0942AE079
:1005E00037ED43EA5BE3C701B6010E94ED082B013A
:1005F0003C010E945E096B017C010E948D099B01F8
:10060000AC01C301B2010E94EC082B013C014AE09D
:10061000C701B6010E942A027C01EA0CFB1C6EE2B3
:1006200081EC91E00E94B001E80EF91E20E030E07C
:1006300040E251E4C301B2010E94440A2B013C0193
:100640000E945E094B01B12CA12C4AE0C501B40106
:100650000E942A02E80EF91EC501B4010E948D090C
:100660009B01AC01C301B2010E94EC0820E030E024
:1006700040E251E40E94440A0E945E0990E080E05A
:100680004AE00E942A02E80EF91E4FCF1F920F92F5
:100690000FB60F9211242F933F938F939F93AF9395
:1006A000BF938091BD019091BE01A091BF01B09117
:1006B000C0013091BC0123E0230F2D3758F501967E
:1006C000A11DB11D2093BC018093BD019093BE017B
:1006D000A093BF01B093C0018091B8019091B9017E
:1006E000A091BA01B091BB010196A11DB11D8093EB
:1006F000B8019093B901A093BA01B093BB01BF9127
:10070000AF919F918F913F912F910F900FBE0F90BE
:100710001F90189526E8230F0296A11DB11DD2CF78
:100720001F920F920FB60F9211242F933F934F9366
:100730005F936F937F938F939F93AF93BF93EF9349
:10074000FF9381EC91E00E948E01FF91EF91BF91A8
:10075000AF919F918F917F916F915F914F913F9159
:100760002F910F900FBE0F901F9018951F920F9210
:100770000FB60F9211242F938F939F93EF93FF93B4
:10078000E091D101F091D2018081E091D701F09107
:10079000D80182FD1BC090818091DA018F5F8F7339
:1007A0002091DB01821741F0E091DA01F0E0EF5394
:1007B000FE4F958F8093DA01FF91EF919F918F917A
:1007C0002F910F900FBE0F901F9018958081F4CF3E
:1007D000789484B5826084BD84B5816084BD85B51C
:1007E000826085BD85B5816085BD80916E00816028
:1007F00080936E00109281008091810082608093CE
:1008000081008091810081608093810080918000CF
:100810008160809380008091B10084608093B100FA
:100820008091B00081608093B00080917A008460F4
:1008300080937A0080917A00826080937A00809120
:100840007A00816080937A0080917A00806880933A
:100850007A001092C100E091D101F091D20182E0C2
:100860008083E091CD01F091CE011082E091CF0123
:10087000F091D0018FEC80831092D901E091D501E5
:10088000F091D60186E08083E091D301F091D4010C
:10089000808180618083E091D301F091D4018081D7
:1008A00088608083E091D301F091D40180818068D9
:1008B0008083E091D301F091D40180818F7D80838A
:1008C000ECE9F0E02491E8E8F0E084918823C1F0BD
:1008D00090E0880F991FFC01E859FF4FC591D49112
:1008E000FC01E458FF4FA591B4919FB7F89488811B
:1008F000E22FE0958E2388838C91E823EC939FBFB1
:10090000EFE9F0E02491EBE8F0E08491882399F09E
:1009100090E0880F991FFC01E859FF4FA591B49111
:10092000FC01E458FF4F859194918FB7F894EC91B6
:10093000E22BEC938FBFC2E0D0E003E010E02CE0AC
:10094000E22EF12C33E1C32ED12C4AE1A42EB12C9E
:100950008DE0282E312C9FE0892E912C8091B601BC
:100960009091B701892B69F481E291E00E946E02B7
:100970008091B6019091B70101969093B701809351
:10098000B6018091B6019091B701019761F4109280
:10099000B2011092B3011092B4011092B501D0933C
:1009A000B701C093B601D093B101C093B00180915B
:1009B000B6019091B7010297A1F420E030E040E247
:1009C00051E46091B2017091B3018091B4019091B2
:1009D000B5010E94590987FFB4C31093B701009372
:1009E000B6018091B6019091B701039769F520E0B7
:1009F00030E040E05FE36091B2017091B30180911B
:100A0000B4019091B5010E94ED086093B20170931A
:100A1000B3018093B4019093B50188E291E00E9404
:100A20001D026091B2017091B3018091B401909167
:100A3000B5010E947C028091B6019091B7010196A8
:100A40009093B7018093B6018091B6019091B70160
:100A5000049781F40E9404016093AA017093AB0192
:100A60008093AC019093AD0185E090E09093B70145
:100A70008093B6018091B6019091B7010597C9F4B2
:100A80000E9404014090AA015090AB016090AC011B
:100A90007090AD016419750986099709643F71402A
:100AA00081059105C8F186E090E09093B7018093AD
:100AB000B6018091B6019091B701069769F520E0E3
:100AC00030E040E05FE36091B2017091B30180914A
:100AD000B4019091B5010E94ED086093B20170934A
:100AE000B3018093B4019093B50188E291E00E9434
:100AF0001D026091B2017091B3018091B401909197
:100B0000B5010E947C028091B6019091B7010196D7
:100B10009093B7018093B6018091B6019091B7018F
:100B2000079781F40E9404016093AA017093AB01BE
:100B30008093AC019093AD0188E090E09093B70171
:100B40008093B6018091B6019091B7010897C9F4DE
:100B50000E9404014090AA015090AB016090AC014A
:100B60007090AD016419750986099709643F714059
:100B700081059105A0F089E090E09093B701809302
:100B8000B6018091B6019091B701099741F4809127
:100B9000B0019091B1019093B7018093B6018AE0C2
:100BA00090E09093AF018093AE018091B601909157
:100BB000B7010A9731F48BE090E09093B7018093EE
:100BC000B6018091B6019091B7010B9741F4109254
:100BD000A9011092A801F092B701E092B601F0923B
:100BE000A701E092A6018091B6019091B7010C9700
:100BF00059F48091A8019091A90106970CF0AAC21E
:100C00003092B7012092B6018091B6019091B70160
:100C10000D9749F54090A8015090A901052C000CB2
:100C2000660877084AE0C301B20177FE0DC06DE2A5
:100C300081EC91E00E94B00166277727CB0164190F
:100C40007509860997094AE00E942A0282E191E02B
:100C50000E941D028091B6019091B7010196909378
:100C6000B7018093B6018091B6019091B7010E97BC
:100C700071F40E9404016093AA017093AB01809308
:100C8000AC019093AD019092B7018092B601809132
:100C9000B6019091B7010F97C9F40E9404014090EA
:100CA000AA015090AB016090AC017090AD01641945
:100CB000750986099709683E734081059105D8F04A
:100CC00080E190E09093B7018093B6018091B601E6
:100CD0009091B701409779F48091A8019091A90172
:100CE00001969093A9018093A80181E190E09093EF
:100CF000B7018093B6018091B6019091B7014197F9
:100D000041F48091A6019091A7019093B70180933F
:100D1000B60182E190E09093A5018093A4018091B7
:100D2000B6019091B701429721F4D092B701C092D9
:100D3000B601D092A301C092A2018091B601909118
:100D4000B701439759F40E94E000892B09F00BC2C8
:100D500084E190E09093B7018093B6018091B60151
:100D60009091B701449709F057C080919E019091EE
:100D70009F01892B69F484E391E00E946E028091C7
:100D80009E0190919F01019690939F0180939E01F7
:100D900080919E0190919F01019771F40E9404013E
:100DA00060939A0170939B0180939C0190939D01A5
:100DB000D0939F01C0939E0180919E0190919F01CD
:100DC0000297B9F40E94040140909A0150909B014F
:100DD00060909C0170909D016419750986099709BE
:100DE000683E73408105910570F010939F01009358
:100DF0009E0180919E0190919F01039721F4109292
:100E00009F0110929E018091B6019091B7010196C9
:100E10009093B7018093B6018091B6019091B7018C
:100E2000459741F48091A2019091A3019093B7015D
:100E30008093B60186E190E09093A1018093A00198
:100E40008091B6019091B701469731F487E190E027
:100E50009093B7018093B6018091B6019091B7014C
:100E6000479769F48DE491E00E946E028091B6018B
:100E70009091B70101969093B7018093B60180914C
:100E8000B6019091B701489781F40E9404016093E4
:100E9000AA017093AB018093AC019093AD0189E1FD
:100EA00090E09093B7018093B6018091B601909144
:100EB000B7014997B9F40E9404014090AA015090EB
:100EC000AB016090AC017090AD01641975098609A1
:100ED0009709683E73408105910520F0B092B701F3
:100EE000A092B601B0929901A09298018091B601AA
:100EF0009091B7014A9759F40E94E000892B09F0BC
:100F000037C18BE190E09093B7018093B601809157
:100F1000B6019091B7014B9769F48EE691E00E947B
:100F20006E028091B6019091B70101969093B7013E
:100F30008093B6018091B6019091B7014C9781F4EE
:100F40000E9404016093AA017093AB018093AC01ED
:100F50009093AD018DE190E09093B7018093B6013D
:100F60008091B6019091B7014D97C9F40E94040198
:100F70004090AA015090AB016090AC017090AD011F
:100F80006419750986099709603D774081059105C7
:100F9000C8F08EE190E09093B7018093B601809104
:100FA000B6019091B7014E9769F485E791E00E94F0
:100FB0006E028091B6019091B70101969093B701AE
:100FC0008093B6018091B6019091B7014F9781F45B
:100FD0000E9404016093AA017093AB018093AC015D
:100FE0009093AD0180E290E09093B7018093B601B9
:100FF0008091B6019091B7018097C9F40E940401D5
:101000004090AA015090AB016090AC017090AD018E
:101010006419750986099709603D77408105910536
:10102000A0F081E290E09093B7018093B6018091A7
:10103000B6019091B701819741F480919801909108
:1010400099019093B7018093B60182E290E090936A
:101050009701809396018091B6019091B701829794
:1010600031F483E290E09093B7018093B6018091D0
:10107000B6019091B701839789F48CE791E00E94C3
:101080006E0286E891E00E946E028091B601909116
:10109000B70101969093B7018093B6018091B60194
:1010A0009091B701849781F40E9404016093AA0192
:1010B0007093AB018093AC019093AD0185E290E019
:1010C0009093B7018093B6018091B6019091B701DA
:1010D0008597C9F40E9404014090AA015090AB0189
:1010E0006090AC017090AD0164197509860997098B
:1010F000603D77408105910580F086E290E0909315
:10110000B7018093B6018091B6019091B70186979F
:1011100021F41092B7011092B6010E94E000892BD1
:1011200061F181E00E94B50080E090E0892B09F434
:1011300015CC0E947A01882309F40ACC0E94000091
:1011400007CC8091AE019091AF019093B70180934D
:10115000B60147CC8091A4019091A5019093B7016D
:101160008093B60151CD8091A0019091A101F2CD63
:101170008091960190919701C6CE80E0D3CFE1ECAB
:10118000F1E01382128288EE93E0A0E0B0E0848365
:101190009583A683B78384E091E09183808385EC77
:1011A00090E09587848784EC90E09787868780EC31
:1011B00090E0918B808B81EC90E0938B828B82EC22
:1011C00090E0958B848B86EC90E0978B868B118ECC
:1011D000128E138E148E08955058BB27AA270E9492
:1011E00004090C94050A0E94F70938F00E94FE09D0
:1011F00020F039F49F3F19F426F40C94F4090EF40E
:10120000E095E7FB0C94EE09E92F0E94160A58F3CB
:10121000BA17620773078407950720F079F4A6F5DB
:101220000C94380A0EF4E0950B2EBA2FA02D0B016A
:10123000B90190010C01CA01A0011124FF27591B1B
:1012400099F0593F50F4503E68F11A16F040A22F21
:10125000232F342F4427585FF3CF46953795279592
:10126000A795F0405395C9F77EF41F16BA0B620B91
:10127000730B840BBAF09150A1F0FF0FBB1F661FD8
:10128000771F881FC2F70EC0BA0F621F731F841F1B
:1012900048F4879577956795B795F7959E3F08F041
:1012A000B0CF9395880F08F09927EE0F9795879503
:1012B00008950E94CA0908F481E008950E941E0A58
:1012C00088F09F5798F0B92F9927B751B0F0E1F007
:1012D000660F771F881F991F1AF0BA95C9F714C0B7
:1012E000B13091F00E94380AB1E008950C94380AA8
:1012F000672F782F8827B85F39F0B93FCCF38695F0
:1013000077956795B395D9F73EF49095809570954C
:1013100061957F4F8F4F9F4F0895E89409C097FBC9
:101320003EF490958095709561957F4F8F4F9F4FBC
:101330009923A9F0F92F96E9BB279395F695879500
:1013400077956795B795F111F8CFFAF4BB0F11F4C3
:1013500060FF1BC06F5F7F4F8F4F9F4F16C088236A
:1013600011F096E911C0772321F09EE8872F762FA0
:1013700005C0662371F096E8862F70E060E02AF0E1
:101380009A95660F771F881FDAF7880F96958795CD
:1013900097F90895990F0008550FAA0BE0E8FEEFA2
:1013A00016161706E807F907C0F012161306E40729
:1013B000F50798F0621B730B840B950B39F40A2622
:1013C00061F0232B242B252B21F408950A2609F400
:1013D000A140A6958FEF811D811D089597F99F6704
:1013E00080E870E060E008959FEF80EC08950024AD
:1013F0000A941616170618060906089500240A947A
:1014000012161306140605060895092E0394000CFF
:1014100011F4882352F0BB0F40F4BF2B11F460FF8E
:1014200004C06F5F7F4F8F4F9F4F089557FD9058B7
:10143000440F551F59F05F3F71F04795880F97FB98
:10144000991F61F09F3F79F0879508951216130652
:101450001406551FF2CF4695F1DF08C01616170681
:101460001806991FF1CF86957105610508940895B6
:10147000E894BB2766277727CB0197F908950E9448
:10148000CA0908F48FEF08950E94570A0C94050AC0
:101490000E94F70938F00E94FE0920F0952311F010
:1014A0000C94EE090C94F40911240C94390A0E944E
:1014B000160A70F3959FC1F3950F50E0551F629F78
:1014C000F001729FBB27F00DB11D639FAA27F00D9D
:1014D000B11DAA1F649F6627B00DA11D661F829FC4
:1014E0002227B00DA11D621F739FB00DA11D621FA9
:1014F000839FA00D611D221F749F3327A00D611DC6
:10150000231F849F600D211D822F762F6A2F1124A7
:101510009F5750409AF0F1F088234AF0EE0FFF1FDA
:10152000BB1F661F771F881F91505040A9F79E3F31
:10153000510580F00C94EE090C94390A5F3FE4F3F6
:10154000983ED4F3869577956795B795F795E79587
:101550009F5FC1F7FE2B880F911D9695879597F990
:1015600008950E94CA09880B990B0895A1E21A2ECA
:10157000AA1BBB1BFD010DC0AA1FBB1FEE1FFF1F37
:10158000A217B307E407F50720F0A21BB30BE40B87
:10159000F50B661F771F881F991F1A9469F76095CE
:1015A0007095809590959B01AC01BD01CF01089588
:1015B000EE0FFF1F0590F491E02D0994F894FFCFF2
:1015C00000000000B00110013D01FD016E014C0161
:1015D00060010D0A006E616E00696E66006F7666CE
:1015E000005374657020300054696D65732072611A
:1015F0006E3A200057616974696E6720666F7220C9
:10160000627574746F6E20707265737300486F6CCE
:10161000642074686520627574746F6E20746F2026
:101620006578697420746865206C6F6F70005374FE
:10163000657020320053746570203300436F6D7005
:101640006C657465210052657374617274696E67AC
:06165000202E2E2E0000EA
:00000001FF
