:100000000C9462000C948A000C948A000C948A0070
:100010000C948A000C948A000C948A000C948A0038
:100020000C948A000C948A000C948A000C948A0028
:100030000C948A000C948A000C948A000C948A0018
:100040000C9400040C948A000C9470040C944A04E0
:100050000C948A000C948A000C948A000C948A00F8
:100060000C948A000C948A000000000024002700F1
:100070002A0000000000250028002B0000000000DE
:1000800023002600290004040404040404040202DA
:100090000202020203030303030301020408102007
:1000A0004080010204081020010204081020000012
:1000B0000008000201000003040700000000000027
:1000C0000000571111241FBECFEFD8E0DEBFCDBF17
:1000D00012E0A0E0B1E0E0EFF6E202C005900D9280
:1000E000A233B107D9F723E0A2E3B2E001C01D9229
:1000F000AB34B207E1F710E0C2E6D0E004C02197CC
:10010000FE010E947013C136D107C9F70E94A204F4
:100110000C9476130C940000833081F028F4813025
:1001200099F08230A9F008958730A9F08830C9F09D
:100130008430B1F4809180008F7D03C08091800075
:100140008F7780938000089584B58F7784BD08955C
:1001500084B58F7DFBCF8091B0008F778093B00006
:1001600008958091B0008F7DF9CFCF93DF93E0EBBE
:10017000F0E08491ECE9F0E0D491E8E8F0E0C4919B
:10018000CC23A1F081110E948C00EC2FF0E0EE0F47
:10019000FF1FE458FF4FA591B491EC91ED2381E04E
:1001A00090E009F480E0DF91CF91089580E090E045
:1001B000FACF1F93CF93DF93E3EBF0E09491EFE955
:1001C000F0E0D491EBE8F0E0C491CC23B9F0182F23
:1001D000992319F0892F0E948C00EC2FF0E0EE0F8C
:1001E000FF1FEE58FF4FA591B4918FB7F894EC9193
:1001F000111108C0D095DE23DC938FBFDF91CF9122
:100200001F910895DE2BF8CFCF93DF9390E0FC0190
:10021000E656FF4F24918A579F4FFC018491882313
:10022000D1F090E0880F991FFC01E859FF4FA5918C
:10023000B491FC01EE58FF4FC591D49161110EC0ED
:100240009FB7F8948C91E22FE0958E238C932881B0
:10025000E223E8839FBFDF91CF9108958FB7F89491
:10026000EC91E22BEC938FBFF6CFCF93DF93EC01B1
:1002700061E085E00E940401209729F480E0DF918D
:10028000CF910C94D900CF3FD10511F481E0F7CF85
:10029000E3EBF0E0E491E33029F140F4E130B1F038
:1002A000E230D9F0C038D1058CF7E8CFE73021F142
:1002B000E83051F1E430B1F78091800080628093A2
:1002C0008000D0938B00C0938A0004C084B58068FE
:1002D00084BDC7BDDF91CF91089584B5806284BD90
:1002E000C8BDF8CF80918000806880938000D09353
:1002F0008900C0938800EECF8091B0008068809321
:10030000B000C093B300E6CF8091B00080628093CC
:10031000B000C093B400DECF2FB7F8946091AA026A
:100320007091AB028091AC029091AD022FBF089505
:10033000AF92BF92CF92DF92EF92FF920F931F93F3
:10034000CF93DF936C017B018B01040F151FEB0131
:100350005E01AE18BF08C017D10759F06991D601E8
:10036000ED91FC910190F081E02DC6010995892B5A
:1003700079F7C501DF91CF911F910F91FF90EF9019
:10038000DF90CF90BF90AF900895FC01538D448DC6
:10039000252F30E0842F90E0821B930B541710F030
:1003A000CF96089501970895FC01918D828D98173D
:1003B00061F0A28DAE0FBF2FB11D5D968C91928D15
:1003C0009F5F9F73928F90E008958FEF9FEF089546
:1003D000FC01918D828D981731F0828DE80FF11D0F
:1003E000858D90E008958FEF9FEF0895FC01918D2A
:1003F000228D892F90E0805C9F4F821B91098F7323
:10040000992708958EEA92E00E94F60121E0892B57
:1004100009F420E0822F089580E090E0892B29F0F4
:100420000E94020281110C9400000895FC01A48D29
:10043000A80FB92FB11DA35ABF4F2C91848D90E006
:1004400001968F739927848FA689B7892C93A089E9
:10045000B1898C91837080648C93938D848D981373
:1004600006C00288F389E02D80818F7D8083089506
:10047000EF92FF920F931F93CF93DF93EC0181E0F4
:10048000888F9B8D8C8D98131AC0E889F98980819B
:1004900085FF15C09FB7F894EE89FF896083E889CE
:1004A000F98980818370806480839FBF81E090E0C0
:1004B000DF91CF911F910F91FF90EF900895F62E4D
:1004C0000B8D10E00F5F1F4F0F731127E02E8C8DE7
:1004D0008E110CC00FB607FCFACFE889F98980812C
:1004E00085FFF5CFCE010E941602F1CFEB8DEC0F08
:1004F000FD2FF11DE35AFF4FF0829FB7F8940B8F49
:10050000EA89FB8980818062CFCFCF93DF93EC01B2
:10051000888D8823B9F0AA89BB89E889F9898C91EB
:1005200085FD03C0808186FD0DC00FB607FCF7CFA7
:100530008C9185FFF2CF808185FFEDCFCE010E94A7
:100540001602E9CFDF91CF910895FC0101900020C0
:10055000E9F73197AF01481B590BBC018EEA92E0D5
:100560000C9498018F929F92AF92BF920F931F931A
:10057000CF93DF93CDB7DEB7A1970FB6F894DEBF68
:100580000FBECDBF19A2423008F44AE08E010F5DC4
:100590001F4F842E912CB12CA12CA50194010E94F7
:1005A0004E13E62FB901CA01EA30F4F4E05DD80138
:1005B000EE938D01232B242B252B79F790E080E0FF
:1005C000109719F0CD010E94A502A1960FB6F894DC
:1005D000DEBF0FBECDBFDF91CF911F910F91BF90B6
:1005E000AF909F908F900895E95CE1CFCF93DF9318
:1005F0000E94A502EC0187E191E00E94A5028C0F08
:100600009D1FDF91CF910895CF92DF92EF92FF92DD
:10061000CF93DF936C01990FEE08FF08F7FE1FC020
:100620006DE28EEA92E00E943802EC01662777279D
:10063000CB016C197D098E099F094AE00E94B20224
:10064000C80FD91F87E191E00E94A5028C0F9D1F62
:10065000DF91CF91FF90EF90DF90CF9008954AE027
:10066000C701B6010E94B202EC01ECCF4F925F923B
:100670006F927F928F929F92AF92BF92CF92DF92B2
:10068000EF92FF926B017C01AC019B010E94491328
:100690008823C1F08AE191E00E94A5027C0187E1F4
:1006A00091E00E94A5028E0D9F1DFF90EF90DF90BC
:1006B000CF90BF90AF909F908F907F906F905F9002
:1006C0004F90089546015701E894B7F82FEF3FEF98
:1006D0004FE75FE7C501B4010E94491381110DC0C6
:1006E0002FEF3FEF4FE75FE7C501B4010E94F11123
:1006F00018161CF48EE191E0CFCF2FEF3FEF4FE7BC
:100700005FE4C701B6010E94D71218161CF482E2FA
:1007100091E0C2CF2FEF3FEF4FE75FECC701B6018B
:100720000E94F11187FDF3CF20E030E0A901C7015D
:10073000B6010E94F111B12CA12C87FF0AC06DE215
:100740008EEA92E00E9438025C01F7FAF094F7F822
:10075000F0942AE037ED43EA5BE3C701B6010E945B
:1007600085112B013C010E94F6116B017C010E9456
:1007700025129B01AC01C301B2010E9484112B011F
:100780003C014AE0C701B6010E94B2027C01EA0CBA
:10079000FB1C6EE28EEA92E00E943802E80EF91E1F
:1007A00020E030E040E251E4C301B2010E94DC12DB
:1007B0002B013C010E94F6114B01B12CA12C4AE007
:1007C000C501B4010E94B202E80EF91EC501B401D0
:1007D0000E9425129B01AC01C301B2010E94841149
:1007E00020E030E040E251E40E94DC120E94F61169
:1007F00090E080E04AE00E94B202E80EF91E4FCF7E
:100800001F920F920FB60F9211242F933F938F9345
:100810009F93AF93BF938091AA029091AB02A09156
:10082000AC02B091AD023091A90223E0230F2D3725
:1008300058F50196A11DB11D2093A9028093AA022B
:100840009093AB02A093AC02B093AD028091A5024D
:100850009091A602A091A702B091A8020196A11DB5
:10086000B11D8093A5029093A602A093A702B09316
:10087000A802BF91AF919F918F913F912F910F90BF
:100880000FBE0F901F90189526E8230F0296A11D0A
:10089000B11DD2CF1F920F920FB60F9211242F933A
:1008A0003F934F935F936F937F938F939F93AF93F8
:1008B000BF93EF93FF938EEA92E00E941602FF919E
:1008C000EF91BF91AF919F918F917F916F915F91C8
:1008D0004F913F912F910F900FBE0F901F90189541
:1008E0001F920F920FB60F9211242F938F939F9305
:1008F000EF93FF93E091BE02F091BF028081E091FF
:10090000C402F091C50282FD1BC090818091C70294
:100910008F5F8F732091C802821741F0E091C70268
:10092000F0E0E255FD4F958F8093C702FF91EF9164
:100930009F918F912F910F900FBE0F901F90189540
:100940008081F4CFCF93DF931F92CDB7DEB7789439
:1009500084B5826084BD84B5816084BD85B58260C4
:1009600085BD85B5816085BD80916E008160809375
:100970006E001092810080918100826080938100DE
:1009800080918100816080938100809180008160EE
:10099000809380008091B10084608093B100809149
:1009A000B00081608093B00080917A008460809371
:1009B0007A0080917A00826080937A0080917A0038
:1009C000816080937A0080917A00806880937A00B9
:1009D0001092C100E091BE02F091BF0282E08083DC
:1009E000E091BA02F091BB021082E091BC02F0915A
:1009F000BD028FEC80831092C602E091C202F0919A
:100A0000C30286E08083E091C002F091C102808140
:100A100080618083E091C002F091C1028081886092
:100A20008083E091C002F091C10280818068808360
:100A3000E091C002F091C10280818F7D808360E0EF
:100A400082E00E94040161E085E00E94040122240A
:100A50002394312C07E0C02ED12C72E0472E512C6C
:100A6000E4E06E2E712CF5E08F2E912C0AE010E060
:100A7000ABE0EA2EF12CBDE0AB2EB12C20910401AD
:100A800029838091A3029091A402892B31F4211132
:100A900004C03092A4022092A3023092A2022092BB
:100AA000A1028091A3029091A402019749F40E94AF
:100AB000B500892B09F0DEC05092A4024092A30237
:100AC0008091A3029091A402029721F43092A40293
:100AD0002092A30283E090E09093A00280939F0273
:100AE0008091A3029091A402039721F47092A40232
:100AF0006092A3028091A3029091A402049739F41A
:100B00009092A4028092A30281E00E94D900809179
:100B1000A3029091A402059781F486E090E090935F
:100B2000A4028093A3020E948C0160939B027093A5
:100B30009C0280939D0290939E028091A3029091CB
:100B4000A4020697B9F40E948C0120919B02309177
:100B50009C0240919D0250919E02621B730B840B7C
:100B6000950B623371058105910520F0D092A402A6
:100B7000C092A302D0929A02C09299028091A302DD
:100B80009091A402079759F40E94B500892B09F4AB
:100B90007AC088E090E09093A4028093A3028091B1
:100BA000A3029091A402089721F4D092A402C092CB
:100BB000A30289E090E0909398028093970280913D
:100BC000A3029091A402099721F41093A402009328
:100BD000A3028091A3029091A4020A9739F4F092A3
:100BE000A402E092A30280E00E94D9008091A302B7
:100BF0009091A4020B9781F48CE090E09093A40272
:100C00008093A3020E948C0160939B0270939C02CC
:100C100080939D0290939E028091A3029091A402E2
:100C20000C97B9F40E948C0120919B0230919C0298
:100C300040919D0250919E02621B730B840B950B99
:100C4000623371058105910570F0B092A402A09203
:100C5000A3028091A3029091A4020D9721F4109217
:100C6000A4021092A3029981992309F4D1C510928C
:100C7000040104CF80919F029091A0029093A4025E
:100C80008093A3021DCF809197029091980283CF09
:100C900080918E0290918F022FC68091890290914F
:100CA0008A02C4C68091810290918202019690933B
:100CB0008202809381020C946F0E80917402909155
:100CC00075020C94280F8091720290917302019624
:100CD00090937302809372020C9455108091690274
:100CE00090916A020C94DE10809195029091960288
:100CF000CB9741F480916B0290916C029093960295
:100D0000809395028CE390E090936A02809369024D
:100D10008091950290919602CC9731F48DE390E00A
:100D200090939602809395028DE390E090936202F7
:100D3000809361028091950290919602CD9709F07F
:100D4000F2C022E0822E912C33E0E32EF12C7724A6
:100D5000739445E0442E512C0AE010E05BE0A52E90
:100D6000B12C80913D0290913E02892B41F48091FB
:100D70000001811104C030923E0220923D02809118
:100D80003D0290913E02019741F490923E02809282
:100D90003D028AE791E00E94F60280913D02909127
:100DA0003E02029741F4F0923E02E0923D02109220
:100DB0003C0210923B0280913D0290913E020397CB
:100DC00041F484E090E090933E0280933D02709263
:100DD0003A0284E090E09093390280933802809147
:100DE0003D0290913E02049721F450923E024092BF
:100DF0003D0280913D0290913E020597A9F48091B9
:100E00003A02882309F41BC210923A0280913B02F5
:100E100090913C02069774F08091360290913702CF
:100E200090933E0280933D0280913D0290913E025C
:100E3000069771F4D0923E02C0923D0285E991E09E
:100E40000E94A50280913B0290913C020E94040303
:100E500080913D0290913E02079781F488E090E0F6
:100E600090933E0280933D020E948C016093320277
:100E700070933302809334029093350280913D0247
:100E800090913E020897C9F40E948C012091320291
:100E9000309133024091340250913502621B730B42
:100EA000840B950B683E734081059105A0F089E0A5
:100EB00090E090933E0280933D0280913D0290919C
:100EC0003E02099741F48091380290913902909343
:100ED0003E0280933D0210933702009336028091C8
:100EE0003D0290913E020A9721F4B0923E02A092F8
:100EF0003D0280913D0290913E028B30910509F0B8
:100F0000A8C18CE090E090933E0280933D028FEA6E
:100F100091E00E94F60280915F02909160029093AE
:100F20009602809395028091950290919602CE97B9
:100F300009F0B6C18FE390E09093960280939502FA
:100F400086E0A82EB12C9BE0E92EF12C0CE010E0FD
:100F50009090010180915D0290915E02892B31F4A5
:100F6000911004C030925E0220925D0280915D0279
:100F700090915E02019751F482E090E090935E02BE
:100F800080935D0210925C0210925B0280915D0280
:100F900090915E02029749F483E090E090935E02A4
:100FA00080935D0281E080935A0283E090E0909309
:100FB00059028093580280915D0290915E020397DE
:100FC00031F484E090E090935E0280935D02809122
:100FD0005D0290915E020497B9F480915A028823D1
:100FE00009F44AC110925A0280915B0290915C020E
:100FF0008F3F910579F074F08091560290915702DD
:1010000090935E0280935D0280915D0290915E02FA
:10101000059751F4B0925E02A0925D0280915B024E
:1010200090915C020E94350180915D0290915E0278
:10103000069771F4D0925E02C0925D020E948C010C
:10104000609352027093530280935402909355021E
:1010500080915D0290915E020797C9F40E948C0115
:10106000409052025090530260905402709055028A
:101070006419750986099709623071058105910522
:1010800090F088E090E090935E0280935D02809102
:101090005D0290915E02089731F483E090E09093B6
:1010A0005E0280935D0289E090E090935702809306
:1010B000560280915D0290915E02099731F48AE0B8
:1010C00090E090935E0280935D0280915D0290912A
:1010D0005E020A9751F4F0925E02E0925D028FEF99
:1010E00090E0909351028093500280915D02909124
:1010F0005E020B9739F410935E0200935D0281E06B
:1011000080934F0210934E0200934D0280915D0236
:1011100090915E020C9731F48DE090E090935E0226
:1011200080935D0280915D0290915E020D97A9F41B
:1011300080914F02882309F4A9C010924F02809138
:1011400050029091510297FF0EC080914B029091F6
:101150004C0290935E0280935D0280915D029091BB
:101160005E020E9761F48FE090E090935E028093B0
:101170005D0280915002909151020E943501809150
:101180005D0290915E020F9781F480E190E0909370
:101190005E0280935D020E948C0160935202709304
:1011A0005302809354029093550280915D02909176
:1011B0005E024097C9F40E948C0140905202509008
:1011C00053026090540270905502641975098609A3
:1011D0009709623071058105910580F081E190E009
:1011E00090935E0280935D0280915D0290915E0219
:1011F000419721F410935E0200935D0282E190E03A
:1012000090934C0280934B0280915D0290915E021C
:10121000429731F483E190E090935E0280935D0207
:1012200080915D0290915E02439721F410925E02DC
:1012300010925D029920A1F11092010189CE809156
:101240003B0290913C02019690933C0280933B02BA
:10125000DDCD0C9721F410923E0210923D02809158
:101260000001882319F0109200017BCD8091950236
:1012700090919602019653CE80915B0290915C0210
:10128000019690935C0280935B02AECE80915002F7
:1012900090915102019790935102809350024FCF49
:1012A0008091950290919602CF9741F480916102CE
:1012B00090916202909396028093950280E490E070
:1012C0009093600280935F028091950290919602C4
:1012D0008034910531F481E490E0909396028093FC
:1012E000950280919502909196028134910571F456
:1012F00082E490E0909396028093950210924702C8
:10130000109248021092490210924A02809195026E
:10131000909196028234910581F483E490E0909359
:101320009602809395020E948C016093470270930D
:1013300048028093490290934A0283E490E090939C
:1013400046028093450280919502909196028334E3
:101350009105D1F40E948C0100914702109148023E
:101360002091490230914A02601B710B820B930B52
:10137000683873418105910508F033C284E490E038
:101380009093960280939502809195029091960297
:101390008434910549F485E490E09093960280931B
:1013A000950281E00E94D900809195029091960269
:1013B0008534910581F486E490E0909396028093C1
:1013C00095020E948C016093910270939202809327
:1013D00093029093940280919502909196028634A4
:1013E0009105C9F40E948C01009191021091920222
:1013F0002091930230919402601B710B820B930B2E
:10140000683E734081059105B0F087E490E09093C9
:10141000960280939502809195029091960287346E
:10142000910549F488E490E09093960280939502A8
:1014300080E00E94D90080919502909196028834B4
:10144000910581F489E490E090939602809395024F
:101450000E948C0160939102709392028093930298
:10146000909394028091950290919602893491050F
:10147000C9F40E948C010091910210919202209176
:10148000930230919402601B710B820B930B683EA8
:1014900073408105910598F08AE490E0909396025C
:1014A0008093950280919502909196028A349105DD
:1014B00031F483E490E090939602809395028BE45C
:1014C00090E0909344028093430280919502909122
:1014D00096028B34910531F48CE490E0909396025F
:1014E0008093950280919502909196028C3491059B
:1014F00069F48DE490E0909396028093950280E0E9
:101500000E94D9008CEC91E00E94F6028091950235
:10151000909196028D34910581F48EE490E0909341
:101520009602809395020E948C01609391027093C1
:1015300092028093930290939402809195029091ED
:1015400096028E349105C9F40E948C01009191029B
:10155000109192022091930230919402601B710BC2
:10156000820B930B683E73408105910530F08FE448
:1015700090E090939602809395028FE490E0909390
:1015800042028093410280919502909196028F349D
:10159000910559F40E94B500892B09F027C180E517
:1015A00090E090939602809395028091950290919D
:1015B00096028035910551F481E590E09093960272
:1015C000809395028DEE91E00E94F6028091950243
:1015D000909196028135910581F482E590E0909397
:1015E0009602809395020E948C0160939102709301
:1015F000920280939302909394028091950290912D
:10160000960282359105C9F40E948C0100919102E5
:10161000109192022091930230919402601B710B01
:10162000820B930B603D774081059105B8F083E50F
:1016300090E090939602809395028091950290910C
:1016400096028335910551F484E590E090939602DB
:101650008093950284EF91E00E94F60280919502BA
:10166000909196028435910581F485E590E0909300
:101670009602809395020E948C0160939102709370
:10168000920280939302909394028091950290919C
:10169000960285359105C9F40E948C010091910252
:1016A000109192022091930230919402601B710B71
:1016B000820B930B603D774081059105A8F086E58C
:1016C00090E090939602809395028091950290917C
:1016D00096028635910541F4809141029091420233
:1016E000909396028093950287E590E09093400254
:1016F00080933F02809195029091960287359105E3
:1017000031F488E590E09093960280939502809161
:101710009502909196028835910571F489E590E0E3
:1017200090939602809395028BEF91E00E94F602CF
:1017300085E092E00E94F6028091950290919602D7
:101740008935910581F48AE590E090939602809323
:1017500095020E948C016093910270939202809393
:1017600093029093940280919502909196028A350B
:101770009105C9F40E948C0100919102109192028E
:101780002091930230919402601B710B820B930B9A
:10179000603D774081059105A8F18BE590E090933D
:1017A00096028093950280919502909196028B35D6
:1017B000910509F58CE590E090939602809395024F
:1017C00084E192E00E94F60280E090E0892B09F427
:1017D00044C90E940202882309F43FC90E94000004
:1017E0003CC98091430290914402CACD80913F024E
:1017F00090914002D6CE8C35910521F4109296023C
:1018000010929502809103018823F1F21092030156
:101810008091950290919602892B41F48091030169
:10182000811104C030929602209295028091950217
:1018300090919602019751F482E090E09093960285
:101840008093950286E291E00E94F60280919502D3
:1018500090919602029781F483E090E09093960233
:10186000809395020E948C01609391027093920282
:1018700080939302909394028091950290919602A6
:101880000397C9F40E948C01009191021091920279
:101890002091930230919402601B710B820B930B89
:1018A000603D774081059105D0F084E090E0909311
:1018B00096028093950280919502909196020497EA
:1018C00071F485E090E090939602809395020E94D7
:1018D000B50021E0892B09F420E02093900280914B
:1018E000950290919602059759F480919002882371
:1018F00009F4CEC986E090E0909396028093950219
:101900008091950290919602069741F4D0929602AA
:10191000C09295028DE291E00E94F60280919502BC
:1019200090919602079741F480918C0290918D02DC
:10193000909396028093950288E090E090938F02B6
:1019400080938E028091950290919602089731F4CF
:1019500089E090E0909396028093950289E090E070
:1019600090938D0280938C028091950290919602C3
:10197000099731F48AE090E0909396028093950263
:1019800080919502909196020A9781F48BE090E005
:1019900090939602809395020E948C01609391022D
:1019A0007093920280939302909394028091950297
:1019B000909196020B97C9F40E948C0100919102BC
:1019C000109192022091930230919402601B710B4E
:1019D000820B930B603D774081059105D0F08CE040
:1019E00090E0909396028093950280919502909159
:1019F00096020C9771F48DE090E09093960280939C
:101A000095020E94B50021E0892B09F420E0209383
:101A10008B0280919502909196020D9759F48091D6
:101A20008B02882309F439C98EE090E090939602E6
:101A30008093950280919502909196020E9751F4B1
:101A40008FE090E090939602809395028DE291E072
:101A50000E94F60280919502909196020F9741F4B0
:101A600080918702909188029093960280939502CC
:101A700080E190E090938A028093890280919502A0
:101A800090919602409731F481E190E09093960214
:101A9000809395028091950290919602419751F41E
:101AA00082E190E090939602809395028FE391E01B
:101AB0000E94F60282E190E0909388028093870270
:101AC0008091950290919602429731F483E190E0E3
:101AD0009093960280939502809195029091960240
:101AE000439781F484E190E090939602809395026D
:101AF0000E948C01609391027093920280939302F2
:101B00009093940280919502909196024497C9F423
:101B10000E948C01009191021091920220919302F7
:101B200030919402601B710B820B930B603D7740E8
:101B30008105910530F085E190E0909396028093C5
:101B4000950285E190E090938602809385028091D2
:101B5000950290919602459731F486E190E090933A
:101B600096028093950280919502909196024697F5
:101B700091F487E190E090939602809395020E9401
:101B8000B500892B71F0809183029091840290932B
:101B900096028093950280919502909196024797C4
:101BA00051F488E190E0909396028093950285E548
:101BB00091E00E94F60280919502909196024897DA
:101BC00081F489E190E090939602809395020E94BF
:101BD0008C01609391027093920280939302909390
:101BE000940280919502909196024997C9F40E94BF
:101BF0008C010091910210919202209193023091F8
:101C00009402601B710B820B930B683E734081053D
:101C10009105A0F08AE190E090939602809395025E
:101C200080919502909196024A9741F480918502A5
:101C30009091860290939602809395028BE190E0BA
:101C400090938402809383028091950290919602F2
:101C50004B9731F48CE190E090939602809395023B
:101C600080919502909196024C9751F48DE190E00D
:101C700090939602809395021092820210928102B4
:101C800080919502909196024D9749F48EE190E0F3
:101C9000909396028093950281E0809380028EE17A
:101CA00090E090937F0280937E02809195029091C4
:101CB00096024E9731F48FE190E0909396028093D4
:101CC000950280919502909196024F97B1F4809180
:101CD0008002882311F40C945206109280028091A5
:101CE0008102909182020B9774F080917C02909116
:101CF0007D02909396028093950280919502909137
:101D00009602809751F48091810280FD0CC08EE193
:101D100090E0909396028093950280919502909125
:101D20009602819761F482E290E09093960280930C
:101D3000950280918102909182020E940403809119
:101D4000950290919602829781F483E290E09093BD
:101D50009602809395020E948C0160939102709389
:101D600092028093930290939402809195029091B5
:101D700096028397C9F40E948C0100919102109100
:101D800092022091930230919402601B710B820B9E
:101D9000930B683E734081059105A0F084E290E0CA
:101DA000909396028093950280919502909196026D
:101DB000849741F480917E0290917F0290939602E5
:101DC0008093950285E290E090937D0280937C025F
:101DD0008091950290919602859731F486E290E089
:101DE000909396028093950280919502909196022D
:101DF000869771F487E290E0909396028093950223
:101E0000109278021092790210927A0210927B025C
:101E100087E290E09093770280937602809195021A
:101E2000909196028797C1F420E030E040E251E4BF
:101E3000609178027091790280917A0290917B0290
:101E40000E94F11187FD02C00C945D0688E290E0CB
:101E500090939602809395028091950290919602BC
:101E6000889751F589E290E09093960280939502CD
:101E700020E030E040E05FE3609178027091790209
:101E800080917A0290917B020E9485116093780282
:101E90007093790280937A0290937B028EE691E0B0
:101EA0000E94A502609178027091790280917A0275
:101EB00090917B020E943603809195029091960248
:101EC000899781F48AE290E090939602809395023C
:101ED0000E948C016093910270939202809393020E
:101EE0009093940280919502909196028A97C9F4FA
:101EF0000E948C0100919102109192022091930214
:101F000030919402601B710B820B930B643F714004
:101F100081059105B0F18BE290E090939602809359
:101F2000950280919502909196028B9751F58CE2E3
:101F300090E0909396028093950220E030E040E09C
:101F40005FE3609178027091790280917A029091BA
:101F50007B020E94851160937802709379028093CE
:101F60007A0290937B028EE691E00E94A502609136
:101F700078027091790280917A0290917B020E949E
:101F8000360380919502909196028C9781F48DE2B0
:101F900090E090939602809395020E948C0160934A
:101FA0009102709392028093930290939402809195
:101FB0009502909196028D97C9F40E948C01009130
:101FC0009102109192022091930230919402601B31
:101FD000710B820B930B643F714081059105A0F05A
:101FE0008EE290E090939602809395028091950204
:101FF000909196028E9741F48091760290917702AB
:1020000090939602809395028FE290E090937502F0
:102010008093740280919502909196028F9731F48B
:1020200080E390E0909396028093950280919502D0
:1020300090919602C09751F481E390E090939602BC
:102040008093950210927302109272028091950211
:1020500090919602C19749F482E390E090939602A2
:102060008093950281E08093710282E390E09093E7
:10207000700280936F028091950290919602C297B0
:1020800031F483E390E090939602809395028091DF
:10209000950290919602C397B1F4809171028823C2
:1020A00011F40C9463061092710280917202909167
:1020B0007302069774F080916D0290916E02909376
:1020C0009602809395028091950290919602C49712
:1020D00061F485E390E0909396028093950280915D
:1020E0007202909173020E94040380919502909174
:1020F0009602C59781F486E390E0909396028093D0
:1021000095020E948C0160939102709392028093D9
:102110009302909394028091950290919602C697B3
:10212000C9F40E948C0100919102109192022091B9
:10213000930230919402601B710B820B930B683EEB
:10214000734081059105A0F087E390E0909396029B
:10215000809395028091950290919602C79741F4E1
:1021600080916F02909170029093960280939502F5
:1021700088E390E090936E0280936D0280919502C7
:1021800090919602C89731F489E390E0909396027B
:102190008093950289E390E090936C0280936B02A8
:1021A0008091950290919602C99761F40E94B500C2
:1021B000892B11F00C946E068AE390E090939602BE
:1021C000809395028091950290919602CA9711F0A2
:1021D0000C9474068BE390E09093960280939502A2
:1021E00003E010E064E0E62EF12C8091670290910C
:1021F0006802892B41F480910201811104C0309260
:1022000068022092670280916702909168020197AC
:1022100051F482E090E0909368028093670285E534
:1022200091E00E94F6028091670290916802029705
:1022300071F410936802009367020E948C0160930E
:1022400063027093640280936502909366028091AA
:102250006702909168020397B9F40E948C01809004
:10226000630290906402A0906502B09066026819C3
:1022700079098A099B09683E73408105910570F0D0
:10228000F0926802E0926702809167029091680282
:10229000049721F410926802109267028091020163
:1022A000882311F40C947406109202019ECFEEEA7A
:1022B000F2E01382128288EE93E0A0E0B0E0848323
:1022C0009583A683B78389E091E09183808385EC31
:1022D00090E09587848784EC90E09787868780ECF0
:1022E00090E0918B808B81EC90E0938B828B82ECE1
:1022F00090E0958B848B86EC90E0978B868B118E8B
:10230000128E138E148E08955058BB27AA270E9450
:102310009C110C949D120E948F1238F00E9496120C
:1023200020F039F49F3F19F426F40C948C120EF42B
:10233000E095E7FB0C948612E92F0E94AE1258F349
:10234000BA17620773078407950720F079F4A6F59A
:102350000C94D0120EF4E0950B2EBA2FA02D0B0189
:10236000B90190010C01CA01A0011124FF27591BDA
:1023700099F0593F50F4503E68F11A16F040A22FE0
:10238000232F342F4427585FF3CF46953795279551
:10239000A795F0405395C9F77EF41F16BA0B620B50
:1023A000730B840BBAF09150A1F0FF0FBB1F661F97
:1023B000771F881FC2F70EC0BA0F621F731F841FDA
:1023C00048F4879577956795B795F7959E3F08F000
:1023D000B0CF9395880F08F09927EE0F97958795C2
:1023E00008950E94621208F481E008950E94B612D6
:1023F00088F09F5798F0B92F9927B751B0F0E1F0C6
:10240000660F771F881F991F1AF0BA95C9F714C075
:10241000B13091F00E94D012B1E008950C94D01226
:10242000672F782F8827B85F39F0B93FCCF38695AE
:1024300077956795B395D9F73EF49095809570950B
:1024400061957F4F8F4F9F4F0895E89409C097FB88
:102450003EF490958095709561957F4F8F4F9F4F7B
:102460009923A9F0F92F96E9BB279395F6958795BF
:1024700077956795B795F111F8CFFAF4BB0F11F482
:1024800060FF1BC06F5F7F4F8F4F9F4F16C0882329
:1024900011F096E911C0772321F09EE8872F762F5F
:1024A00005C0662371F096E8862F70E060E02AF0A0
:1024B0009A95660F771F881FDAF7880F969587958C
:1024C00097F90895990F0008550FAA0BE0E8FEEF61
:1024D00016161706E807F907C0F012161306E407E8
:1024E000F50798F0621B730B840B950B39F40A26E1
:1024F00061F0232B242B252B21F408950A2609F4BF
:10250000A140A6958FEF811D811D089597F99F67C2
:1025100080E870E060E008959FEF80EC089500246B
:102520000A941616170618060906089500240A9438
:1025300012161306140605060895092E0394000CBE
:1025400011F4882352F0BB0F40F4BF2B11F460FF4D
:1025500004C06F5F7F4F8F4F9F4F089557FD905876
:10256000440F551F59F05F3F71F04795880F97FB57
:10257000991F61F09F3F79F0879508951216130611
:102580001406551FF2CF4695F1DF08C01616170640
:102590001806991FF1CF8695710561050894089575
:1025A000E894BB2766277727CB0197F908950E9407
:1025B000621208F48FEF08950E94EF120C949D129E
:1025C0000E948F1238F00E94961220F0952311F08D
:1025D0000C9486120C948C1211240C94D1120E942B
:1025E000AE1270F3959FC1F3950F50E0551F629F97
:1025F000F001729FBB27F00DB11D639FAA27F00D5C
:10260000B11DAA1F649F6627B00DA11D661F829F82
:102610002227B00DA11D621F739FB00DA11D621F67
:10262000839FA00D611D221F749F3327A00D611D84
:10263000231F849F600D211D822F762F6A2F112466
:102640009F5750409AF0F1F088234AF0EE0FFF1F99
:10265000BB1F661F771F881F91505040A9F79E3FF0
:10266000510580F00C9486120C94D1125F3FE4F374
:10267000983ED4F3869577956795B795F795E79546
:102680009F5FC1F7FE2B880F911D9695879597F94F
:1026900008950E946212880B990B0895A1E21A2EE8
:1026A000AA1BBB1BFD010DC0AA1FBB1FEE1FFF1FF6
:1026B000A217B307E407F50720F0A21BB30BE40B46
:1026C000F50B661F771F881F991F1A9469F760958D
:1026D0007095809590959B01AC01BD01CF01089547
:1026E000EE0FFF1F0590F491E02D0994F894FFCFB1
:1026F00001010101010000000038029801C50185B7
:1027000002F601D401E8010D0A006E616E00696EE7
:1027100066006F76660053746570203000427574F1
:10272000746F6E2069732070726573736564004204
:102730007574746F6E206973206E6F74207072658B
:10274000737365640057616974696E6720666F72A0
:1027500020627574746F6E207072657373005469B3
:102760006D65732072616E3A20005365636F6E640D
:102770006172792073657175656E6365207374612C
:1027800072746564005365636F6E64617279207260
:10279000756E6E696E672074696D65733A200053BB
:1027A00065636F6E646172792073657175656E63C0
:1027B0006520636F6D706C6574656400486F6C6450
:1027C0002074686520627574746F6E20746F206564
:1027D00078697420746865206C6F6F70005374653D
:1027E0007020320053746570203300436F6D706C3D
:1027F000657465210052657374617274696E672037
:102800002E2E2E0053657175656E6365206E6F7494
:10281000696669656420636F6D706C6574696F6E5D
:022820000000B6
:00000001FF
