:100000000C9462000C948A000C948A000C948A0070
:100010000C948A000C948A000C948A000C948A0038
:100020000C948A000C948A000C948A000C948A0028
:100030000C948A000C948A000C948A000C948A0018
:100040000C9400040C948A000C9470040C944A04E0
:100050000C948A000C948A000C948A000C948A00F8
:100060000C948A000C948A000000000024002700F1
:100070002A0000000000250028002B0000000000DE
:1000800023002600290004040404040404040202DA
:100090000202020203030303030301020408102007
:1000A0004080010204081020010204081020000012
:1000B0000008000201000003040700000000000027
:1000C0000000FB0B11241FBECFEFD8E0DEBFCDBF79
:1000D00012E0A0E0B1E0E8E3FCE102C005900D927F
:1000E000A430B107D9F722E0A4E0B2E001C01D922C
:1000F000A83FB207E1F710E0C2E6D0E004C02197C4
:10010000FE010E94140EC136D107C9F70E94A20455
:100110000C941A0E0C940000833081F028F4813086
:1001200099F08230A9F008958730A9F08830C9F09D
:100130008430B1F4809180008F7D03C08091800075
:100140008F7780938000089584B58F7784BD08955C
:1001500084B58F7DFBCF8091B0008F778093B00006
:1001600008958091B0008F7DF9CFCF93DF93E0EBBE
:10017000F0E08491ECE9F0E0D491E8E8F0E0C4919B
:10018000CC23A1F081110E948C00EC2FF0E0EE0F47
:10019000FF1FE458FF4FA591B491EC91ED2381E04E
:1001A00090E009F480E0DF91CF91089580E090E045
:1001B000FACF1F93CF93DF93E3EBF0E09491EFE955
:1001C000F0E0D491EBE8F0E0C491CC23B9F0182F23
:1001D000992319F0892F0E948C00EC2FF0E0EE0F8C
:1001E000FF1FEE58FF4FA591B4918FB7F894EC9193
:1001F000111108C0D095DE23DC938FBFDF91CF9122
:100200001F910895DE2BF8CFCF93DF9390E0FC0190
:10021000E656FF4F24918A579F4FFC018491882313
:10022000D1F090E0880F991FFC01E859FF4FA5918C
:10023000B491FC01EE58FF4FC591D49161110EC0ED
:100240009FB7F8948C91E22FE0958E238C932881B0
:10025000E223E8839FBFDF91CF9108958FB7F89491
:10026000EC91E22BEC938FBFF6CFCF93DF93EC01B1
:1002700061E085E00E940401209729F480E0DF918D
:10028000CF910C94D900CF3FD10511F481E0F7CF85
:10029000E3EBF0E0E491E33029F140F4E130B1F038
:1002A000E230D9F0C038D1058CF7E8CFE73021F142
:1002B000E83051F1E430B1F78091800080628093A2
:1002C0008000D0938B00C0938A0004C084B58068FE
:1002D00084BDC7BDDF91CF91089584B5806284BD90
:1002E000C8BDF8CF80918000806880938000D09353
:1002F0008900C0938800EECF8091B0008068809321
:10030000B000C093B300E6CF8091B00080628093CC
:10031000B000C093B400DECF2FB7F89460915702BD
:10032000709158028091590290915A022FBF0895FE
:10033000AF92BF92CF92DF92EF92FF920F931F93F3
:10034000CF93DF936C017B018B01040F151FEB0131
:100350005E01AE18BF08C017D10759F06991D601E8
:10036000ED91FC910190F081E02DC6010995892B5A
:1003700079F7C501DF91CF911F910F91FF90EF9019
:10038000DF90CF90BF90AF900895FC01538D448DC6
:10039000252F30E0842F90E0821B930B541710F030
:1003A000CF96089501970895FC01918D828D98173D
:1003B00061F0A28DAE0FBF2FB11D5D968C91928D15
:1003C0009F5F9F73928F90E008958FEF9FEF089546
:1003D000FC01918D828D981731F0828DE80FF11D0F
:1003E000858D90E008958FEF9FEF0895FC01918D2A
:1003F000228D892F90E0805C9F4F821B91098F7323
:10040000992708958BE592E00E94F60121E0892B5F
:1004100009F420E0822F089580E090E0892B29F0F4
:100420000E94020281110C9400000895FC01A48D29
:10043000A80FB92FB11DA35ABF4F2C91848D90E006
:1004400001968F739927848FA689B7892C93A089E9
:10045000B1898C91837080648C93938D848D981373
:1004600006C00288F389E02D80818F7D8083089506
:10047000EF92FF920F931F93CF93DF93EC0181E0F4
:10048000888F9B8D8C8D98131AC0E889F98980819B
:1004900085FF15C09FB7F894EE89FF896083E889CE
:1004A000F98980818370806480839FBF81E090E0C0
:1004B000DF91CF911F910F91FF90EF900895F62E4D
:1004C0000B8D10E00F5F1F4F0F731127E02E8C8DE7
:1004D0008E110CC00FB607FCFACFE889F98980812C
:1004E00085FFF5CFCE010E941602F1CFEB8DEC0F08
:1004F000FD2FF11DE35AFF4FF0829FB7F8940B8F49
:10050000EA89FB8980818062CFCFCF93DF93EC01B2
:10051000888D8823B9F0AA89BB89E889F9898C91EB
:1005200085FD03C0808186FD0DC00FB607FCF7CFA7
:100530008C9185FFF2CF808185FFEDCFCE010E94A7
:100540001602E9CFDF91CF910895FC0101900020C0
:10055000E9F73197AF01481B590BBC018BE592E0DD
:100560000C9498018F929F92AF92BF920F931F931A
:10057000CF93DF93CDB7DEB7A1970FB6F894DEBF68
:100580000FBECDBF19A2423008F44AE08E010F5DC4
:100590001F4F842E912CB12CA12CA50194010E94F7
:1005A000F20DE62FB901CA01EA30F4F4E05DD8019A
:1005B000EE938D01232B242B252B79F790E080E0FF
:1005C000109719F0CD010E94A502A1960FB6F894DC
:1005D000DEBF0FBECDBFDF91CF911F910F91BF90B6
:1005E000AF909F908F900895E95CE1CFCF93DF9318
:1005F0000E94A502EC0182E191E00E94A5028C0F0D
:100600009D1FDF91CF910895CF92DF92EF92FF92DD
:10061000CF93DF936C01990FEE08FF08F7FE1FC020
:100620006DE28BE592E00E943802EC0166277727A5
:10063000CB016C197D098E099F094AE00E94B20224
:10064000C80FD91F82E191E00E94A5028C0F9D1F67
:10065000DF91CF91FF90EF90DF90CF9008954AE027
:10066000C701B6010E94B202EC01ECCF4F925F923B
:100670006F927F928F929F92AF92BF92CF92DF92B2
:10068000EF92FF926B017C01AC019B010E94ED0D8A
:100690008823C1F085E191E00E94A5027C0182E1FE
:1006A00091E00E94A5028E0D9F1DFF90EF90DF90BC
:1006B000CF90BF90AF909F908F907F906F905F9002
:1006C0004F90089546015701E894B7F82FEF3FEF98
:1006D0004FE75FE7C501B4010E94ED0D81110DC028
:1006E0002FEF3FEF4FE75FE7C501B4010E94950C84
:1006F00018161CF489E191E0CFCF2FEF3FEF4FE7C1
:100700005FE4C701B6010E947B0D18161CF48DE151
:1007100091E0C2CF2FEF3FEF4FE75FECC701B6018B
:100720000E94950C87FDF3CF20E030E0A901C701BE
:10073000B6010E94950CB12CA12C87FF0AC06DE276
:100740008BE592E00E9438025C01F7FAF094F7F82A
:10075000F0942AE037ED43EA5BE3C701B6010E945B
:10076000290C2B013C010E949A0C6B017C010E9418
:10077000C90C9B01AC01C301B2010E94280C2B01E2
:100780003C014AE0C701B6010E94B2027C01EA0CBA
:10079000FB1C6EE28BE592E00E943802E80EF91E27
:1007A00020E030E040E251E4C301B2010E94800D3C
:1007B0002B013C010E949A0C4B01B12CA12C4AE068
:1007C000C501B4010E94B202E80EF91EC501B401D0
:1007D0000E94C90C9B01AC01C301B2010E94280C0C
:1007E00020E030E040E251E40E94800D0E949A0C2B
:1007F00090E080E04AE00E94B202E80EF91E4FCF7E
:100800001F920F920FB60F9211242F933F938F9345
:100810009F93AF93BF938091570290915802A091FC
:100820005902B0915A023091560223E0230F2D371E
:1008300058F50196A11DB11D2093560280935702D1
:1008400090935802A0935902B0935A028091520299
:1008500090915302A0915402B09155020196A11DAE
:10086000B11D8093520290935302A0935402B0930F
:100870005502BF91AF919F918F913F912F910F9012
:100880000FBE0F901F90189526E8230F0296A11D0A
:10089000B11DD2CF1F920F920FB60F9211242F933A
:1008A0003F934F935F936F937F938F939F93AF93F8
:1008B000BF93EF93FF938BE592E00E941602FF91A6
:1008C000EF91BF91AF919F918F917F916F915F91C8
:1008D0004F913F912F910F900FBE0F901F90189541
:1008E0001F920F920FB60F9211242F938F939F9305
:1008F000EF93FF93E0916B02F0916C028081E091A5
:100900007102F091720282FD1BC09081809174028D
:100910008F5F8F7320917502821741F0E09174020E
:10092000F0E0E55AFD4F958F80937402FF91EF91AF
:100930009F918F912F910F900FBE0F901F90189540
:100940008081F4CF789484B5826084BD84B5816061
:1009500084BD85B5826085BD85B5816085BD80918A
:100960006E00816080936E00109281008091810002
:1009700082608093810080918100816080938100FA
:10098000809180008160809380008091B1008460BC
:100990008093B1008091B00081608093B00080911D
:1009A0007A00846080937A0080917A0082608093DC
:1009B0007A0080917A00816080937A0080917A0039
:1009C000806880937A001092C100E0916B02F091F0
:1009D0006C0282E08083E0916702F09168021082ED
:1009E000E0916902F0916A028FEC808310927302A9
:1009F000E0916F02F091700286E08083E0916D02D9
:100A0000F0916E02808180618083E0916D02F091AF
:100A10006E02808188608083E0916D02F0916E02A9
:100A2000808180688083E0916D02F0916E02808108
:100A30008F7D808360E082E00E94040161E085E0B8
:100A40000E940401C2E0D0E001E010E064E0E62E84
:100A5000F12C83E0C82ED12C95E0492E512C26E0B4
:100A6000222E312C37E0632E712C48E0842E912CFD
:100A700059E0A52EB12C1092510210925002809193
:100A80004E0290914F02892B49F40E94B500892BA8
:100A900009F05CC610934F0200934E0280914E0203
:100AA00090914F02019721F410924F0210924E0242
:100AB000D0934D02C0934C0280914E0290914F0210
:100AC000029721F4D0924F02C0924E0280914E02C2
:100AD00090914F02039739F4F0924F02E0924E0248
:100AE00081E00E94D900F0924B02E0924A0280918C
:100AF0004E0290914F02049749F40E94B500892B51
:100B000009F42DC650924F0240924E0280914E023F
:100B100090914F02059721F4F0924F02E0924E021D
:100B2000309249022092480280914E0290914F02E9
:100B3000069721F470924F0260924E0280914E020D
:100B400090914F02079739F490924F0280924E0293
:100B500080E00E94D90080914E0290914F02089748
:100B600021F410924F0210924E0280914602909111
:100B70004702892B41F4109347020093460281E219
:100B800091E00E94F60280914602909147020197FF
:100B900061F4D0934702C093460210924202109231
:100BA00043021092440210924502D0934102C09336
:100BB000400280914602909147020297A1F420E002
:100BC00030E040E251E46091420270914302809132
:100BD0004402909145020E94950C87FFC9C5D092AE
:100BE0004702C092460280914602909147020397C5
:100BF00041F5F0924702E092460220E030E040E00A
:100C00005FE36091420270914302809144029091AF
:100C100045020E94290C6093420270934302809324
:100C200044029093450288E291E00E94A5026091FF
:100C300042027091430280914402909145020E94C9
:100C400036038091460290914702049771F40E9406
:100C50008C0160933A0270933B0280933C02909324
:100C60003D02509247024092460280914602909186
:100C700047020597B9F40E948C0120913A02309105
:100C80003B0240913C0250913D02621B730B840B6E
:100C9000950B643F71408105910590F130924702B8
:100CA000209246028091460290914702069741F5B4
:100CB000709247026092460220E030E040E05FE33D
:100CC00060914202709143028091440290914502EA
:100CD0000E94290C60934202709343028093440265
:100CE0009093450288E291E00E94A5026091420241
:100CF0007091430280914402909145020E94360314
:100D00008091460290914702079771F40E948C01EE
:100D100060933A0270933B0280933C0290933D02B1
:100D2000909247028092460280914602909147023B
:100D30000897B9F40E948C0120913A0230913B024D
:100D400040913C0250913D02621B730B840B950B4A
:100D5000643F71408105910590F0B0924702A092E6
:100D600046028091460290914702099741F4809192
:100D700040029091410290934702809346028AE09C
:100D800090E090933F0280933E02809146029091C2
:100D900047020A9731F48BE090E0909347028093EA
:100DA000460280914602909147020B9751F48CE0E5
:100DB00090E090934702809346021092390210927D
:100DC00038028CE090E09093370280933602809155
:100DD0004602909147020C9769F4809138029091F5
:100DE000390206970CF0CDC48DE090E09093470255
:100DF0008093460280914602909147020D9761F4DC
:100E00008EE090E0909347028093460280913802F2
:100E1000909139020E94040380914602909147020A
:100E20000E9781F40E948C0160933A0270933B020A
:100E300080933C0290933D028FE090E090934702B4
:100E40008093460280914602909147020F97C9F421
:100E50000E948C0120913A0230913B0240913C0269
:100E600050913D02621B730B840B950B683E7340DF
:100E700081059105D8F080E190E09093470280933E
:100E800046028091460290914702409779F481E1B1
:100E900090E09093470280934602809138029091AF
:100EA000390201969093390280933802809146026C
:100EB00090914702419741F4809136029091370218
:100EC000909347028093460282E190E0909335022E
:100ED000809334028091460290914702429731F408
:100EE00083E190E0909347028093460283E190E093
:100EF0009093330280933202809146029091470290
:100F0000439759F40E94B500892B09F03FC484E14E
:100F100090E0909347028093460280914602909120
:100F20004702449709F04FC085E190E09093470253
:100F30008093460280912E0290912F02892B41F4DA
:100F400010932F0200932E0284E391E00E94F60298
:100F500080912E0290912F02019771F40E948C01D2
:100F600060932A0270932B0280932C0290932D029F
:100F7000D0932F02C0932E0280912E0290912F02C7
:100F80000297B9F40E948C0120912A0230912B0221
:100F900040912C0250912D02621B730B840B950B18
:100FA000683E73408105910570F0D0922F02C09287
:100FB0002E0280912E0290912F02039721F410921D
:100FC0002F0210922E02809146029091470245977F
:100FD00041F48091320290913302909347028093C2
:100FE000460286E190E09093310280933002809136
:100FF000460290914702469731F487E190E0909342
:1010000047028093460287E190E090932902809303
:1010100028028091460290914702479709F0BFC08D
:1010200080910E0290910F02892B41F410930F02D0
:1010300000930E028DE491E00E94F60280910E0270
:1010400090910F02019741F4D0930F02C0930E02CA
:1010500010920D0210920C02D0930B02C0930A0260
:1010600080910E0290910F02029759F480910C0228
:1010700090910D0206970CF08EC3D0920F02C09291
:101080000E0280910E0290910F02039771F4F0927C
:101090000F02E0920E0288E691E00E94A502809184
:1010A0000C0290910D020E94040380910E02909117
:1010B0000F02049771F40E948C01609304027093F4
:1010C0000502809306029093070250920F0240920D
:1010D0000E0280910E0290910F020597B9F40E94C2
:1010E0008C0120910402309105024091060250913A
:1010F0000702621B730B840B950B683E73408105DE
:101100009105B8F030920F0220920E0280910E02EB
:1011100090910F02069769F470920F0260920E028E
:1011200080910C0290910D02019690930D02809394
:101130000C0280910E0290910F02079741F480916A
:101140000A0290910B0290930F0280930E029092EC
:1011500009028092080280910E0290910F02089776
:1011600021F4B0920F02A0920E0280910E02909193
:101170000F028930910509F017C38AE090E090933F
:101180000F0280930E0282E891E00E94F6028091A5
:101190002602909127029093470280934602809105
:1011A000460290914702489709F03FC189E190E0DB
:1011B00090934702809346028091240290912502E9
:1011C000892B41F4109325020093240210922302EC
:1011D0001092220210932102009320028091240297
:1011E00090912502019769F4809122029091230247
:1011F0008F3F910511F00CF0E3C2D0932502C0930C
:1012000024028091240290912502029751F4D092F9
:101210002502C092240280912202909123020E9412
:1012200035018091240290912502039771F40E9468
:101230008C0160931A0270931B0280931C0290939E
:101240001D02F0922502E0922402809124029091E6
:1012500025020497B9F40E948C0120911A02309162
:101260001B0240911C0250911D02621B730B840BE8
:10127000950B6230710581059105B8F050922502F9
:10128000409224028091240290912502059769F4EE
:101290003092250220922402809122029091230212
:1012A00001969093230280932202809124029091D0
:1012B0002502069721F410932502009324027092D0
:1012C0001F0260921E0280912402909125020797CE
:1012D00021F4909225028092240280912402909120
:1012E0002502089751F4B0922502A09224028FEFB4
:1012F00090E09093190280931802B0921702A09286
:1013000016028091240290912502099761F4809140
:1013100018029091190297FD5CC28AE090E09093C8
:1013200025028093240280912402909125020A973D
:1013300061F48BE090E090932502809324028091E9
:101340001802909119020E94350180912402909117
:1013500025020B9781F40E948C0160931A0270930E
:101360001B0280931C0290931D028CE090E09093EE
:1013700025028093240280912402909125020C97EB
:10138000C9F40E948C0120911A0230911B024091F5
:101390001C0250911D02621B730B840B950B623073
:1013A000710581059105D8F08DE090E090932502BC
:1013B0008093240280912402909125020D9779F464
:1013C0008EE090E090932502809324028091180291
:1013D00090911902019790931902809318028091BD
:1013E0002402909125020E9721F4B0922502A0923A
:1013F00024028FE090E09093150280931402809174
:101400002402909125020F9731F480E190E09093AF
:101410002502809324028091240290912502409716
:1014200021F410922502109224028091460290919C
:101430004702499741F480912802909129029093A4
:101440004702809346028AE190E0909327028093BE
:10145000260280914602909147024A9731F48BE12F
:1014600090E09093470280934602809146029091CB
:1014700047024B9769F48CE190E090934702809388
:10148000460280E00E94D9008FE991E00E94F602B6
:1014900080914602909147024C9781F40E948C0102
:1014A00060933A0270933B0280933C0290933D021A
:1014B0008DE190E09093470280934602809146022E
:1014C000909147024D97C9F40E948C0120913A02F5
:1014D00030913B0240913C0250913D02621B730BE4
:1014E000840B950B683E73408105910530F08EE1C9
:1014F00090E090934702809346028EE190E09093B3
:1015000013028093120280914602909147024E97F7
:1015100059F40E94B500892B09F060C18FE190E079
:101520009093470280934602809146029091470231
:101530004F9751F480E290E09093470280934602E7
:1015400080EC91E00E94F602809146029091470261
:10155000809781F40E948C0160933A0270933B0261
:1015600080933C0290933D0281E290E09093470289
:101570008093460280914602909147028197C9F478
:101580000E948C0120913A0230913B0240913C0232
:1015900050913D02621B730B840B950B603D7740AD
:1015A00081059105B0F082E290E09093470280932C
:1015B00046028091460290914702829751F483E25D
:1015C00090E0909347028093460287EC91E00E945E
:1015D000F6028091460290914702839781F40E941F
:1015E0008C0160933A0270933B0280933C0290938B
:1015F0003D0284E290E090934702809346028091FE
:101600004602909147028497C9F40E948C01209170
:101610003A0230913B0240913C0250913D02621BE4
:10162000730B840B950B603D774081059105A0F00D
:1016300085E290E0909347028093460280914602B3
:1016400090914702859741F4809112029091130284
:10165000909347028093460286E290E090931102B5
:10166000809310028091460290914702869731F450
:1016700087E290E090934702809346028091460271
:1016800090914702879771F488E290E09093470227
:10169000809346028EEC91E00E94F60288ED91E084
:1016A0000E94F6028091460290914702889781F449
:1016B0000E948C0160933A0270933B0280933C023B
:1016C00090933D0289E290E0909347028093460216
:1016D00080914602909147028997C9F40E948C013B
:1016E00020913A0230913B0240913C0250913D02E0
:1016F000621B730B840B950B603D77408105910550
:10170000C0F08AE290E09093470280934602809175
:101710004602909147028A32910509F064C08BE23B
:1017200090E0909347028093460287EE91E00E94FA
:10173000F60280E090E0892B09F49DC90E94020224
:10174000882309F486C90E94000083C980914C0255
:1017500090914D0290934F0280934E029FC98091C9
:1017600048029091490290934F0280934E02CEC955
:1017700080913E0290913F029093470280934602EF
:1017800032CA809134029091350230CB8091300280
:1017900090913102BECB8091080290910902909302
:1017A0000F0280930E026DCC0A9721F410920F0263
:1017B00010920E0280914602909147020196EBCC66
:1017C00080911E0290911F02909325028093240223
:1017D00018CD8091140290911502A1CD8091100234
:1017E000909111029DCE8B9709F0A3CF10924702E2
:1017F000109246029ECFEBE5F2E01382128288EE51
:1018000093E0A0E0B0E084839583A683B78384E06F
:1018100091E09183808385EC90E09587848784ECC8
:1018200090E09787868780EC90E0918B808B81ECAD
:1018300090E0938B828B82EC90E0958B848B86EC8E
:1018400090E0978B868B118E128E138E148E0895D6
:101850005058BB27AA270E94400C0C94410D0E94AF
:10186000330D38F00E943A0D20F039F49F3F19F4FF
:1018700026F40C94300D0EF4E095E7FB0C942A0D41
:10188000E92F0E94520D58F3BA17620773078407B5
:10189000950720F079F4A6F50C94740D0EF4E095FC
:1018A0000B2EBA2FA02D0B01B90190010C01CA011A
:1018B000A0011124FF27591B99F0593F50F4503EC5
:1018C00068F11A16F040A22F232F342F4427585FB7
:1018D000F3CF469537952795A795F0405395C9F7CF
:1018E0007EF41F16BA0B620B730B840BBAF0915087
:1018F000A1F0FF0FBB1F661F771F881FC2F70EC026
:10190000BA0F621F731F841F48F4879577956795F8
:10191000B795F7959E3F08F0B0CF9395880F08F0E4
:101920009927EE0F9795879508950E94060D08F464
:1019300081E008950E945A0D88F09F5798F0B92FC2
:101940009927B751B0F0E1F0660F771F881F991FF4
:101950001AF0BA95C9F714C0B13091F00E94740D15
:10196000B1E008950C94740D672F782F8827B85F25
:1019700039F0B93FCCF3869577956795B395D9F74C
:101980003EF490958095709561957F4F8F4F9F4F56
:101990000895E89409C097FB3EF490958095709562
:1019A00061957F4F8F4F9F4F9923A9F0F92F96E9AB
:1019B000BB279395F695879577956795B795F11120
:1019C000F8CFFAF4BB0F11F460FF1BC06F5F7F4FBD
:1019D0008F4F9F4F16C0882311F096E911C07723CF
:1019E00021F09EE8872F762F05C0662371F096E8D8
:1019F000862F70E060E02AF09A95660F771F881FA7
:101A0000DAF7880F9695879597F90895990F00084A
:101A1000550FAA0BE0E8FEEF16161706E807F907C0
:101A2000C0F012161306E407F50798F0621B730B5B
:101A3000840B950B39F40A2661F0232B242B252BDC
:101A400021F408950A2609F4A140A6958FEF811D7F
:101A5000811D089597F99F6780E870E060E0089520
:101A60009FEF80EC089500240A94161617061806B6
:101A70000906089500240A94121613061406050692
:101A80000895092E0394000C11F4882352F0BB0F23
:101A900040F4BF2B11F460FF04C06F5F7F4F8F4F86
:101AA0009F4F089557FD9058440F551F59F05F3FC1
:101AB00071F04795880F97FB991F61F09F3F79F070
:101AC00087950895121613061406551FF2CF4695F2
:101AD000F1DF08C0161617061806991FF1CF869574
:101AE0007105610508940895E894BB276627772758
:101AF000CB0197F908950E94060D08F48FEF089521
:101B00000E94930D0C94410D0E94330D38F00E94F9
:101B10003A0D20F0952311F00C942A0D0C94300D01
:101B200011240C94750D0E94520D70F3959FC1F312
:101B3000950F50E0551F629FF001729FBB27F00D7B
:101B4000B11D639FAA27F00DB11DAA1F649F6627D0
:101B5000B00DA11D661F829F2227B00DA11D621F1F
:101B6000739FB00DA11D621F839FA00D611D221FD9
:101B7000749F3327A00D611D231F849F600D211DBD
:101B8000822F762F6A2F11249F5750409AF0F1F040
:101B900088234AF0EE0FFF1FBB1F661F771F881FA9
:101BA00091505040A9F79E3F510580F00C942A0DAA
:101BB0000C94750D5F3FE4F3983ED4F386957795CA
:101BC0006795B795F795E7959F5FC1F7FE2B880F4F
:101BD000911D9695879597F908950E94060D880B9B
:101BE000990B0895A1E21A2EAA1BBB1BFD010DC083
:101BF000AA1FBB1FEE1FFF1FA217B307E407F507BD
:101C000020F0A21BB30BE40BF50B661F771F881F98
:101C1000991F1A9469F760957095809590959B012E
:101C2000AC01BD01CF010895EE0FFF1F0590F491A7
:081C3000E02D0994F894FFCFA8
:101C38000000000038029801C5018502F601D401B0
:101C4800E8010D0A006E616E00696E66006F7666C7
:101C5800005374657020300054696D65732072619B
:101C68006E3A200057616974696E6720666F72204A
:101C7800627574746F6E2070726573730053656358
:101C88006F6E646172792073657175656E63652026
:101C980073746172746564005365636F6E64617216
:101CA800792072756E6E696E672074696D65733A16
:101CB80020005365636F6E64617279207365717576
:101CC800656E636520636F6D706C6574656400484C
:101CD8006F6C642074686520627574746F6E20740C
:101CE8006F206578697420746865206C6F6F700068
:101CF8005374657020320053746570203300436F4D
:101D08006D706C65746521005265737461727469D5
:101D18006E67202E2E2E0053657175656E636520E3
:101D28006E6F74696669656420636F6D706C657445
:041D3800696F6E0061
:00000001FF
